:020000040800F2
:10000000F80E0020AD010008C9550008E1400008C5
:10001000C5550008DD02000841740008000000001A
:10002000000000000000000000000000F959000876
:10003000CD04000800000000F5590008755B0008B9
:10004000C7010008C7010008C7010008C701000870
:10005000C7010008C7010008D1040008C701000853
:10006000C7010008C7010008C7010008E102000835
:10007000F1020008C7010008C7010008C701000815
:100080000103000811030008C70100080000000078
:10009000000000000000000000000000C701000890
:1000A000C7010008695C0008595C0008C701000826
:1000B000C7010008C7010008C7010008E5400008A3
:1000C000C7010008C7010008C7010008C7010008F0
:1000D000C7010008A1620008B1620008000000002A
:1000E000C7010008C7010008C701000800000000A0
:1000F000000000000000000000000000C701000830
:1001000000000000C7010008C7010008C70100087F
:1001100000000000000000000000000000000000DF
:10012000C7010008C701000821030008C701000833
:10013000C7010008000000000000000000000000EF
:10014000000000000000000000000000355600081C
:10015000C7010008C701000831030008C7010008F3
:10016000C7010008C70100080000000000000000EF
:10017000000000000000000000000000000000007F
:1001800000000000C701000800000000000000009F
:10019000C7010008C7010008DFF80CD000F018F80C
:1001A0000048004709750008F80E002006488047FF
:1001B00006480047FEE7FEE7FEE7FEE7FEE7FEE74C
:1001C000FEE7FEE7FEE7FEE7395C0008990100085C
:1001D000064C074D06E0E06840F0010394E8070094
:1001E00098471034AC42F6D3FFF7DAFF5487000883
:1001F000748700082DE9F05F0546002092469B4673
:1002000088460646814640241BE02846414647462C
:10021000224600F053F853465A46C01A914110D373
:1002200011461846224600F03AF82D1A67EB0108ED
:100230004F4622460120002100F031F817EB00095B
:100240004E41201EA4F10104DFDC484631462A4617
:100250004346BDE8F09F40EA01039B0703D009E055
:1002600008C9121F08C0042AFAD203E011F8013BA2
:1002700000F8013B521EF9D27047D2B201E000F8FB
:10028000012B491EFBD270470022F6E710B513463A
:100290000A4604461946FFF7F0FF204610BD202A03
:1002A00004DB203A00FA02F1002070479140C2F1CD
:1002B000200320FA03F3194390407047202A04DBFF
:1002C000203A21FA02F00021704721FA02F3D040CF
:1002D000C2F120029140084319467047FFE7FEE74C
:1002E00080B540F2B820C2F2000000F01FF980BDD6
:1002F00080B540F21830C2F2000000F017F980BD5E
:1003000080B540F23840C2F2000000F00FF980BD25
:1003100080B540F29840C2F2000000F007F980BDBD
:1003200080B540F27830C2F2000000F0FFF880BDE6
:1003300080B540F2D830C2F2000000F0F7F880BD7E
:1003400082B001900198007810384AF6AB21CAF6C5
:10035000AA21A0FB010108090090009848F2D541AC
:10036000C0F60001085C0199C8650098042807D30D
:10037000FFE701980168042262F30901816506E044
:100380000198016840F2FF3291438165FFE70198CF
:10039000806D02B07047000083B0029000208DF89D
:1003A00007000298806A00900298806900BBFFE70E
:1003B000009803281AD8DFE800F0020D021802980E
:1003C000C06AC001002804D5FFE701208DF80700AE
:1003D000FFE70CE00298C06AB0F1C07F04D1FFE7EC
:1003E00001208DF80700FFE701E000E0FFE741E0B2
:1003F00002988069B0F5005F23D1FFE700980328D9
:100400001DD8DFE800F00206021101208DF8070078
:1004100016E00298C06AC001002804D5FFE7012059
:100420008DF80700FFE70BE00298C06AB0F1C07FCB
:1004300004D1FFE701208DF80700FFE700E0FFE7A8
:1004400017E00098032803D3FFE7032804D00EE049
:1004500001208DF807000BE00298C06AC001002857
:1004600004D5FFE701208DF80700FFE700E0FFE774
:10047000FFE7FFE79DF8070003B0704784B00390E3
:1004800002910192009303980068016821F4802191
:1004900001600098039909684860039880684028C3
:1004A00009D1FFE7019803990968886002980399C8
:1004B0000968C86008E00298039909688860019893
:1004C00003990968C860FFE704B0704770470000EF
:1004D00080B500F001FB80BD82B00090009890F8DC
:1004E0003500022807D0FFE70098802141650120F0
:1004F0008DF807000EE00098052180F8351000986F
:100500000068016821F001010160FFE700208DF81B
:100510000700FFE79DF8070002B0704781B0009028
:10052000009890F8350001B07047000080B586B0A3
:1005300005900020039040F20000C2F20000006825
:1005400048F2B511C1F64E31A0FB0101880A0290B4
:100550000598806D019001980068049004980599B1
:10056000C96D082202FA01F108421BD0FFE7059885
:10057000006800684007002813D5FFE70598006869
:10058000016821F0040101600598C06D082101FA9D
:1005900000F0019988600598416D41F001014165C5
:1005A000FFE7FFE704980599C96D012202FA01F1FE
:1005B000084215D0FFE7059800684069000600284A
:1005C0000DD5FFE70598C06D012101FA00F00199F2
:1005D00088600598416D41F002014165FFE7FFE742
:1005E00004980599C96D042202FA01F1084215D058
:1005F000FFE7059800680068800700280DD5FFE731
:100600000598C06D042101FA00F0019988600598F1
:10061000416D41F004014165FFE7FFE7049805994A
:10062000C96D102202FA01F1084248D0FFE705988F
:10063000006800680007002840D5FFE70598C06DF6
:10064000102101FA00F0019988600598006800689F
:10065000400300281AD5FFE70598006800680003EA
:10066000002809D4FFE70598006C20B1FFE7059842
:10067000016C8847FFE708E00598806C20B1FFE730
:100680000598816C8847FFE7FFE716E0059800684A
:100690000068C005002807D4FFE7059800680168D6
:1006A00021F008010160FFE70598006C20B1FFE729
:1006B0000598016C8847FFE7FFE7FFE7FFE704982D
:1006C0000599C96D202202FA01F1084200F08F80DD
:1006D000FFE7059800680068C006002840F18680A2
:1006E000FFE70598C06D202101FA00F001998860AC
:1006F000059890F83500052835D1FFE70598006882
:10070000016821F01601016005980068416921F037
:10071000800141610598006C20B9FFE70598806C65
:1007200038B1FFE705980068016821F00801016011
:10073000FFE70598C06D3F2101FA00F0019988603C
:10074000FFE70598002180F83410FFE705980121A4
:1007500080F835100598006D20B1FFE70598016D10
:100760008847FFE77CE005980068006840030028A0
:100770001AD5FFE70598006800680003002809D42F
:10078000FFE70598406C20B1FFE70598416C88476A
:10079000FFE708E00598C06B20B1FFE70598C16B43
:1007A0008847FFE7FFE720E0059800680068C0057C
:1007B000002811D4FFE705980068016821F01001B6
:1007C0000160FFE70598002180F83410FFE70598E5
:1007D000012180F83510FFE70598C06B20B1FFE7D5
:1007E0000598C16B8847FFE7FFE7FFE7FFE705983C
:1007F000406DA8B3FFE70598406DC00738B3FFE729
:100800000598052180F8351005980068016821F0E9
:1008100001010160FFE703980130039002998842CB
:1008200001D9FFE708E0FFE7059800680068C00706
:100830000028F0D1FFE7FFE7FFE70598002180F8E7
:100840003410FFE70598012180F83510FFE705987F
:10085000C06C20B1FFE70598C16C8847FFE7FFE750
:1008600006B080BD80B586B004900020039000F0F3
:100870003BFB0290049820B9FFE701208DF8170098
:10088000A3E00498406A08B1FFE7FFE7FFE7049898
:10089000002180F83410FFE70498022180F8351019
:1008A00004980068016821F001010160FFE70498E5
:1008B00000680068C00790B1FFE700F015FB0299DF
:1008C000401A06280AD3FFE70498202141650498BE
:1008D000032180F835108DF8171076E0E7E70498CB
:1008E000006800680390039848F23F01CFF21001BE
:1008F000084003900498D0F804C08268C368016976
:1009000042EA0C021A4311434269114382691143BE
:10091000C2691143006A084303990843039004988D
:10092000406A042808D1FFE70498C16A006B0843B5
:10093000039908430390FFE7039804990968086046
:100940000498006840690390039820F00700039022
:100950000498406A0399084303900498406A042865
:100960001AD1FFE70498806A03990843039004981A
:10097000C06A80B1FFE70498FFF70EFD50B1FFE7B2
:100980000498402141650498012180F835108DF8C4
:1009900017101AE0FFE7FFE7039804990968486118
:1009A0000498FFF7CDFC01900498C06D3F2101FA37
:1009B00000F00199886004980021416504980122A3
:1009C00080F835208DF81710FFE79DF8170006B066
:1009D00080BD000080B588B0069005910492039315
:1009E00000208DF80B000698806D0190FFE70698B7
:1009F00090F83400012804D1FFE702208DF81F0091
:100A000046E00698012180F83410FFE7FFE70698DA
:100A100090F8350001282CD1FFE70698022180F8D4
:100A2000351006980021416506980599049A039BA4
:100A3000FFF724FD0698C06D3F2101FA00F00199EF
:100A4000886006980068016841F016010160069808
:100A5000006C38B1FFE706980068016841F00801B2
:100A60000160FFE706980068016841F0010101603C
:100A700009E0FFE70698002180F83410FFE7022024
:100A80008DF80B00FFE79DF80B008DF81F00FFE7C6
:100A900008B080BD80B584B0039000F025FA0290C4
:100AA000039801900198013020B1FFE701980130CF
:100AB0000190FFE7FFE700F017FA0299401A019949
:100AC000884201D2FFE7F6E704B080BD81B0ADF8FF
:100AD000020001B07047000080B582B00120ADF87F
:100AE000060043F61440C4F201000068BDF8061089
:100AF00008420CD0FFE7BDF8060043F61441C4F2EB
:100B000001010860BDF80600FFF7E0FFFFE702B053
:100B100080BD000087B006900591002003900290F0
:100B200001900490FFE704980F2800F29D81FFE7F1
:100B30000498012101FA00F00390059800680399D8
:100B40000840029002980399884240F08881FFE7AC
:100B50000598406801280FD0FFE7059840680228F3
:100B60000AD0FFE705984068112805D0FFE70598EF
:100B7000406812282FD1FFE70698806801900498FA
:100B80004000032101FA00F0019921EA00000190E0
:100B90000598C0680499490088400199084301906C
:100BA0000198069988600698406801900498012190
:100BB00001FA00F0019921EA0000019005984068CF
:100BC000C0F30010049988400199084301900198EE
:100BD00006994860FFE70698C068019004984000B5
:100BE000032101FA00F0019921EA00000190059823
:100BF0008068049949008840019908430190019850
:100C00000699C86005984068022805D0FFE7059856
:100C10004068122826D1FFE7069804996FF0030276
:100C200002EA51010844006A0190049800F00700AC
:100C300080000F2101FA00F0019921EA00000190E3
:100C400005980069049901F007018900884001991D
:100C50000843019001980699049B02EA530211444B
:100C60000862FFE70698006801900498400003219D
:100C700001FA00F0019921EA00000190059840680E
:100C800000F003000499490088400199084301904D
:100C900001980699086005984068C000002840F156
:100CA000DD80FFE7FFE70020009043F64400C4F238
:100CB0000200016841F480410160006800F4804056
:100CC00000900098FFE7049820F0030043F6080125
:100CD000C4F2010140580190049800F00300800024
:100CE0000F2101FA00F0019921EA00000190069815
:100CF0000021C4F20201884202D1FFE700202AE06D
:100D0000069840F20041C4F20201884202D1FFE796
:100D100001201FE0069840F60001C4F2020188425B
:100D200002D1FFE7022014E0069840F60041C4F229
:100D30000201884202D1FFE7032009E0069941F24F
:100D40000002C4F202020720914208BF0420FFE71C
:100D5000FFE7FFE7FFE7C0B2049901F00301890054
:100D600088400199084301900198049921F00301FA
:100D700043F60802C4F20102885043F60040C4F270
:100D80000100006801900298019921EA0000019099
:100D900005984068C003002805D5FFE7029801992F
:100DA00008430190FFE7019843F60041C4F20101B6
:100DB000086043F60440C4F2010000680190029804
:100DC000019921EA000001900598406880030028FD
:100DD00005D5FFE70298019908430190FFE70198C4
:100DE00043F60441C4F20101086043F60840C4F22E
:100DF0000100006801900298019921EA0000019029
:100E000005984068C002002805D5FFE702980199BF
:100E100008430190FFE7019843F60841C4F201013D
:100E2000086043F60C40C4F201000068019002988B
:100E3000019921EA0000019005984068800200288D
:100E400005D5FFE70298019908430190FFE7019853
:100E500043F60C41C4F201010860FFE7FFE7FFE73A
:100E60000498013004905EE607B0704782B040F607
:100E70000000C4F2020001904FF40050ADF80200EF
:100E800001984069BDF802100840884206D1FFE78A
:100E9000BDF8020000040199886104E0BDF8020079
:100EA00001998861FFE702B07047000082B040F608
:100EB0000000C4F2020001904FF40050ADF80200AF
:100EC00000208DF801009DF8010028B1FFE7BDF872
:100ED00002000199886105E0BDF802000004019953
:100EE0008861FFE702B0704740F6F020C2F20000D0
:100EF0000068704747F61020C1F6FF700068704721
:100F000047F61420C1F6FF700068704747F61820B6
:100F1000C1F6FF700068704781B0009001B0704763
:100F200082B001908DF80310ADF8002002B0704738
:100F300080B586B005900020039005980068406851
:100F400002900598C06A0190059890F83E008DF8CF
:100F50000300059890F83D008DF802009DF803000D
:100F6000102806D0FFE79DF80300402840F0ED80F0
:100F7000FFE705980068806903900598006840695C
:100F800004900498C00788B9FFE701990120B1F5E2
:100F90002A0F07D0FFE7019800F1AC40B0FA80F0CB
:100FA0004009FFE7C00708B1FFE791E10498C007D7
:100FB00080B1FFE79DF8090000F002000021B1EBCD
:100FC000500F07D0FFE7059803F094F8059803F059
:100FD0007DFEB9E09DF8100000F008000021B1EBA3
:100FE000D00F0DD0FFE79DF8090000F002000021AE
:100FF000B1EB500F04D0FFE7059803F0A3FCA2E08B
:101000009DF8100000F002000021B1EB500F0DD050
:10101000FFE79DF8090000F002000021B1EB500F3E
:1010200004D0FFE7059803F0B1FC8BE09DF80C00BD
:1010300000F004000021B1EB900F40D0FFE70598CD
:101040000068406800F40060B0F5006F36D0FFE73C
:101050009DF810000021B1EBD01F16D0FFE79DF8DE
:10106000090000F004000021B1EB900F0DD0FFE764
:101070009DF8100000F004000021B1EB900F04D1A6
:10108000FFE7059803F0BEFB17E09DF8100000F0A5
:1010900004000021B1EB900F0DD0FFE79DF809008F
:1010A00000F002000021B1EB500F04D0FFE70598DB
:1010B00003F02EFB00E0FFE7FFE7FFE741E00598C4
:1010C0000068406800F40060B0F5006F38D0FFE7BA
:1010D0009DF8100000F040000021B1EB901F16D0E9
:1010E000FFE79DF8090000F004000021B1EB900F2C
:1010F0000DD0FFE79DF8100000F004000021B1EBD7
:10110000900F04D1FFE7059803F08CFA17E09DF8E3
:10111000100000F004000021B1EB900F0DD0FFE7AC
:101120009DF8090000F002000021B1EB500F04D03F
:10113000FFE7059803F0A6F900E0FFE7FFE7FFE708
:10114000FFE7FFE7FFE7FFE7C2E00598006C28B183
:10115000FFE7059800684069049008E0059800687A
:10116000806903900598006840690490FFE79DF846
:10117000100000F002000021B1EB500F17D0FFE784
:101180009DF8090000F002000021B1EB500F0ED0D5
:10119000FFE70598006C28B1FFE7059800688069B3
:1011A0000390FFE70598039903F006FF8FE09DF891
:1011B000100000F010000021B1EB101F0DD0FFE770
:1011C0009DF8090000F002000021B1EB500F04D09F
:1011D000FFE7059803F040FF78E09DF80200212822
:1011E00005D0FFE79DF80200292836D1FFE79DF8DA
:1011F00010000021B1EBD01F16D0FFE79DF80900C9
:1012000000F004000021B1EB900F0DD0FFE79DF836
:10121000100000F004000021B1EB900F04D1FFE7B3
:10122000059803F093FE17E09DF8100000F004000D
:101230000021B1EB900F0DD0FFE79DF8090000F001
:1012400002000021B1EB500F04D0FFE7059803F036
:1012500067FE00E0FFE7FFE737E09DF8100000F0D1
:1012600040000021B1EB901F16D0FFE79DF8090068
:1012700000F004000021B1EB900F0DD0FFE79DF8C6
:10128000100000F004000021B1EB900F04D1FFE743
:10129000059803F00DFE17E09DF8100000F0040023
:1012A0000021B1EB900F0DD0FFE79DF8090000F091
:1012B00002000021B1EB500F04D0FFE7059803F0C6
:1012C000DFFD00E0FFE7FFE7FFE7FFE7FFE7FFE7FE
:1012D00006B080BD81B0009001B0704780B584B089
:1012E00040F2F840C2F200000290029820B9FFE7F5
:1012F00001208DF80F002AE1029890F83D0040B9D6
:10130000FFE70298002180F83C10029800F038F9BD
:10131000FFE70298242180F83D10029800680168D8
:1013200021F00101016002980068016841F4004168
:10133000016002980068016821F40041016001F039
:1013400095FD00900298406848F2A061C0F201014A
:1013500088420AD8FFE7009948F28042C0F21E0294
:101360000020914238BF012009E0009940F60012A8
:10137000C0F23D020020914238BF0120FFE7012862
:1013800004D1FFE701208DF80F00E0E000984DF652
:101390008361C4F21B31A0FB0101880C019002980B
:1013A0000068406820F03F000199084302990968ED
:1013B000486002980068006A20F03F00029949687E
:1013C00048F2A062C0F20102914203D8FFE70199FE
:1013D00001310DE001994FF49672514344F6D35216
:1013E000C1F26202A1FB0212012101EB9211FFE79F
:1013F000084302990968086202980068C0694CF6BF
:10140000FF7188430299496848F2A062C0F2010264
:1014100091421BD8FFE700990139029A52685200A5
:10142000B1FBF2F101316FF31F31032902D8FFE75D
:1014300004210AE000990139029A52685200B1FB76
:10144000F2F101316FF31F31FFE742E00299896841
:1014500061B9FFE700990139029A526802EB420232
:10146000B1FBF2F101316FF31F310CE0009901394A
:10147000029A526819235A43B1FBF2F10131042256
:1014800062F31F31FFE7090511B9FFE701211FE0F2
:101490000299896861B9FFE700990139029A526897
:1014A00002EB4202B1FBF2F101316FF31F310CE0AC
:1014B00000990139029A526819235A43B1FBF2F19B
:1014C0000131042262F31F31FFE741F40041FFE7DD
:1014D000FFE7084302990968C8610298006800683C
:1014E00020F0C00002990A68CB69096A19430843D1
:1014F000106002980068806848F2FF3188430299C2
:101500000A68CB680969194308439060029800682B
:10151000C06820F0FF0002990A684B698969194385
:101520000843D06002980068016841F00101016041
:101530000298002101640298202280F83D20029840
:101540000163029880F83E108DF80F10FFE79DF8B8
:101550000F0004B080BD000081B0009001B0704762
:1015600081B0009001B0704781B0009001B0704729
:1015700081B0009001B0704781B0009001B0704719
:1015800080B588B0079000200690059004900390E5
:1015900002900798006845F20041C4F200018842B9
:1015A00040F08C80FFE7FFE70020019043F6300019
:1015B000C4F20200016841F002010160006800F01D
:1015C000020001900198FFE74FF440700290122052
:1015D000039001200490032005900420069040F21F
:1015E0000040C4F2020002A9FFF794FAFFE70020CE
:1015F000009043F64000C4F20200016841F400117B
:101600000160006800F4001000900098FFE740F2CD
:10161000B820C2F2000046F21001C4F202010160DB
:101620004FF00071416000218160C1604FF4806221
:10163000026141618161C16101624162FFF712F99A
:1016400018B1FFE7AFF30080FFE7FFE7079840F22C
:10165000B821C2F20001816307988863FFE740F276
:101660001830C2F2000046F22801C4F20201016003
:101670000021416040228260C1604FF480620261BB
:1016800041618161C16101624162FFF7EBF818B10C
:10169000FFE7AFF30080FFE7FFE7079840F218315C
:1016A000C2F20001416307988863FFE71F20002111
:1016B00000F092F81F2000F085F8FFE708B080BD29
:1016C00081B0009001B0704781B0009001B07047C8
:1016D00040F6F020C2F2000001680131016070475D
:1016E00080B543F60040C4F20200016841F4007185
:1016F0000160016841F480610160016841F480711A
:10170000016000F081F8002000F004F800F034F8E7
:1017100080BD000080B582B0009040F20000C2F2AF
:101720000000006844F6D351C1F26201A0FB010140
:10173000880901F095FF20B1FFE701208DF807002F
:1017400017E000980F280CD8FFE700994FF0FF3002
:1017500000F042F8009840F2D801C2F2000108609F
:1017600003E001208DF8070003E000208DF807005A
:10177000FFE702B080BD000082B0FFE700200190CB
:1017800043F64400C4F20200016841F48041016064
:10179000006800F4804001900198FFE7FFE7002017
:1017A000009043F64000C4F20200016841F080510D
:1017B0000160006800F0805000900098FFE702B0E0
:1017C0007047000080B582B08DF807009DF90700D2
:1017D00005F038FE02B080BD10B584B08DF80F0062
:1017E000029100200190009005F046FE00909DF9C6
:1017F0000F4000980299019A03F0EAFE0146204644
:1018000005F042FE04B010BD80B582B00320019007
:10181000019805F05BFE02B080BD000082B001902F
:1018200000208DF8030002B07047000082B00190E4
:101830004020ADF80200BDF8020001990968486235
:1018400002B0704784B003908DF80B10ADF80820FB
:1018500003980068406A00909DF80B0048B9FFE7C4
:10186000BDF80800009941EA0040039909688862C0
:1018700033E003980068806A009901EB1040009003
:1018800000208DF80700FFE79DF807009DF80B107A
:101890000139884213D2FFE7039800689DF80710CA
:1018A00000EB8100D0F80401009901EB104000909A
:1018B000FFE79DF8070001308DF80700E4E7BDF869
:1018C0000800009941EA0040039909689DF80B203F
:1018D00001EB8201C1F80001FFE704B0704700008E
:1018E00081B0009001B0704710B582B001908DF8C2
:1018F00003109DF8030000EB400040F2F001C2F23B
:10190000000101EB800090F8C000002800F0E080AA
:10191000FFE79DF8030000EB400040F2F001C2F247
:10192000000101EB8000D0F8C800B0F1FF3F14DCEB
:10193000FFE70198002400210022002300F0DEFAD6
:101940009DF8030000EB400040F2F001C2F20001FC
:1019500001EB8000C0F8C840B9E09DF8030000EB3F
:10196000400040F2F001C2F2000101EB8000D0F82B
:10197000C80078BBFFE79DF8030000EB400040F291
:10198000F001C2F2000101EB8000002180F8C010DC
:101990009DF8030038B9FFE70198002100220023D9
:1019A00000F0FCF9FFE79DF8030090B1FFE740F677
:1019B000E420C2F200000068C06850B1FFE740F6C2
:1019C000E420C2F200000068C1689DF80300884767
:1019D000FFE77BE001989DF80310C1EBC10100EB2C
:1019E0008100406CADF800009DF8030000EB400062
:1019F00040F2F001C2F2000101EB8000D0F8C80013
:101A0000BDF80010884246DDFFE701989DF80310FD
:101A100001EB410240F2F003C2F2000303F1C00403
:101A200004EB82025268BDF8003000F067FABDF89E
:101A300000009DF8031001EB410104EB81014A68AD
:101A400010444860BDF800009DF8031001EB41010F
:101A500004EB81018A68101A88609DF8030000EB8E
:101A6000400004EB80008068A0B9FFE79DF8030008
:101A700080B9FFE79DF8030000EB400040F2F00161
:101A8000C2F2000101EB8000D0F8C8100139C0F8A3
:101A9000C810FFE719E001989DF8031001EB41021F
:101AA00040F2F003C2F2000303F1C00404EB82032E
:101AB0005A689B6800F022FA9DF8030000EB400092
:101AC00004EB800000218160FFE7FFE7FFE716E0FD
:101AD0009DF8030090B1FFE740F6E420C2F2000059
:101AE0000068C06850B1FFE740F6E420C2F2000091
:101AF0000068C1689DF803008847FFE7FFE702B070
:101B000010BD000010B582B001908DF803109DF853
:101B1000030000EB400040F2F001C2F2000111F8B6
:101B20002000002800F09780FFE79DF8030000EBFD
:101B3000400040F2F001C2F2000101EB8000806839
:101B400000282DDCFFE79DF8030000EB400040F289
:101B5000F001C2F20001002201F820209DF80300EC
:101B600038B9FFE7019800210022002300F0C6F9F0
:101B7000FFE79DF8030090B1FFE740F6E420C2F2D2
:101B800000000068006950B1FFE740F6E420C2F2AF
:101B90000000006801699DF803008847FFE759E0ED
:101BA00001989DF80310C1EBC10100EB8100406C6E
:101BB000ADF800009DF8030000EB400040F2F0019A
:101BC000C2F2000101EB80008068BDF8001088427D
:101BD00027DDFFE701989DF8031001EB410240F279
:101BE000F004C2F2000404EB82025268BDF8003037
:101BF00000F0D4F8BDF800009DF8031001EB41019E
:101C000004EB81014A6810444860BDF800009DF86B
:101C1000031001EB410104EB81018A68101A88600E
:101C200017E001989DF8031001EB410240F2F00427
:101C3000C2F2000404EB82035A689B6800F0AEF81D
:101C40009DF8030000EB400004EB80000021816060
:101C5000FFE7FFE716E09DF8030090B1FFE740F6CD
:101C6000E420C2F200000068006950B1FFE740F6CE
:101C7000E420C2F20000006801699DF80300884773
:101C8000FFE7FFE702B010BD81B0009001B07047E0
:101C900082B001908DF8031001989DF8031001F0B7
:101CA0000F01C1EBC10100EB8100D0F8140202B0BA
:101CB0007047000080B586B004908DF80F1040206A
:101CC000ADF80C008DF80B2000208DF80A009DF86F
:101CD0000F00000600280FD5FFE704989DF80F10AD
:101CE00001F00F01C1EBC10100EB81003C3001901C
:101CF0000198012141700FE004989DF80F1001F048
:101D00000F01C1EBC10100EB810000F5FE700190F5
:101D1000019800214170FFE79DF80F0000F00F00CF
:101D200001990870BDF80C00019988609DF80B00BE
:101D30000199C8700198407820B1FFE701980178B7
:101D4000C180FFE79DF80B00022804D1FFE701984E
:101D500000210171FFE7FFE7049890F8BC03012818
:101D600004D1FFE702208DF8170015E00498012147
:101D700080F8BC13FFE7FFE704980068019904F0BE
:101D80009FFAFFE70498002180F8BC13FFE79DF855
:101D90000A008DF81700FFE706B080BD80B586B059
:101DA00005908DF813100392029305989DF8131077
:101DB00001F00F01C1EBC10100EB810000F5FE70E5
:101DC000019003980199C8600298019948610198AF
:101DD00000218161019841709DF8130000F00F000F
:101DE0000199087005980069012804D1FFE703985C
:101DF00001990861FFE79DF81300000738B9FFE774
:101E0000059A10680199127C04F046FD06E0059AD7
:101E100010680199127C04F0D9FEFFE706B080BD7E
:101E200080B584B002908DF807109DF8070000F08F
:101E30000F0002994968884204D9FFE701208DF814
:101E40000F0058E09DF80700000600280FD5FFE7B7
:101E500002989DF8071001F00F01C1EBC10100EBE2
:101E600081003C3000900098012141700DE0029803
:101E70009DF80710C1EBC10100EB810000F5FE7079
:101E80000090009800214170FFE7009801218170C7
:101E90009DF8070000F00F0000990870FFE7029816
:101EA00090F8BC03012804D1FFE702208DF80F0051
:101EB00021E00298012180F8BC13FFE7FFE70298B8
:101EC0000068009904F02EFE9DF80700000740B955
:101ED000FFE7029A1068117C02F5717204F0D4FDDC
:101EE000FFE7FFE70298002180F8BC13FFE700201E
:101EF0008DF80F00FFE704B080BD000080B586B00C
:101F000005908DF813100392029305989DF8131015
:101F100001F00F01C1EBC10100EB81003C300190E9
:101F200003980199C86002980199486101980021BD
:101F300081610198012141709DF8130000F00F00AC
:101F40000199087005980069012804D1FFE70398FA
:101F500001990861FFE79DF81300000738B9FFE712
:101F6000059A10680199127C04F096FC06E0059A27
:101F700010680199127C04F029FEFFE706B080BDCD
:101F800010B58AB040F24C50C2F200000990099896
:101F900000680890089807900998006805F046F8CE
:101FA000002840F00883FFE70998006805F0AAF8C8
:101FB00008B9FFE7FFE20998006805F0A3F8800779
:101FC000002807D5FFE709980068416901F0020180
:101FD0004161FFE70998006805F094F800030028C4
:101FE00078D5FFE7002003900998006805F038F8DD
:101FF0000590FFE7059800286BD0FFE79DF81400D7
:10200000C00700285ED0FFE7099800689DF80C1013
:1020100005F060F804900498C00760B1FFE70798E6
:10202000039900EB41100121C0F8081B099803999E
:1020300003F064FBFFE70498000700280CD5FFE7D6
:102040000998039903F0FAFA0798039900EB4110F5
:102050000821C0F8081BFFE70498C006002808D52F
:10206000FFE70798039900EB41101021C0F8081B07
:10207000FFE704988006002815D5FFE70998006956
:10208000012808D1FFE70999086801F5717201215B
:1020900004F0FAFCFFE70798039900EB41102021B8
:1020A000C0F8081BFFE704988004002809D5FFE763
:1020B0000798039900EB41104FF40051C0F8081B3A
:1020C000FFE7FFE70398013003900598400805906B
:1020D00090E7FFE70998006805F014F8400300282E
:1020E00040F1AD80FFE70998006804F0A7FF059074
:1020F00000200390FFE70598002800F09F80FFE78D
:102100009DF81400C007002800F09180FFE70998AF
:1021100000689DF80C1004F0B5FF04900498C00707
:10212000002845D0FFE7039800F00F00012101FAD5
:1021300000F002900298079AD2F8343823EA00009F
:10214000C2F834080798039A00EB4210C0F8081947
:102150000998006901280BD1FFE709980399C1EBA1
:10216000C10100EB8100416C826C11448164FFE786
:1021700009989DF80C10FFF7B7FB09980069012832
:1021800015D1FFE7039888B9FFE709980399C1EBD8
:10219000C10100EB8100006D40B9FFE709990868B3
:1021A00001F57172012104F06FFCFFE7FFE7FFE723
:1021B00004980007002808D5FFE70798039900EB6B
:1021C00041100821C0F80819FFE70498C00600284C
:1021D00008D5FFE70798039900EB41101021C0F8DC
:1021E0000819FFE704984006002808D5FFE707987C
:1021F000039900EB41104021C0F80819FFE704984B
:102200008007002808D5FFE70798039900EB4110E5
:102210000221C0F80819FFE704980006002805D538
:10222000FFE70998039903F051FBFFE7FFE70398E5
:10223000013003900598400805905CE7FFE7099896
:10224000006804F05FFFC00F00B3FFE70798D0F805
:10225000041821F00101C0F80418099890F8F4035B
:10226000012808D1FFE70998002180F8F4130998A4
:10227000FFF7D4FA03E0099800F08EFBFFE7099816
:102280000068416901F000414161FFE70998006879
:1022900004F038FF0005002811D5FFE70798D0F8B3
:1022A0000808C00720B1FFE7099800F09DFCFFE790
:1022B00009980068416901F400614161FFE70998EC
:1022C000006804F01FFFC00400287AD5FFE70798D4
:1022D000D0F8041821F00101C0F80418099800682A
:1022E00004F054FE00200690FFE70698099949681B
:1022F000884227D2FFE70798069900EB41104FF676
:102300007F31C0F808190798069A00EB4210D0F800
:10231000002922F40012C0F800290798069A00EB61
:102320004210C0F8081B0798069900EB4110D0F83E
:10233000001B21F40011C0F8001BFFE706980130D4
:102340000690D2E70798D0F81C1841F00111C0F8A8
:102350001C180998006B78B1FFE70798D0F884182B
:1023600041F00B01C0F884180798D0F8441841F0E8
:102370000B01C0F844180FE00798D0F8141842F287
:102380002B021143C0F814180798D0F8101841F028
:102390000B01C0F81018FFE70798D0F8001821F4D7
:1023A000FE61C0F80018099A1068117C02F571727C
:1023B00004F06AFB09980068416901F480514161A9
:1023C000FFE70998006804F09DFE800400281ED5F0
:1023D000FFE70998006803F0E3FF0998006804F03C
:1023E000FFFD0999C8600998046800F039FD0146AD
:1023F0000998027B204604F011FF099800F08EFA3C
:1024000009980068416901F400514161FFE70998AA
:10241000006804F077FEC00600285FD5FFE7099842
:102420000068816921F0100181610898006A0190BB
:102430000998019901F00F01C1EBC10100EB810086
:1024400000F5FE700090019800F4F0100221B1EB4D
:10245000504F21D1FFE7BDF8040047F6F071084264
:1024600019D0FFE708980099C968019AC2F30A12C7
:1024700004F056FE019847F6F0710840009AD368C0
:1024800003EB1010D0600198084000998A6902EBB4
:1024900010108861FFE71AE0019800F4F01006219F
:1024A000B1EB504F11D1FFE70898099901F571710F
:1024B000082204F035FE019847F6F07108400099B3
:1024C0008A6902EB1010886100E0FFE7FFE70998D6
:1024D0000068816941F010018161FFE70998006897
:1024E00004F010FE000700280AD5FFE7099800F065
:1024F00057FA09980068416901F008014161FFE756
:102500000998006804F0FEFDC00200280ED5FFE720
:102510000020039009989DF80C1000F04FF80998DE
:102520000068416901F480114161FFE70998006882
:1025300004F0E8FD800200280ED5FFE7002003909C
:1025400009989DF80C1000F03FF80998006841695F
:1025500001F400114161FFE70998006804F0D2FD21
:10256000400000280AD5FFE70998FFF7B9F9099854
:102570000068416901F080414161FFE70998006806
:1025800004F0C0FD4007002814D5FFE70998006853
:102590004068019001984007002804D5FFE709989A
:1025A000FFF772FBFFE70198099909684A68104331
:1025B0004860FFE7FFE70AB010BD000082B001905D
:1025C0008DF8031002B0704782B001908DF80310AF
:1025D00002B070472DE9F04F8FB040F24C50C2F27C
:1025E00000000D900D9820B9FFE701208DF83B0009
:1025F00038E10D9800680C900D9890F8BD0340B933
:10260000FFE70D98002180F8BC130D9800F030F919
:10261000FFE70D98032180F8BD130C98C06BC0052F
:10262000002804D4FFE70D9800210161FFE70D9811
:10263000006804F027F9DDF834C0DCF80000DCF8AD
:102640000410DCF80820DCF80C30DCF810E0DCF8D2
:102650001480DCF81890DCF81CA0DCF820B0DCF862
:102660002440DCF82850DCF82C60DCF83070DCF812
:1026700034C0CDF824C00897079606950594CDF888
:1026800010B0CDF80CA0CDF80890CDF80480CDF8AE
:1026900000E003F0ABFE40B1FFE70D98022180F8A7
:1026A000BD1301208DF83B00DCE00D98006804F0BC
:1026B0005DFD00208DF82F00FFE79DF82F000D999C
:1026C0004968884245D2FFE70D989DF82F10C1EB6D
:1026D000C10100EB8100012180F83D109DF82F0021
:1026E0000D99C0EBC00201EB820181F83C009DF81E
:1026F0002F000D99C0EBC00201EB8201A1F842004E
:102700000D989DF82F10C1EBC10100EB8100002155
:1027100080F83F100D989DF82F20C2EBC20200EB0D
:10272000820041640D989DF82F20C2EBC20200EB9D
:10273000820081640D989DF82F20C2EBC20200EB4D
:1027400082000165FFE79DF82F0001308DF82F0012
:10275000B3E700208DF82F00FFE79DF82F000D99BB
:10276000496888423ED2FFE70D989DF82F10C1EBD3
:10277000C10100EB8100002180F8FD119DF82F00C0
:102780000D9AC0EBC00302EB830282F8FC010D98A6
:102790009DF82F20C2EBC20200EB820080F8FF11EF
:1027A0000D989DF82F20C2EBC20200EB8200C0F80A
:1027B00004120D989DF82F20C2EBC20200EB82009C
:1027C000C0F808120D989DF82F20C2EBC20200EB52
:1027D0008200C0F81012FFE79DF82F0001308DF83D
:1027E0002F00BAE70D9F38687968BA68FB68D7F898
:1027F00010C0D7F814E0D7F81880D7F81C90D7F895
:1028000020A0D7F824B0BE6AFD6A3C6B7F6B0997A5
:10281000089407950696CDF814B0CDF810A0CDF821
:102820000C90CDF80880CDF804E0CDF800C003F09E
:10283000BDFE40B1FFE70D98022180F8BD130120D5
:102840008DF83B000EE00D98002480F838400D987C
:10285000012180F8BD130D98006803F095FE8DF8F6
:102860003B40FFE79DF83B000FB0BDE8F08F000054
:1028700080B588B0079000200690059004900390E2
:10288000029007980068B0F1A04F45D1FFE7FFE73D
:102890000020019043F63000C4F20200016841F0CC
:1028A00001010160006800F0010001900198FFE75C
:1028B0004FF4C050029002200390002004900320A7
:1028C00005900A2006900020C4F2020002A9FEF73B
:1028D00021F9FFE743F63400C4F20200016841F039
:1028E00080010160FFE70020009043F64400C4F23D
:1028F0000200016841F480410160006800F48040FA
:1029000000900098FFE7FFE743200121FEF764FFF6
:102910004320FEF757FFFFE708B080BD80B582B0C7
:10292000019040F65420C2F200000078012807D13F
:10293000FFE740F65420C2F200000021017028E0B9
:1029400040F27020C2F200000121017001980021C4
:102950000022FFF7AFF9019880210022FFF7AAF9C2
:10296000019800212022FEF76DFF0198FEF75EFF1F
:1029700040F6E420C2F200000068806840B1FFE742
:1029800040F6E420C2F20000006880688047FFE75C
:10299000FFE702B080BD000081B0009001B0704739
:1029A00081B0009001B0704780B584B002908DF87E
:1029B0000710FFE7029890F8BC03012804D1FFE755
:1029C00002208DF80F001AE00298012180F8BC1354
:1029D000FFE7FFE79DF80700029981F838000298A9
:1029E00000689DF8071004F0EFFBFFE70298002154
:1029F00080F8BC13FFE700208DF80F00FFE704B05C
:102A000080BD000080B588B00790079800F5717010
:102A1000069006980078C006002840F08C80FFE7FA
:102A20000698007840098007002840F08480FFE77E
:102A300006984078092800F27480DFE800F00572FB
:102A40007272722A3672636B40F6E420C2F20000A2
:102A50000068036802A8022101229847029803999E
:102A6000059104900498C079810940F2EC00C2F20B
:102A70000000028861F3000202800499C979090903
:102A80000288490861F341020280022102F0E4FF5A
:102A900050E0079806998978FFF786FF079800218C
:102AA00000220023FFF72AFA44E040F6E420C2F2B5
:102AB00000000068036806988278C17868469847E5
:102AC0000098019905910490049888B1FFE7049853
:102AD0000699C988BDF81420914203DDFFE7BDF8CF
:102AE000141002E00699C988FFE702F0B5FF08E07C
:102AF00007980021FFF794F907988021FFF790F9D4
:102B0000FFE717E048F2C440C0F60000012102F0E0
:102B1000A3FF0FE00798002100220023FFF7EEF942
:102B200008E007980021FFF77BF907988021FFF75D
:102B300077F9FFE71AE040F6E420C2F200000068EF
:102B4000406848B1FFE740F6E420C2F200000068A8
:102B500041680698884708E007980021FFF760F968
:102B600007988021FFF75CF9FFE7FFE708B080BD19
:102B700080B584B00290029800680190FFE7029847
:102B800090F8BC03012804D1FFE702208DF80F0064
:102B900027E00298012180F8BC13FFE7FFE70298C5
:102BA000806A01280BD1FFE702988069012806D0CE
:102BB000FFE70198816B41F480318163FFE7029860
:102BC000006803F0CFFC0298006804F0AFF9FFE75B
:102BD0000298002180F8BC13FFE700208DF80F0059
:102BE000FFE704B080BD000081B0009001B07047E5
:102BF00080B584B0029003200190029820B9FFE7CD
:102C000001208DF80F0021E1019843F60041C4F244
:102C10000201096801F00F01884212D9FFE701980B
:102C200043F60041C4F202010870086800F00F008A
:102C30000199884204D0FFE701208DF80F0005E1DB
:102C4000FFE702980068800700282AD5FFE702986E
:102C500000684007002809D5FFE743F60800C4F2E2
:102C60000200016841F4E0510160FFE7029800684A
:102C70000007002809D5FFE743F60800C4F2020068
:102C8000016841F460410160FFE743F60800C4F2C7
:102C90000200016821F0F001029A9268114301607C
:102CA000FFE702980068C00700286ED0FFE702988F
:102CB0004068012811D1FFE743F60000C4F202008A
:102CC000006800F400300021B1EB504F04D1FFE761
:102CD00001208DF80F00B9E02CE00298406802282E
:102CE00005D0FFE702984068032811D1FFE743F6BB
:102CF0000000C4F20200006800F000700021B1EB97
:102D0000506F04D1FFE701208DF80F009EE010E026
:102D100043F60000C4F20200006800F00200002147
:102D2000B1EB500F04D1FFE701208DF80F008DE0CB
:102D3000FFE7FFE743F60800C4F20200016821F054
:102D40000301029A526811430160FEF7CDF800902A
:102D5000FFE743F60800C4F20200006800F00C0030
:102D600002994968B0EB810F0ED0FFE7FEF7BCF87F
:102D70000099401A41F28931884204D3FFE70320C9
:102D80008DF80F0062E0E4E7FFE7019843F60041A9
:102D9000C4F20201096801F00F01884212D2FFE774
:102DA000019843F60041C4F202010870086800F07F
:102DB0000F000199884204D0FFE701208DF80F0031
:102DC00044E0FFE702980068400700280CD5FFE7C1
:102DD00043F60800C4F20200016821F4E051029AAF
:102DE000D26811430160FFE70298006800070028DD
:102DF0000DD5FFE743F60800C4F20200016821F494
:102E00006041029A126941EAC2010160FFE700F0E5
:102E100051F843F60801C4F202010968C9B2090970
:102E200048F2C542C0F60002515CC84040F20001C1
:102E3000C2F20001086040F2D800C2F2000000684F
:102E4000FEF768FC00208DF80F00FFE79DF80F00EB
:102E500004B080BD4C20C4F24720012101607047BE
:102E600040F20000C2F200000068704780B5FFF732
:102E7000F7FF43F60801C4F202010968C1F3822199
:102E800048F2DD42C0F60002515CC84080BD00003F
:102E900080B5FFF7E5FF43F60801C4F202010968B7
:102EA00089B2490B48F2DD42C0F60002515CC840CD
:102EB00080BD000080B584B0002003900290019096
:102EC000009043F60800C4F20200006800F00C0015
:102ED00030B1FFE7042809D0FFE708280CD04FE005
:102EE00042F20040C0F2F40000904FE041F60030A2
:102EF000C0F2B700009049E043F60400C4F20200BB
:102F0000016801F03F01039100684002002813D5D9
:102F1000FFE743F60400C4F202000068C0F3881023
:102F200041F60031C0F2B701A0FB0101039A002372
:102F3000FDF760F9029012E043F60400C4F20200CB
:102F40000068C0F3881042F20041C0F2F401A0FB17
:102F50000101039A0023FDF74DF90290FFE743F6C4
:102F60000400C4F20200006800F44030022101EBCA
:102F7000D030019002980199B0FBF1F0009005E08B
:102F800042F20040C0F2F4000090FFE7009804B065
:102F900080BD000080B543F60C00C4F2020000685A
:102FA0000006002809D5FFE7AFF3008043F60E00C6
:102FB000C4F2020080210170FFE780BD80B586B0B9
:102FC0000490049820B9FFE701208DF8170043E32F
:102FD00004980068C007002800F0A580FFE743F6CA
:102FE0000800C4F20200006800F00C00042813D0AE
:102FF000FFE743F60800C4F20200006800F00C008E
:1030000008281ED1FFE743F60400C4F2020000685E
:103010004002002815D5FFE743F60000C4F2020085
:10302000006800F400300021B1EB504F08D0FFE7FA
:103030000498406820B9FFE701208DF817000BE3E2
:1030400070E0FFE704984068B0F5803F09D1FFE7E2
:1030500043F60000C4F20200016841F480310160CF
:1030600020E004984068B0F5A02F0DD1FFE743F6AB
:103070000000C4F20200016841F48021016001688F
:1030800041F4803101600CE043F60000C4F202001C
:10309000016821F480310160016821F48021016020
:1030A000FFE7FFE7FFE704984068E8B1FFE7FDF7B7
:1030B0001BFF0390FFE743F60000C4F20200006824
:1030C00000F400300021B1EB504F0CD1FFE7FDF7C9
:1030D0000BFF0399401A652804D3FFE703208DF8FE
:1030E0001700B9E2E7E71CE0FDF7FEFE0390FFE7FB
:1030F00043F60000C4F20200006800F40030002132
:10310000B1EB504F0CD0FFE7FDF7EEFE0399401AEC
:10311000652804D3FFE703208DF817009CE2E7E75A
:10312000FFE7FFE7FFE7049800688007002840F109
:103130009680FFE743F60800C4F20200006810F032
:103140000C0F13D0FFE743F60800C4F2020000683A
:1031500000F00C0008282CD1FFE743F60400C4F26D
:10316000020000684002002823D4FFE743F6000075
:10317000C4F20200006800F002000021B1EB500F21
:1031800009D0FFE70498C068012804D0FFE70120B8
:103190008DF8170060E243F60000C4F202000168F7
:1031A00021F0F801049A126941EAC2010160FFE7C7
:1031B00054E00498C06870B3FFE70020C4F24720D1
:1031C00001210160FDF790FE0390FFE743F6000048
:1031D000C4F20200006800F002000021B1EB500FC1
:1031E0000CD1FFE7FDF780FE0399401A032804D3B2
:1031F000FFE703208DF817002EE2E7E743F6000013
:10320000C4F20200016821F0F801049A126941EA4F
:10321000C201016021E00020C4F2472000210160CA
:10322000FDF762FE0390FFE743F60000C4F20200E0
:10323000006800F002000021B1EB500F0CD0FFE756
:10324000FDF752FE0399401A032804D3FFE7032039
:103250008DF8170000E2E7E7FFE7FFE7FFE70498D4
:103260000068000700284BD5FFE70498406918B3B1
:10327000FFE740F68060C4F2472001210160FDF7BE
:1032800033FE0390FFE743F67400C4F202000068C7
:1032900000F002000021B1EB500F0CD1FFE7FDF769
:1032A00023FE0399401A032804D3FFE703208DF877
:1032B0001700D1E1E7E722E040F68060C4F2472042
:1032C00000210160FDF710FE0390FFE743F6740054
:1032D000C4F20200006800F002000021B1EB500FC0
:1032E0000CD0FFE7FDF700FE0399401A032804D332
:1032F000FFE703208DF81700AEE1E7E7FFE7FFE700
:10330000049800684007002840F1CE80FFE70020C5
:103310008DF8070043F64000C4F202000068C000C8
:10332000002815D4FFE7FFE70020009043F6400097
:10333000C4F20200016841F080510160006800F0B1
:10334000805000900098FFE701208DF80700FFE70C
:1033500047F20000C4F200000068C005002822D433
:10336000FFE747F20000C4F20000016841F48071F9
:103370000160FDF7B9FD0390FFE747F20000C4F2DA
:1033800000000068C00500280CD4FFE7FDF7ACFD85
:103390000399401A032804D3FFE703208DF8170090
:1033A0005AE1EAE7FFE7FFE704988068012809D1BE
:1033B000FFE743F67000C4F20200016841F001012A
:1033C00001601FE00498806805280DD1FFE743F6EF
:1033D0007000C4F20200016841F00401016001685C
:1033E00041F0010101600CE043F67000C4F20200FC
:1033F000016821F001010160016821F00401016010
:10340000FFE7FFE7FFE704988068F8B1FFE7FDF703
:103410006BFD0390FFE743F67000C4F20200006802
:1034200000F002000021B1EB500F0ED1FFE7FDF7D5
:103430005BFD0399401A41F28931884204D3FFE7CA
:1034400003208DF8170007E1E5E71EE0FDF74CFDCE
:103450000390FFE743F67000C4F20200006800F03A
:1034600002000021B1EB500F0ED0FFE7FDF73CFD4D
:103470000399401A41F28931884204D3FFE70320BF
:103480008DF81700E8E0E5E7FFE79DF80700012861
:1034900009D1FFE743F64000C4F20200016821F0C1
:1034A00080510160FFE7FFE704988069002800F081
:1034B000CF80FFE743F60800C4F20200006800F086
:1034C0000C00082800F08580FFE704988069022836
:1034D0005CD1FFE76020C4F2472000210160FDF7C6
:1034E00003FD0390FFE743F60000C4F2020000680A
:1034F00000F000700021B1EB506F0CD0FFE7FDF73A
:10350000F3FC0399401A032804D3FFE703208DF846
:103510001700A1E0E7E70498D0F81CC0026A436AEC
:10352000816A42EA0C0242EA8312C9034FF6FF7332
:103530009943A1F580311143C06A41EA006043F626
:103540000401C4F2020108606020C4F24720012196
:103550000160FDF7C9FC0390FFE743F60000C4F2E9
:103560000200006800F000700021B1EB506F0CD138
:10357000FFE7FDF7B9FC0399401A032804D3FFE7DE
:1035800003208DF8170067E0E7E721E06020C4F230
:10359000472000210160FDF7A7FC0390FFE743F6F9
:1035A0000000C4F20200006800F000700021B1EBDE
:1035B000506F0CD0FFE7FDF797FC0399401A0328E2
:1035C00004D3FFE703208DF8170045E0E7E7FFE7A6
:1035D0003DE004988069012804D1FFE701208DF8BF
:1035E000170039E043F60800C4F2020000680290B8
:1035F000029800F480000499C969884221D1FFE74C
:10360000029800F03F000499096A884219D1FFE747
:10361000029847F6C07108400499496A884210D15F
:10362000FFE7029800F440300499896A884208D183
:10363000FFE7029800F070600499C96A884204D0DC
:10364000FFE701208DF8170006E0FFE7FFE7FFE73F
:1036500000208DF81700FFE79DF8170006B080BD29
:1036600080B582B00190019802F05AFA02B080BD94
:1036700081B0009001B0704781B0009001B07047F8
:1036800080B582B00090009820B9FFE701208DF846
:1036900007001DE0009890F83D0040B9FFE7009852
:1036A000002180F83C10009800F016F8FFE7009821
:1036B000022180F83D10009951F8040B02F0DCFA69
:1036C0000098012180F83D1000208DF80700FFE7E9
:1036D0009DF8070002B080BD80B584B003900398C8
:1036E000006844F20041C4F20101884219D1FFE7A9
:1036F000FFE70020029043F64400C4F20200016894
:1037000041F400310160006800F40030029002983A
:10371000FFE719200021FEF75FF81920FEF752F8A5
:1037200022E00398006844F60001C4F201018842D7
:1037300019D1FFE7FFE70020019043F64400C4F2EF
:103740000200016841F480210160006800F48020DB
:1037500001900198FFE71A200021FEF73DF81A209A
:10376000FEF730F8FFE7FFE704B080BD82B040F617
:103770005410C2F20000019001980068C16841F045
:103780000101C16001980068806800F007000090A6
:103790000098062807D0FFE701980068016841F00B
:1037A00001010160FFE702B07047000081B00090A6
:1037B00001B0704780B582B001900198006800693F
:1037C00000F002000021B1EB500F28D0FFE7019874
:1037D0000068C06800F002000021B1EB500F1DD05E
:1037E000FFE7019800686FF0020101610198012173
:1037F0000177019800688069800720B1FFE7019890
:10380000FFF7D4FF06E0019800F012F9019800F0EC
:1038100013F9FFE7019800210177FFE7FFE701981F
:103820000068006900F004000021B1EB900F29D07E
:10383000FFE701980068C06800F004000021B1EBC8
:10384000900F1ED0FFE7019800686FF0040101613E
:1038500001980221017701980068806910F4407F87
:1038600004D0FFE70198FFF7A1FF06E0019800F000
:10387000DFF8019800F0E0F8FFE7019800210177F8
:10388000FFE7FFE701980068006900F008000021E9
:10389000B1EBD00F28D0FFE701980068C06800F0B6
:1038A00008000021B1EBD00F1DD0FFE701980068A0
:1038B0006FF0080101610198042101770198006807
:1038C000C069800720B1FFE70198FFF76FFF06E0AE
:1038D000019800F0ADF8019800F0AEF8FFE701980C
:1038E00000210177FFE7FFE701980068006900F019
:1038F00010000021B1EB101F29D0FFE701980068EC
:10390000C06800F010000021B1EB101F1ED0FFE7CF
:10391000019800686FF0100101610198082101779A
:1039200001980068C06910F4407F04D0FFE7019857
:10393000FFF73CFF06E0019800F07AF8019800F0EC
:103940007BF8FFE7019800210177FFE7FFE7019887
:1039500000680069C00780B1FFE701980068C0688F
:10396000C00748B1FFE7019800686FF001010161ED
:10397000019800F065F8FFE7FFE70198006800692B
:10398000C0B20021B1EBD01F13D0FFE7019800684F
:10399000C068C0B20021B1EBD01F09D0FFE7019889
:1039A00000686FF0800101610198FFF761FEFFE799
:1039B000FFE701980068006900F040000021B1EBCA
:1039C000901F14D0FFE701980068C06800F0400025
:1039D0000021B1EB901F09D0FFE7019800686FF05C
:1039E00040010161019800F045F8FFE7FFE7019809
:1039F0000068006900F020000021B1EB501F14D0D6
:103A0000FFE701980068C06800F020000021B1EBDA
:103A1000501F09D0FFE7019800686FF02001016195
:103A20000198FFF729FEFFE7FFE702B080BD000025
:103A300081B0009001B0704781B0009001B0704734
:103A400080B582B00190019840F65411C2F2000195
:103A5000884203D1FFE704F023F909E0019840F61A
:103A60009411C2F20001884201D1FFE7FFE7FFE7AE
:103A700002B080BD81B0009001B0704781B000906D
:103A800001B0704780B586B0059005980068006861
:103A9000049005980068C068039005980068406924
:103AA0000290002001900090049800F00F00019017
:103AB000019888B9FFE79DF81000800600280AD514
:103AC000FFE79DF80C008006002804D5FFE7059865
:103AD00002F02AFAD8E0FFE70198002800F0B4804D
:103AE000FFE79DF80800C00738B9FFE7BDF80C00F4
:103AF00010F4907F00F0A880FFE79DF81000C00749
:103B000058B1FFE79DF80D00C00730B1FFE70598F9
:103B1000C16B41F00101C163FFE79DF81000400750
:103B200000280BD5FFE79DF80800C00730B1FFE77C
:103B30000598C16B41F00201C163FFE79DF81000D9
:103B4000800700280BD5FFE79DF80800C00730B1BB
:103B5000FFE70598C16B41F00401C163FFE79DF8E1
:103B600010000007002811D5FFE79DF80C00800623
:103B7000002805D4FFE79DF80800C00730B1FFE733
:103B80000598C16B41F00801C163FFE70598C06B60
:103B9000002858D0FFE79DF81000800600280AD5BD
:103BA000FFE79DF80C008006002804D5FFE7059884
:103BB00002F0BAF9FFE7059800684069C0F3801089
:103BC00000900598C06B0007002803D4FFE7009819
:103BD00088B3FFE7059802F073F90598006840691B
:103BE0004006002822D5FFE705980068416921F0CA
:103BF000400141610598406B98B1FFE70598406B23
:103C000045F6B551C0F6000101650598406BFCF71B
:103C100063FC28B1FFE70598406B016D8847FFE71B
:103C200003E00598FFF72AFFFFE703E00598FFF799
:103C300025FFFFE706E00598FFF720FF0598002124
:103C4000C163FFE7FFE71FE09DF8100000060028B2
:103C50000AD5FFE79DF80C000006002804D5FFE711
:103C6000059802F0CFFA0FE09DF8100040060028FA
:103C70000AD5FFE79DF80C004006002804D5FFE7B1
:103C8000059802F031F9FFE706B080BD80B582B03B
:103C90000090009820B9FFE701208DF807003EE072
:103CA0000098806908B1FFE700E0FFE7009890F80E
:103CB000390040B9FFE70098002180F838100098DB
:103CC00000F032F8FFE70098242180F839100098BE
:103CD0000068C16821F40051C160009802F09AF9AF
:103CE00000980068016921F4904101610098006822
:103CF000416921F02A01416100980068C16841F4DE
:103D00000051C16000980021C1630098202280F812
:103D10003920009880F83A208DF80710FFE79DF8C9
:103D2000070002B080BD000010B58AB009900020E5
:103D3000089007900690059004900998006841F259
:103D40000001C4F20101884240F08C80FFE7FFE7E8
:103D50000020039043F64400C4F20200016841F0E1
:103D600010010160006800F0100003900398FFE765
:103D7000FFE70020029043F63000C4F20200016821
:103D800041F002010160006800F002000290029818
:103D9000FFE7C02004900220059000240694032031
:103DA00007900720089040F20040C4F2020004A9E6
:103DB000FCF7B0FE40F27830C2F2000046F240411B
:103DC000C4F2020101604FF0006141608460C46090
:103DD0004FF48061016144618461C46104624462A2
:103DE000FCF740FD18B1FFE7AFF30080FFE7FFE706
:103DF000099840F27831C2F2000141630998886362
:103E0000FFE740F2D830C2F2000046F2B841C4F2F7
:103E1000020101604FF0006141604021816000219A
:103E2000C1604FF48062026141618161C1610162E0
:103E30004162FCF717FD18B1FFE7AFF30080FFE721
:103E4000FFE7099840F2D831C2F2000101630998F6
:103E50008863FFE725200021FDF7BEFC2520FDF744
:103E6000B1FC94E00998006844F20041C4F20001FA
:103E7000884240F08B80FFE7FFE70020019043F687
:103E80004000C4F20200016841F4003101600068A2
:103E900000F4003001900198FFE7FFE70020009058
:103EA00043F63000C4F20200016841F001010160F4
:103EB000006800F0010000900098FFE70C200490DB
:103EC0000220059000240694032007900720089004
:103ED0000020C4F2020004A9FCF71CFE40F23840A6
:103EE000C2F2000046F28801C4F2020101604FF004
:103EF000006141608460C4604FF48061016144618D
:103F00008461C46104624462FCF7ACFC18B1FFE751
:103F1000AFF30080FFE7FFE7099840F23841C2F2B3
:103F20000001416309988863FFE740F29840C2F2BC
:103F3000000046F2A001C4F2020101604FF00061EE
:103F40004160402181600021C1604FF480620261C4
:103F500041618161C16101624162FCF783FC18B17A
:103F6000FFE7AFF30080FFE7FFE7099840F29841D1
:103F7000C2F20001016309988863FFE7262000214F
:103F8000FDF72AFC2620FDF71DFCFFE7FFE70AB03E
:103F900010BD000080B586B040F61420C2F20000CB
:103FA000049040F65C20C2F2000003904020ADF87F
:103FB0000A00049890F83A00202877D1FFE7039888
:103FC00020B1FFE7BDF80A0020B9FFE701208DF816
:103FD00017006FE0FFE7049890F83800012804D13B
:103FE000FFE702208DF8170064E00498012180F8B3
:103FF0003810FFE7FFE7039804998862BDF80A00CC
:104000000499888504980021C1630498222280F8CD
:104010003A200498406B45F65162C0F60002C26334
:104020000498406B45F6A962C0F600020264049849
:10403000406B45F6D552C0F60002C2640498406B4E
:10404000016503A8019004980168406B0431019A4E
:104050001268BDF80A30FCF7BDFCFFE700200090B5
:104060000498006800680090049800684068009018
:104070000098FFE7FFE70498002180F83810FFE779
:1040800004980068C16841F48071C16004980068B8
:10409000416941F00101416104980068416941F0C2
:1040A0004001416100208DF8170003E002208DF8E7
:1040B0001700FFE706B080BD80B582B0019003F025
:1040C00035FF03F05BFDFFF765FF02B080BD000028
:1040D00081B0009001B0704781B0009001B070478E
:1040E000FFE7FEE780B540F2F840C2F20000FCF7BF
:1040F0001FFF80BD81B000900098C06AB0F52A0F04
:1041000004D1FFE700980121C1620BE00098C06A6A
:10411000B0F12A4F04D1FFE700980821C16200E006
:10412000FFE7FFE701B0704780B584B003900398C4
:10413000806B0290029890F83D008DF8070002987D
:10414000406B28B1FFE70298406B0021C163FFE795
:104150000298806B28B1FFE70298806B0021C16351
:10416000FFE702980068016821F48061016002980D
:10417000002141850298406B28B1FFE70298406B0F
:1041800000210165FFE70298806B28B1FFE70298E4
:10419000806B00210165FFE702980068016821F04B
:1041A00001010160029890F83D0060280ED1FFE700
:1041B0000298202180F83D100298002180F83E10DE
:1041C000029801640298FCF7A7FE27E09DF807001B
:1041D00000F02800282814D1FFE702980068016841
:1041E00041F00101016002980068016841F48061BA
:1041F00001600298002101630298282180F83D1097
:1042000008E00298202180F83D100298002180F8F3
:104210003E10FFE70298FDF75DF8FFE704B080BDB0
:1042200080B584B00390039890F83D008DF80B00A2
:10423000039890F83E0010280CD1FFE79DF80B0082
:10424000222807D1FFE703980068016821F4006184
:104250000160FFE79DF80B0000F02800282808D136
:10426000FFE70398002101630398282180F83D109F
:1042700019E003980068406800F40060B0F5006F32
:104280000AD0FFE79DF80B00602805D0FFE70398F0
:10429000202180F83D10FFE7039800210163039877
:1042A00080F83E10FFE7039800684068000500288A
:1042B0005DD5FFE703980068416821F40061416023
:1042C0000398406B90F8350001281DD0FFE7039854
:1042D000406B44F22911C0F6000101650398406B60
:1042E000FCF7FAF878B1FFE703980068016821F05D
:1042F000010101600398202180F83D100398406B74
:10430000016D8847FFE731E00398806B44F2291183
:10431000C0F6000101650398806BFCF7DDF820B35F
:10432000FFE703980068406900F040000121B1EB0D
:10433000901F0BD1FFE70398006800690399496A51
:1043400008700398416A01314162FFE703980068F1
:10435000016821F0010101600398202180F83D10DF
:104360000398806B016D8847FFE7FFE745E00398FE
:1043700090F83D00602826D1FFE70398202180F8BF
:104380003D1003980021016403980068406900F023
:1043900040000121B1EB901F0BD1FFE703980068AB
:1043A00000690399496A08700398416A01314162C2
:1043B000FFE703980068016821F00101016003989C
:1043C000FCF7AAFD18E003980068406900F040007F
:1043D0000121B1EB901F0BD1FFE703980068006942
:1043E0000399496A08700398416A01314162FFE705
:1043F0000398FCF76FFFFFE7FFE70398006C01905D
:104400000198C00788B9FFE7019800F00200022870
:104410000BD0FFE7019800F00400042805D0FFE767
:1044200001980007002807D5FFE703980068416856
:1044300021F4E0614160FFE7039890F83D008DF8BA
:104440000B000398006C4007002818D5FFE79DF883
:104450000B00282813D1FFE703980021CFF6FF7146
:10446000C1620398002101630398202280F83D2057
:10447000039880F83E100398FDF76EF8FFE704B04C
:1044800080BD000080B582B001900198C06A0090A4
:104490000198408D042815D1FFE701980068416814
:1044A00021F4806141600198006800690199496ABE
:1044B00008700198416A013141620198418D0139CA
:1044C0004185ACE00198408D032824D1FFE7019895
:1044D0000068416821F480614160009804280BD095
:1044E000FFE70098022807D0FFE7019800680168FD
:1044F00021F480610160FFE701980068006901997B
:10450000496A08700198416A013141620198418D00
:104510000139418582E00198408D02286ED1FFE784
:104520000098012804D0FFE70098102807D1FFE782
:1045300001980068016821F4806101601CE0009826
:10454000042804D0FFE70098022807D1FFE701986C
:104550000068016841F4806101600CE00098102857
:1045600007D0FFE701980068016841F4007101601D
:1045700000E0FFE7FFE7FFE70198006800690199A5
:10458000496A08700198416A013141620198418D80
:10459000013941850198006800690199496A0870EC
:1045A0000198416A013141620198418D013941858B
:1045B00001980068416821F4407141600198202110
:1045C00080F83D10019890F83E0040280AD1FFE79E
:1045D0000198002180F83E10019801630198FCF7D2
:1045E000C7FF0AE00198002180F83E1001981221CF
:1045F00001630198FCF7B4FFFFE70EE00198006843
:1046000000690199496A08700198416A0131416263
:104610000198418D01394185FFE7FFE7FFE702B0CF
:1046200080BD000080B582B00190019890F83D00F7
:1046300022286BD1FFE70198408D00900098042854
:104640001BD3FFE70198006800690199496A087067
:104650000198416A013141620198418D01394185DA
:104660000198408D032807D1FFE701980068416851
:1046700021F480614160FFE747E00198C06A0228A9
:1046800041D0FFE70098012803D0FFE70098D0BB96
:10469000FFE701980068016821F4806101600198DA
:1046A0000068416821F4E061416001980068006998
:1046B0000199496A08700198416A01314162019883
:1046C000418D013941850198202180F83D100198E4
:1046D00090F83E0040280AD1FFE70198002180F8B9
:1046E0003E10019801630198FCF742FF0AE001982F
:1046F000002180F83E100198122101630198FCF717
:104700002FFFFFE700E0FFE7FFE7FFE702B080BD14
:1047100080B582B001900198C06A0090019890F82D
:104720003D00212860D1FFE70198408D70B1FFE77F
:1047300001980168406A007808610198416A013176
:1047400041620198418D013941854CE0009808286B
:104750001ED0FFE7009820281AD0FFE7009810F538
:10476000803F15D0FFE701980068416821F4E061BF
:1047700041600198112101630198002180F83E10E9
:104780000198202180F83D100198FCF7EDFE29E00A
:1047900001980068416821F4E06141600198006877
:1047A000016841F4007101600198002101630198E2
:1047B000202180F83D10019890F83E00402808D153
:1047C000FFE70198002180F83E100198FCF7D4FE25
:1047D00007E00198002180F83E100198FCF7C4FE24
:1047E000FFE7FFE7FFE70BE0019890F83E00402865
:1047F00004D1FFE7019800F0E1FA00E0FFE7FFE7EE
:1048000002B080BD80B584B00390039890F83D005D
:104810008DF80B00039890F83E008DF80A0003987D
:10482000C06A01900398008D002852D1FFE79DF8DF
:104830000B0021284DD1FFE7019808281ED0FFE783
:10484000019820281AD0FFE7019810F5803F15D075
:10485000FFE703980068416821F4E0614160039834
:10486000112101630398002180F83E100398202154
:1048700080F83D100398FCF777FE29E00398006864
:10488000416821F4E061416003980068016841F4E7
:10489000007101600398002101630398202180F8D2
:1048A0003D10039890F83E00402808D1FFE7039898
:1048B000002180F83E100398FCF75EFE07E00398A5
:1048C000002180F83E100398FCF74EFEFFE7FFE75B
:1048D00035E09DF80B0021280AD0FFE79DF80A007B
:1048E00040282AD1FFE79DF80B00222825D1FFE7B9
:1048F0000398408D38B9FFE703980068416821F4B8
:104900008061416018E0039890F83E00402804D18F
:10491000FFE7039800F052FA0DE003980168406A3F
:10492000007808610398416A013141620398418D22
:1049300001394185FFE7FFE700E0FFE7FFE704B04B
:1049400080BD000081B000900098406CC0B200991A
:10495000096808610098406B20B9FFE70098806BF8
:1049600090B1FFE70098406BC06B28B9FFE7009853
:10497000806BC06B38B1FFE700980068416841F474
:1049800000614160FFE7FFE701B070478EB00D9016
:104990000D9890F83E008DF833000D98C06A0B908A
:1049A0000D98006B0A900D9890F83D00222840F079
:1049B0007C81FFE70D98006D98B9FFE79DF8330003
:1049C00040280ED1FFE7FFE7002009900D9800680E
:1049D000406909900D980068806909900998FFE77F
:1049E00062E10D98006DF0B9FFE70D980069B0F530
:1049F000404F18D1FFE7FFE7002008900D980068AE
:104A0000406908900D980068806908900898FFE751
:104A10000D980068016841F4807101600D98016D86
:104A2000013101653FE10D98408DA0B9FFE7FFE737
:104A3000002007900D980068406907900D98006865
:104A4000806907900798FFE70D980068016841F4B6
:104A50000071016023E10D98408D012840F09080A5
:104A6000FFE70B9810F5803F36D1FFE70D980068FF
:104A7000016821F4806101600D98006840680005BC
:104A8000002814D5FFE70D980068016821F48061C3
:104A90000160FFE7002006900D98006840690690CD
:104AA0000D980068806906900698FFE713E0FFE71D
:104AB000002005900D980068406905900D980068E9
:104AC000806905900598FFE70D980068016841F43A
:104AD00000710160FFE752E00B98082834D0FFE72F
:104AE0000B98202830D0FFE70A98122804D1FFE75E
:104AF0000B98012828D1FFE70B9804280FD0FFE777
:104B00000B9802280BD0FFE70B98102807D0FFE77F
:104B10000D980068016821F48061016006E00D983D
:104B20000068016841F480610160FFE7FFE7002051
:104B300004900D980068406904900D9800688069A1
:104B400004900498FFE719E00D980068016821F4CB
:104B500080610160FFE7002003900D9800684069C4
:104B600003900D980068806903900398FFE70D9803
:104B70000068016841F400710160FFE7FFE78DE024
:104B80000D98408D022851D1FFE70B98042815D0CD
:104B9000FFE70B98022811D0FFE70B9810280DD0E3
:104BA000FFE70D980068016821F4806101600D98AD
:104BB0000068016841F40061016006E00D9800683A
:104BC000016841F480610160FFE70D98006840686A
:104BD000000500281CD5FFE70B9810F5803F10D08A
:104BE000FFE70B9801280CD0FFE70B98082808D0A6
:104BF000FFE70B98102804D0FFE70B98202807D177
:104C0000FFE70D980068416841F480514160FFE77B
:104C1000FFE7002002900D980068406902900D980F
:104C20000068806902900298FFE736E00D980068FE
:104C3000016841F4806101600D98006840680005DA
:104C400000281CD5FFE70B9810F5803F10D0FFE738
:104C50000B9801280CD0FFE70B98082808D0FFE735
:104C60000B98102804D0FFE70B98202807D1FFE706
:104C70000D980068416841F480514160FFE7FFE70B
:104C8000002001900D980068406901900D9800681F
:104C9000806901900198FFE7FFE7FFE7FFE70D98C4
:104CA00000210165FFE7FFE70DE0FFE7002000902E
:104CB0000D980068406900900D9800688069009028
:104CC0000098FFE7FFE70EB07047000081B000904A
:104CD000009890F83E00402816D1FFE70098006D3C
:104CE00040B9FFE70098406C00F0FE0000990968A9
:104CF000086108E00098406C40F00100C0B20099E3
:104D000009680861FFE757E000980069B0F5804F37
:104D100031D1FFE7009890F83D00212808D1FFE746
:104D20000098406C00F0FE0000990968086108E0F6
:104D30000098406C40F00100C0B200990968086119
:104D4000FFE70098406B28B1FFE70098406BC06B0D
:104D500048B9FFE70098806B60B1FFE70098806B6F
:104D6000C06B38B1FFE700980068416841F400610A
:104D70004160FFE71FE00098006D50B9FFE7009821
:104D8000406C00F44070C009F03000990968086177
:104D900010E00098006D01280AD1FFE70098406CF0
:104DA00000F44070C009F13000990968086100E022
:104DB000FFE7FFE7FFE7FFE701B0704781B0009032
:104DC0000098006DE8B9FFE70098C06C01280BD18E
:104DD000FFE70098806CC0B20099096808610098EC
:104DE000016D023101650BE00098806C80B2000A11
:104DF0000099096808610098016D01310165FFE7BC
:104E00003BE00098006D01280BD1FFE70098806C13
:104E1000C0B20099096808610098016D013101650F
:104E20002AE00098006D022824D1FFE7009890F84E
:104E30003D00222807D1FFE700980068016841F48F
:104E40008071016015E0009890F83D0021280ED196
:104E5000FFE700980168406A007808610098416A9D
:104E6000013141620098418D0139418500E0FFE741
:104E7000FFE700E0FFE7FFE7FFE701B07047000052
:104E800081B000900098408D78B1FFE700980068ED
:104E900000690099496A08700098416A01314162CD
:104EA0000098418D01394185FFE701B0704700004E
:104EB00080B582B00190019890F83D008DF8030014
:104EC0000198408D48B3FFE7019800680069019997
:104ED000496A08700198416A013141620198418D27
:104EE000013941850198408DB0B9FFE79DF8030075
:104EF0002A2811D1FFE701980068416821F48061F8
:104F000041600198222101630198282180F83D1019
:104F10000198FCF7D5FBFFE7FFE702B080BD00007A
:104F200081B000900098408D70B1FFE70098016853
:104F3000406A007808610098416A01314162009836
:104F4000418D01394185FFE701B0704780B582B0DE
:104F50000190019890F83D008DF803000198408D74
:104F600040B3FFE701980168406A00780861019842
:104F7000416A013141620198418D013941850198B1
:104F8000408DB0B9FFE79DF80300292811D1FFE754
:104F900001980068416821F48061416001982121F5
:104FA00001630198282180F83D100198FCF78CFBE3
:104FB000FFE7FFE702B080BD80B584B003900291A7
:104FC00000208DF80700039890F83D0000F02800BD
:104FD000282832D1FFE703980068416821F48061F6
:104FE00041609DF8080000F004000021B1EB900F33
:104FF00004D1FFE701208DF80700FFE79DF80800C6
:105000000021B1EBD01F05D1FFE70398C068ADF8D0
:10501000040004E003988069ADF80400FFE7FFE7AF
:105020000398002180F83C10FFE703989DF80710D3
:10503000BDF80420FBF774FF0BE0039800686FF0E5
:1050400002014161FFE70398002180F83C10FFE76F
:10505000FFE704B080BD000080B584B003900398E2
:1050600090F83D008DF80B0003980068416821F42A
:10507000E0614160FFE7002001900398006840690B
:10508000019003980068016841F0010101600198F6
:10509000FFE703980068016821F4806101600398CC
:1050A00000684068000500286DD5FFE79DF80B00FB
:1050B000222805D0FFE79DF80B002A2831D1FFE711
:1050C0000398806B00684068039948850398408D79
:1050D00030B1FFE70398016C41F004010164FFE780
:1050E00003980068416821F4006141600398806B77
:1050F000FBF714FA012813D0FFE70398806B44F202
:105100002911C0F6000101650398806BFBF7E4F9F3
:1051100028B1FFE70398806B016D8847FFE7FFE741
:1051200030E00398406B0068406803994885039815
:10513000408D30B1FFE70398016C41F00401016438
:10514000FFE703980068416821F40061416003981B
:10515000406BFBF7E3F9012813D0FFE70398406B9E
:1051600044F22911C0F6000101650398406BFBF77A
:10517000B3F928B1FFE70398406B016D8847FFE75B
:10518000FFE7FFE7FFE70398408DE8B3FFE70398E9
:105190000068406900F004000121B1EB900F0FD1CD
:1051A000FFE70398006800690399496A087003984B
:1051B000416A013141620398418D01394185FFE720
:1051C00003980068406900F040000121B1EB901F96
:1051D0000FD1FFE70398006800690399496A0870D6
:1051E0000398416A013141620398418D013941853B
:1051F000FFE70398408D30B1FFE70398016C41F061
:1052000004010164FFE7FFE70398006C20B1FFE7AA
:105210000398FFF705F842E09DF80B002A280BD110
:10522000FFE70398002101630398282180F83D10CF
:105230000398FCF745FAFFE7039890F83D0028280B
:1052400013D1FFE703980021CFF6FF71C1620398E5
:10525000002101630398202280F83D20039880F804
:105260003E100398FCF778F918E00398006B2228A9
:1052700005D0FFE79DF80B0022280ED1FFE7039829
:10528000002101630398202280F83D20039880F8D4
:105290003E100398FCF714FAFFE7FFE7FFE704B0BE
:1052A00080BD000080B582B0FFE70020019043F68A
:1052B0003000C4F20200016841F40011016000688E
:1052C00000F4001001900198FFE7FFE70020009034
:1052D00043F63000C4F20200016841F4800101602D
:1052E000006800F4800000900098FFE70B20002188
:1052F000FCF772FA0B20FCF765FA0C200021FCF792
:105300006BFA0C20FCF75EFA10200021FCF764FA1F
:105310001020FCF757FA11200021FCF75DFA11204C
:10532000FCF750FA3A200021FCF756FA3A20FCF735
:1053300049FA46200021FCF74FFA4620FCF742FAD2
:1053400002B080BDF0B589B00020089007900690AB
:1053500005900490FFE70020039043F63000C4F26C
:105360000200016841F004010160006800F00400DF
:1053700003900398FFE7FFE70020029043F6300018
:10538000C4F20200016841F080010160006800F091
:10539000800002900298FFE7FFE70020019043F6AB
:1053A0003000C4F20200016841F0010101600068B0
:1053B00000F0010001900198FFE7FFE70020009056
:1053C00043F63000C4F20200016841F002010160BE
:1053D000006800F0020000900098FFE7FBF766FD10
:1053E0004FF4005004900125059500260696079677
:1053F00040F60000C4F2020004AC2146FBF78AFB31
:1054000004950020C1F21100059006960025C4F213
:10541000020528462146FBF77DFB04200490032764
:105420000597069640F20040C4F202002146FBF7C1
:1054300071FB4FF48060049005970696284621463C
:10544000FBF768FB06200021FCF7C6F90620FCF7F5
:10545000B9F909B0F0BD000080B540F2F840C2F2E1
:10546000000045F20041C4F20001016041F68021D4
:10547000C0F20601416000218160C1604FF48042AA
:10548000026141618161C1610162FBF727FF18B1CF
:10549000FFE7AFF30080FFE780BD000080B540F676
:1054A0005410C2F2000044F20041C4F20101016054
:1054B00040F2DF114160002181604FF46372C260ED
:1054C000016180218161FEF7DBF818B1FFE7AFF3DE
:1054D0000080FFE780BD000080B540F69410C2F266
:1054E000000044F60001C4F20101016040F2BF3146
:1054F00041600021816040F2E732C2600161802199
:105500008161FEF7BDF818B1FFE7AFF30080FFE758
:1055100080BD000080B540F6D410C2F2000041F218
:105520000001C4F2010101604FF47A3141600021B1
:105530008160C16001610C2242618161C161FEF73D
:10554000A5FB18B1FFE7AFF30080FFE780BD0000C7
:1055500080B540F61420C2F2000044F20041C4F2CB
:10556000000101604FF47A31416000218160C16027
:1055700001610C2242618161C161FEF787FB18B1B4
:10558000FFE7AFF30080FFE780BD000080B540F289
:105590004C50C2F200004FF0A04101600421416074
:1055A0000221C160002202618161C2610262426225
:1055B000C2620263FDF70EF818B1FFE7AFF3008097
:1055C000FFE780BDFFE7FEE780B5FDF7E3FC80BDA8
:1055D00086B0059004910392059800F007000290B0
:1055E0000298C0F10700052802D3FFE7042003E07A
:1055F0000298C0F10700FFE70190029804300628E6
:1056000002D8FFE7002002E002980338FFE700908D
:1056100004980199012202FA01F101390840009928
:105620008840039B02FA01F101391940084306B092
:105630007047000080B5FCF7A3FC80BD80B586B044
:1056400005900491059800680390039802900398D0
:10565000006C01900298049900EB4110D0F8080BFF
:10566000009005980069012817D1FFE7019843F2DF
:105670000B01C4F6547188420ED3FFE70098000472
:10568000002809D5FFE70298049900EB41104FF478
:105690000041C0F8081BFFE716E0019843F20A1129
:1056A000C4F6547188420ED1FFE700980004002828
:1056B00009D5FFE70298049900EB41104FF400412F
:1056C000C0F8081BFFE7FFE70598FDF79BF9019875
:1056D00043F20B01C4F6547188420DD3FFE70598DD
:1056E0000069012808D1FFE70599086801F5717282
:1056F000012101F0C9F9FFE706B080BD80B586B091
:10570000059004910598006803900398029003980F
:10571000006C01900298049900EB4110D0F8080B3E
:10572000009005980069012840F09C80FFE70098F0
:105730000007002828D5FFE7019843F20B01C4F6C3
:10574000547188420ED3FFE700980004002809D561
:10575000FFE70298049900EB41104FF40041C0F8B4
:10576000081BFFE70598FDF74DF90599086801F555
:105770007172012101F088F90298049900EB41103F
:105780000821C0F8081B6CE000988006002808D5A6
:10579000FFE70298049900EB41102021C0F8081B94
:1057A0005EE09DF8000010F0280F57D1FFE7019848
:1057B00043F20B01C4F6547188420ED3FFE7009800
:1057C0000004002809D5FFE70298049900EB411076
:1057D0004FF40041C0F8081B3FE005980499C1EB65
:1057E000C10200EB8200D0F80402029A02EB4111E0
:1057F000D1F8101B6FF3DF41401A0599049AC2EBF0
:10580000C20201EB8201C1F8140205980499C1EBB0
:10581000C10100EB8100D0F80412D0F80822114435
:10582000C0F8081205989DF81010FCF76BF9049861
:1058300090B9FFE705980499C1EBC10100EB810025
:10584000D0F8100240B9FFE70599086801F57172B8
:10585000012101F019F9FFE7FFE700E0FFE7FFE7AB
:10586000FFE730E0019843F20A11C4F65471884210
:1058700022D1FFE700980004002809D5FFE702982D
:10588000049900EB41104FF40041C0F8081B12E0EE
:1058900000988006002808D5FFE70298049900EBDD
:1058A00041102021C0F8081BFFE705989DF8101053
:1058B000FCF728F9FFE705E005989DF81010FCF7C4
:1058C00021F9FFE7FFE706B080BD000080B58AB090
:1058D0000890079108980068069006980590089827
:1058E0000799C1EBC10100EB81003C3004900498A2
:1058F00041698069884204D9FFE701208DF82700BB
:1059000076E0049841698069081A03900398049925
:105910008968884204D9FFE7049880680390FFE70C
:105920000398033080080290FFE70598079900EB81
:105930004110D0F8180981B2029A002091420DD38B
:10594000FFE704984169826900208A4206D2FFE796
:1059500004984069002818BF0120FFE7C00768B31A
:10596000FFE7049841698069081A03900398049935
:105970008968884204D9FFE7049880680390FFE7AC
:10598000039803308008029006980499C9689DF82E
:105990001C20BDF80C30DDF820C09CF810C0CDF8FC
:1059A00000C001F017FD03980499CA681044C8604C
:1059B000039804998A6910448861B6E7049841699C
:1059C0008069814210D8FFE7079800F00F0001219D
:1059D00001FA00F0019001980599D1F8342822EAE3
:1059E0000000C1F83408FFE700208DF82700FFE72A
:1059F0000AB080BD704700007047000080B582B0DB
:105A0000019048F2CC50C0F600000090019840F69A
:105A1000E821C2F200010860009840F6E421C2F2D9
:105A20000001086040F27020C2F200000021017005
:105A300040F65420C2F200000121017040F2F00053
:105A4000C2F200004FF4C071FAF71EFC0198FDF796
:105A50008FF802B080BD000080B584B080228DF840
:105A60000F20029001919DF80F00C0098DF80300EE
:105A70009DF80F0000F00F008DF80F009DF8030057
:105A800000EB400040F2F001C2F2000101EB801097
:105A90009DF80F2002EB4202012300F82230029809
:105AA0009DF8032002EB420201EB82119DF80F20CA
:105AB00002EB420201EB82014860019810B1FFE75E
:105AC000019802E04FF0FF30FFE79DF8031001EB73
:105AD000410140F2F002C2F2000202EB81119DF896
