:020000040800F2
:1000000058100020AD010008311D0008211C000817
:100010002D1D0008B902000831330008000000005F
:10002000000000000000000000000000212C00087B
:10003000ED02000800000000B1280008252C00088F
:10004000C7010008C7010008C7010008C701000870
:10005000C7010008C7010008F1020008C701000835
:10006000C7010008C7010008C7010008BD02000859
:10007000C9020008C7010008C7010008C70100083D
:10008000C7010008C7010008C70100080000000000
:10009000000000000000000000000000C701000890
:1000A000C7010008592C00084D2C0008C7010008A2
:1000B000C7010008C7010008C7010008251C000887
:1000C000C7010008C7010008C7010008B5280008DB
:1000D000C7010008C7010008C701000800000000B0
:1000E000C7010008C7010008C701000800000000A0
:1000F000000000000000000000000000C701000830
:1001000000000000C7010008C7010008C70100087F
:1001100000000000000000000000000000000000DF
:10012000D5020008C7010008E1020008C701000865
:10013000C7010008000000000000000000000000EF
:100140000000000000000000000000001520000872
:10015000C7010008C7010008C7010008C70100085F
:10016000C7010008C70100080000000000000000EF
:10017000000000000000000000000000000000007F
:1001800000000000C701000800000000000000009F
:10019000C7010008C7010008DFF80CD000F018F80C
:1001A00000480047353300085810002006488047B3
:1001B00006480047FEE7FEE7FEE7FEE7FEE7FEE74C
:1001C000FEE7FEE7FEE7FEE7312C00089901000894
:1001D000064C074D06E0E06840F0010394E8070094
:1001E00098471034AC42F6D3FFF7DAFF084700080F
:1001F000284700082DE9F05F0546002092469B46FF
:1002000088460646814640241BE02846414647462C
:10021000224600F041F853465A46C01A914110D385
:1002200011461846224600F028F82D1A67EB0108FF
:100230004F4622460120002100F01FF817EB00096D
:100240004E41201EA4F10104DFDC484631462A4617
:100250004346BDE8F09FD2B201E000F8012B491EF1
:10026000FBD270470022F6E710B513460A46044653
:100270001946FFF7F0FF204610BD202A04DB203A84
:1002800000FA02F1002070479140C2F1200320FAE9
:1002900003F3194390407047202A04DB203A21FAE7
:1002A00002F00021704721FA02F3D040C2F120028F
:1002B0009140084319467047FEE70000014800F0EE
:1002C00033B800BFE4030020014800F02DB800BFA0
:1002D00044040020014800F027B800BFA404002017
:1002E000014800F021B800BF04050020704700005D
:1002F00003480168C9071CBF01210160704700BFA6
:10030000143C014090F83510022909D1052180F8EC
:1003100035100068016821F001010160002070477C
:100320008021416501207047F8B50446002008216E
:10033000009058484568D4E91660376881403942D2
:100340000CD0226813685B0708D5136823F00403F8
:100350001360B160616D41F001016165012181406F
:10036000394208D022685269120604D5B160616D25
:1003700041F00201616504218140394208D02268C0
:100380001268920704D5B160616D41F004016165A6
:1003900010218140394217D020680268120713D516
:1003A000B16002680168520306D4C9055EBF0168E6
:1003B00021F00801016001E0080301D4216C00E094
:1003C000A16C09B120468847E16D202000FA01F2B6
:1003D0003A423BD020680368DB0637D5B26094F818
:1003E00035300268052B19D122F0160202604269ED
:1003F00022F080024261226C0AB9A26C1AB1026832
:1004000022F0080202603F208840B060012084F89A
:100410003500002084F83400216D37E00168520374
:100420000CD4C9050ED4016821F01001016001202F
:1004300084F83500002084F8340003E0080301D478
:10044000616C00E0E16B09B120468847606D00B344
:10045000606DC00719D005214FF4165084F835108F
:10046000B5FBF0F021680A6822F001020A60009AE8
:1004700001328242009202D80A68D207F7D10120E5
:1004800084F83500002084F83400E16C09B120467E
:100490008847F8BD080000202DE9F0414B490028AD
:1004A0008B6815D0022280F83520002280F8342095
:1004B0000268156825F0010515601568ED0709D07B
:1004C0008D68ED1A052DF8D903232025032168E056
:1004D00001215AE011683E4BD0E9015400F10C08AB
:1004E00001EA030C98E8C201D0E9073E45EA0C0591
:1004F00025432943456A31433943042D41EA080124
:1005000041EA030141EA0E031ED1D0E90BE143EABF
:100510000E03BEF1000F41EA030111605169846AC4
:1005200021F0030141EA040141F0040C12D0B8F5B6
:10053000005F2DD0B8F1000F3DD1022C3ED0012C30
:1005400033D0002C3AD005E01360516921F0070147
:1005500041EA050C6FF00F0140F2FF33C2F814C0FE
:10056000002551FA82F19A4318235F29B1FBF3F178
:1005700018A388BF04328265595C3F23C16503FA22
:1005800001F10123916000210BE00846BDE8F081F4
:10059000032CDFD8012340250121DFE804F0020FFE
:1005A0000206456580F83530EFE7AEF1C071B1FA6B
:1005B00081F1490904E0032C04D3CBD1CEF30061CF
:1005C0000029C7D0012340250121EAE7500000207F
:1005D0003F8010F0000610160006101610B590F8B7
:1005E00034C0BCF1010F46D04FF0010CD0F858E0F8
:1005F00080F834C090F835C0BCF1010F38D14FF00D
:10060000020C80F835C04FF0000CC0F854C0D0F890
:1006100000C0DCF8004024F48024CCF80040CCF882
:1006200004308368402B0B4608BF1346CCF80830D3
:1006300008BF0A46CCF80C20C16D3F2202FA01F136
:10064000CEF80810DCF8001041F01601CCF80010CC
:10065000006C28B1DCF8000040F00800CCF8000085
:10066000DCF8000040F00100CCF80000002010BDD4
:10067000002180F83410022010BD00000349013031
:100680008A688B689B1A8342FBD370475000002016
:100690002DE9F84F5E4A4FF0070A4FF0010B4FF07B
:1006A00000084FF0000E90425A4A08BF4FF0040A6B
:1006B00002444FEAB223042B38BF4FEAB22A002289
:1006C000102A08BFBDE8F88F0B680BFA02F6334218
:1006D00000F091804B68122B00F293800BFA03F725
:1006E00017F0061F00F08D8003278468CD6807FA95
:1006F0000EF7BC4305FA0EF56FEA070C57002543C9
:100700008560C3F3001544689540B44325434560B4
:10071000C4688D6804EA0C04BD402C43C46043F0F7
:100720001004122C13D16FF0030508F01C030F24E2
:1007300005EA52059C400544D5F8209029EA0409B1
:100740000C6904FA03F343EA09032B624B6805685A
:1007500003F00304DB0004FA07F405EA0C0747EA98
:100760000407076047D500232B4C08F00C050093C5
:100770002B4BA4461F461B6843F480433B603B68F9
:1007800003F48043009322F003032344254C009F8D
:10079000A1461F590F24AC400AFA05F5A7432F4381
:1007A00043F80970DCF800304D6843EA0607EC03B3
:1007B00058BF23EA0607CCF80070AC03DCF804301D
:1007C00043EA060758BF23EA0607CCF80470EC0298
:1007D000DCF8083043EA060758BF23EA06070F4B48
:1007E000CCF80870AD021C461B6843EA060758BFE8
:1007F00023EA0607276008F104080EF1020E013211
:100800005EE7032707FA0EF76FEA070C77467FE7E4
:10081000001002400000FEBF003C01400C3C0140C3
:100820004438024008FCFFFF7CB5D0F800E00446E5
:10083000764656F8042FC16A90F83E3090F83D0095
:10084000402B01D0102B4AD1DEF81850DEF81430BE
:10085000D80740F09880B1F12A4F00F00F83B1F52E
:100860002A0F00F00B8312F4007018BF13F0080178
:1008700040F04F810121002881EA502C00F0878050
:1008800013F0020000F0838094F83E00E26A236BCC
:1008900094F83D10222940F089814028216D08BF3D
:1008A000002900F08381206D002840F0E882206953
:1008B000B0F5404F40F0E38200200190DEF81400D4
:1008C0000190DEF8180001900198DEF8000040F475
:1008D0008070CEF80000206D013020657CBD216C59
:1008E00009B9DEF81810DEF8143012F4007518BFDC
:1008F00013F002017ED1002D00F08B8013F0100167
:1009000000F0878094F83D50DEF8040020F4E060A9
:10091000CEF8040000200190DEF814000190DEF80B
:10092000000040F00100CEF800000198DEF8000061
:1009300020F48060CEF80000DEF80400000540F1ED
:10094000838145F008002A2840F06381A06B01688C
:1009500049686185618D19B1216C41F00401216400
:10096000316821F40061316090F83510012900F000
:100970006B81DFF82C170165FFF7C4FC002800F03D
:100980006381A06B5EE190052ED44FF0010C3068BE
:10099000690700F4006065D4002840F06F825005BC
:1009A00040F10E8103F04400402840F0098194F8A2
:1009B0003D00222840F06282608D0428C0F07F82D2
:1009C000DEF81000616A0870608D01386085606A29
:1009D00001306062608D032840F0508220684168D9
:1009E00021F4806141607CBDE06AB0F52A0F51D1ED
:1009F000012054E0206C08B1DEF8180094F83D00A6
:100A000000F0280028286ED1306820F48060306023
:100A10006DE040F00800292840F09180500540F139
:100A2000B98003F08400802840F0B48094F83D0041
:100A3000618D002900F02282616A292811F8012BBA
:100A4000CEF81020628DA2F1010262856162618D93
:100A500008BF002940F01282306820F480603060C6
:100A6000212092E0002840F00982500540F1BD802D
:100A700003F08400802840F0B88094F83D2094F87A
:100A80003E10E06A238D002B00F0C681212A40F041
:100A9000E181E3E1E06AB0F12A4F01D10820E06290
:100AA00094F83E00402809D1216D606C00F0FE00F2
:100AB000002900F0AE8140F00100AAE12069B0F504
:100AC000804F18D194F83D00616C01F0FE0121289F
:100AD00018BF0131CEF81010606B08B1C06B48BB75
:100AE000A06B18BBCAE16FF00200CEF81400002022
:100AF00084F83C007CBD206D002800F08581206DCD
:100B0000012840F0BB81606C062101EAD010F13071
:100B10007FE1606CC0B2CEF81000606B18B9A16BB9
:100B2000002900F0AB81C06B20B9A06BC06B00281E
:100B300000F0A481306840F4006030607CBD500556
:100B400040F11E8103F04400402840F0198194F8E0
:100B50003D00618D002900F09181DEF81010626A7D
:100B60002A281170618DA1F101016185616A01F18D
:100B700001016162618D08BF002940F07F8120681A
:100B8000416821F48061416022202063282084F89C
:100B90003D007CBD002D00F0718113F0040000F0D9
:100BA0006D81608D002840F0608167E10020019038
:100BB000DEF814000190DEF81800019001987CBD69
:100BC00003F00400012181EA900050EA0C0040F09B
:100BD0005581E26A608D042840F09081DEF80400BF
:100BE00020F48060CEF80400D3E003F0040001217B
:100BF00081EA900050EA0C0040F04081E06A94F8ED
:100C00003D10212940F08E81618D002940F02D8119
:100C100004E1606B016849686185618D19B1216CDF
:100C200041F004012164316821F40061316090F8E1
:100C30003510012908D0DFF868140165FFF762FB61
:100C400010B1606B016D8847608DF8B12068416913
:100C5000490709D50069616A0870616A2068013135
:100C60006162618D013961854169490608D5006974
:100C7000616A0870606A01306062608D0138608569
:100C8000608D18B1206C40F004002064206C90B19D
:100C900094F83D1094F83E00222908BF10281DD07A
:100CA00001F0280028281FD100202063282084F884
:100CB0003D00206826E02A2D04D100202063282052
:100CC00084F83D0094F83D00282800F09380222D00
:100CD000206B18BF222800F08F80CFE020680268C8
:100CE00022F40062026000E020684268602905D0BA
:100CF00012F4006104BF202184F83D10002121631B
:100D000084F83E104168090517D494F83D10602915
:100D100046D1202184F83D10002121644169490613
:100D200006D50069616A0870616A206801316162F4
:100D3000016821F0010101604CE0416821F400618B
:100D40004160606B90F83510012933D1A06BD44914
:100D50000165FFF7D7FAE8B320684169490606D56F
:100D60000069616A0870616A206801316162016826
:100D700021F001010160202084F83D00A06B27E0F4
:100D8000002D7BD013F0040078D0608D002808BFC0
:100D90007CBDDEF81000616A0870606A013069E0AD
:100DA0004169490616D50069616A0870606A0130B8
:100DB00060620FE0BA490165FFF7A4FA50B12068FC
:100DC000016821F001010160202084F83D00606B82
:100DD000016D8847206C000704D02068416821F429
:100DE000E061416094F83D10206C282946D110F054
:100DF000040043D0AB48E06200202021206384F847
:100E00003D1084F83E007CBD606C062101EAD010E4
:100E1000F030CEF810007CBD212A1BD1316810F5CE
:100E2000803F21F4E061316004D0082802D02028FE
:100E300040F0BB80DEF80000202140F40070CEF8C6
:100E400000000020206384F83D1094F83E1084F8E0
:100E50003E007CBD222A08BF40290FD1608D0028AA
:100E600069D094F83E00402860D0606A10F8011BF9
:100E7000CEF810106062608D013860857CBD608D99
:100E800068B1608D01286CD1202A18BF082A40F073
:100E90009580DEF8000020F48060CEF8000000208D
:100EA0000190DEF814000190DEF81800019001981E
:100EB000DEF8000040F40070CEF80000B5E0E16A12
:100EC0000128DBD80229D9D0DEF8000020F48060A8
:100ED000CEF80000DEF8040020F4E060CEF8040054
:100EE000DEF81000616A0870608D0138608520208E
:100EF00084F83D00606A01306062BAE0608D0328CA
:100F00001ED13068022A20F4806030603FF441AF87
:100F1000042A3FF43EAFDEF8000020F48060CEF8F3
:100F2000000036E794F83E004028A7D12046BDE8EF
:100F30007C4000F0C2BE306820F4806030607CBD30
:100F4000608D02287FF425AF102A05D0022A48D0F0
:100F5000042A46D0012A6BD1DEF8000020F480601C
:100F60006AE0618DDEF80000022908D1102A00F243
:100F70008A800121494B9140194200F0848040F45D
:100F80008060CEF80000DEF80400000544D5501E55
:100F90001F282BD8012101FA00F03F49084225D033
:100FA000306840F48050306036E01120206300202B
:100FB00084F83E00202084F83D007CBD12F5803F7F
:100FC00018D1DEF8000020F48060CEF80000DEF8D2
:100FD000040000057FF563AFDEF8000020F48060B8
:100FE00018E0DEF8000040F4806025E012F5803F54
:100FF000D6D011E0012A02D0122B3FF44AAFDEF81E
:101000000000102AEAD801219140244A1142E5D07B
:1010100040F48060CEF8000000200190DEF814005B
:101020000190DEF8180001900198002020657CBD39
:10103000DEF8000040F40070CEF80000DEF810008A
:10104000616A0870616A20684A1C6262628D013AB6
:10105000628500694870616A206801316162618D52
:1010600001396185416821F440714160202084F894
:101070003D0094F83E10002084F83E00402918BF3F
:10108000122020637CBD20F48060CEF80000DEF8E2
:10109000000040F4006074E78180008014000100CB
:1010A000311C00080000FFFFB0B50F4D04464FF49F
:1010B0007A716868B0FBF1F0411E0020B0EB116F4F
:1010C00011D10A4AF0230F2C516009490B7090602E
:1010D0004FF00700106088BFB0BD4FF0FF302146D1
:1010E00000F008F82C60B0BD0800002010E000E01F
:1010F00023ED00E010B500F00F03114C0F4AB0F1E2
:10110000FF3FA3F10403234403F10C03C8BF83187A
:1011100020684FF0FF34C0F30220C21E80F00700A9
:1011200038BF0022042828BF042004FA00F021EA76
:10113000000090400001187010BD00BF00E400E006
:101140000CED00E0374A0028D2F800C0DCF824207B
:1011500019D080B5DCF82830A0F1010E02EB134362
:10116000002206E00CEB80000132D0F8040103EB12
:101170001043D0B28645F5D80CEB8E0043EA01410E
:10118000C0F8041180BD42EA0140CCF82800704745
:1011900010B5014623480029D0F804440BD0D4F8F8
:1011A0008C0282692AB394F87402032821D1204664
:1011B000BDE810401047D4F86C22052A1AD0032A43
:1011C00017D1D4E953C39C451DD9C1EBC10100EB34
:1011D00081000021D0F80822ACEB0300C4F84C01D8
:1011E000984238BF034620469BB2BDE8104001F04C
:1011F0004BBE10BD00200021C4F86C022046BDE8A3
:10120000104001F069BED4F88C02016929B194F84C
:101210007402032801D1204688472046BDE81040CB
:1012200001F03ABDB80500202DE9F843DFF82C3570
:10123000012093F8C473D3F8048488F8807207F00F
:101240001F0508F5207C93F8C543022D88F88142DC
:1012500093F8C69393F8C76349EA062EA8F882E28A
:1012600093F8C81393F8C92341EA0222A8F884220C
:10127000B3F8CA33C8E99B03A8F886320AD0012D17
:1012800010D05DBB17F0600136D0402951D0202925
:101290002DD14EE017F0600249D0402A49D0202AD3
:1012A00047D024E017F0600018BF40281DD198F8FF
:1012B0007402013802281AD811F0FE0F17D1D8F89D
:1012C0008C026146826840469047002840F0E781E2
:1012D000B8F88602002800F06C80E0E107F0800199
:1012E0004046BDE8F84301F0F7BD2028DFD0404676
:1012F000BDE8F84301F0BBBC092CF8D8DFE804F0E6
:1013000006470552055E93053AA7F0E798F8740280
:1013100001380228EBD8022BE9D1D8F87C0203224D
:101320004146002808BF012241F80C2F81E1202A04
:1013300007D1D8F88C02614682684046BDE8F84380
:101340001047002C00F09D80012C00F0B080032C91
:10135000CDD198F87422032A40F0AD80BEF1000F81
:1013600027D141F08000802823D013BB404601F0F4
:10137000B3FD1EE0012BBAD198F87402411E022978
:1013800080F0DF800020414641F8080FDEE098F849
:10139000740201380228AAD8BEF1010F40F07F8103
:1013A000002004E0BEF1010F40F079810120C8F86F
:1013B0007C024046BDE8F84301F06EBC42EA0300FF
:1013C00000047FF494AFBEF17F0F3FF690AF98F822
:1013D000740203283FF48BAF09F07F0488F876424B
:1013E000D8F8980290F8BC13012911D080F8384041
:1013F0000168D1F8002822F4FE62C1F80028D1F873
:10140000002842EA0412C1F80028002180F8BC1329
:10141000404601F041FC002C0CBF0120022088F85E
:101420007402BDE8F883701E062800F2BF80DFE872
:1014300000F00493A1BDBDAFB900D8F8881298F8A8
:1014400010000A680DF102019047014616E1C44CF4
:10145000B9F1020F84F80090BFF449AF98F8740214
:10146000032800F0A880022840F0BD80B9F1000FE9
:101470009FD00320494688F874024046C8F804907B
:10148000ABE098F87402032826D002287FF42FAF2F
:10149000002900F0C48080297FF429AF01F07F008B
:1014A00000EB800008EB800000F11401BFE098F829
:1014B0007422032A28D0022A7FF419AF41F0800059
:1014C00080283FF414AF404601F006FD40468021DD
:1014D000BDE8F84301F000BD01F00F0211F08000FB
:1014E00002EB820208EB820240F08880D2F84421AD
:1014F000002A3FF4FCAE01F07F0202EB820208EB0F
:10150000820202F5A07284E0BEF1000F18BFBDE8B0
:10151000F88348063FF44DAFD8F8980201F00F0267
:1015200043689A423FF645AF090600F1CC80C2EB12
:10153000C201002300EB810181F8FD3101F5FE714C
:10154000C9E003287FF4D3AE08F10401404601222C
:10155000BDE8F84301F096BB98F81010D8F88C025B
:1015600000290CBF816AC16A0DF10200884701465B
:10157000022082E0B9F1050F18D8DFE809F003D1A5
:10158000D7DDE3E9D8F8881298F810004A6859E7DF
:1015900098F8100050B9D8F88C02416B0DF1020098
:1015A000884752E798F8100000285ED0404601F0C6
:1015B0005EFBBDE8F883B9F1000F77D0D8F80400DE
:1015C00048453FF4F6AED8F88C124A68C1B240469E
:1015D000904721784046C8F8041001F0ECFC02283E
:1015E0003FF485AEE5E6404601F041FBD8F88C02B9
:1015F000494642684046BDE8F84310479269002AD0
:101600003FF475AE01F07F0202EB820208EB82022A
:10161000143241F08003802B0DD100201DE001F039
:101620007F0000EB800008EB800000F5A071002037
:101630000860404614E001F07F01D8F89832002895
:10164000C1EBC10103EB810101F13E0308BF01F5CC
:10165000FF7318780028E0D0012010604046114642
:101660000222BDE8F84301F00DBBD8F88C02016BF3
:101670000DF102008847014607204870BDF80200BE
:1016800050B1B8F8862262B1904238BF0246404657
:10169000ADF8022001F0F6FAB8F8860208B1BDE80C
:1016A000F883404601F0F8FABDE8F8830020494687
:1016B000C8F80400022088F87402D8F88C02426846
:1016C0004046904775E6C2EBC201012300EB810161
:1016D00081F83D303C3100230A708B7090F8BC33A8
:1016E000012B3FF466AE0123520180F8BC334F78E2
:1016F0000368012F14BF03F5306303F510639F588F
:1017000027F400179F50C97801F0FE01022902BF9B
:10171000D15841F08051D150002180F8BC1348E6E7
:10172000D8F8881298F810008A688BE6D8F88812E2
:1017300098F81000CA6885E6D8F8881298F8100062
:101740000A697FE6D8F8881298F810004A6979E6A5
:10175000D8F8881298F810008A6973E6B805002056
:10176000A00300201CB504460068416882684B064F
:1017700005D502F04103012B01D1216C05E00B06D8
:1017800007D512F0020304D0616C2046BDE81C406E
:1017900008478B0660D512F4B0735DD012F0400399
:1017A00016D094F85130032B07D100210191C16864
:1017B00001918068019001981CBD636D43F00403A2
:1017C000636500230193C368019383680193019BC0
:1017D00002F4807312F020020CD0626D42F001021C
:1017E00062650022019282680192026822F0400242
:1017F0000260019A43B1626D42F008026265002204
:10180000019282680192019A626D2AB34268890747
:1018100022F0E00242604FF0010284F851201BD018
:10182000416821F003014160E06C40B10B49016562
:10183000FEF768FD18B1606D40F040006065A06C77
:1018400050B106490165FEF75DFD002808BF1CBDCB
:10185000606D40F0400060651CBD00BFC1280008FD
:10186000B0B55C4CA068002865D16168B1F5827F95
:1018700061D1042084F8510094F85000012800F050
:10188000A880012084F8500094F85100042802D068
:10189000012840F09B8094F8510000254E4BDFF862
:1018A0003CC104281CBF052084F851006565262032
:1018B000E086E087A086A087D748C4E9105500F1EC
:1018C0000C022263A26394F85110E06CC0E9133556
:1018D0000429444B444908BF6346DFF804C108BFEC
:1018E0006146C0E90F31E38F21680C31FEF776FEC7
:1018F000002853D12268506840F0010050600C323B
:10190000A06CC0E91355C0E90F55E38E216BFEF7BB
:1019100065FE002842D12068016849065EBF016863
:1019200041F040010160416841F02001416041689F
:1019300041F0020149E094F85010012908BFB0BD00
:10194000012184F8501094F8511001293ED104214E
:101950002622B0F5004F204B84F851104FF00001C3
:101960006165E287A287AC4AC4E91011A18602F141
:101970000C02A263E186256802BF286820F480403B
:101980002860E06CC0E913311449154BC0E90F130E
:1019900005F10C01E38FFEF721FE38B1606D40F0D8
:1019A00010006065012084F851000FE02068016894
:1019B00049065EBF016841F040010160416841F0A5
:1019C00020014160416841F001014160002084F83C
:1019D0005000B0BDC0090020CB280008ED28000849
:1019E000E72800081D2B0008E928000810B31CB5E3
:1019F000044690F83D0090BB0020354A84F83C0036
:101A00002168914218D03348814228D100200190AA
:101A10003148016841F4003101600021006800F4A0
:101A20000030019001981920FFF764FB2B484FF01C
:101A3000007113E00120704700902748016841F4CD
:101A4000802101600021006800F48020009000984F
:101A50001A20FFF74FFB21484FF080610160022000
:101A60001F4984F83D0020680268B0F1804F13D010
:101A70001C4B984210D01C4B98420DD01B4B9842E7
:101A80000AD0134B98420BD0194B984208D0114BF7
:101A9000984205D0884207D1A36822F070021A4309
:101AA000236922F440721A43A36922F0800288421B
:101AB00042EA03020260E268C2626268826204BFB4
:101AC00062690A6301214161002084F83D101CBD58
:101AD00000480140004401404438024000E100E079
:101AE000000001400004004000080040000C0040DD
:101AF00000400140C16841F00101C160816801F00E
:101B0000070106291EBF016841F00101016070470D
:101B100070B5044600680169890744BFC1685FEA7F
:101B2000817137D40169490744BFC1685FEA4171D7
:101B300037D40169090744BFC1685FEA017137D42E
:101B40000169C90644BFC1685FEAC16137D4016950
:101B5000C9071CBFC1685FEAC17137D101690906B5
:101B600041BFC1685FEA01616FF0800101610169F5
:101B7000490641BFC1685FEA41616FF04001016100
:101B80000169890641BFC1685FEA81616FF0200188
:101B9000016170BD6FF0020101618169002121774F
:101BA000C0E76FF004010161816900212177C0E77E
:101BB0006FF008010161C16900212177C0E76FF072
:101BC00010010161C16900212177C0E7DE4D6FF08E
:101BD0000101016105F13400844212D0B34884420E
:101BE00017D12E786868312810D1152E0ED8002014
:101BF0006860D44800EB861000F0EAF8701C28708A
:101C000007E0064841780131417002E0034800F0E6
:101C1000DFF82068A2E700BF50000020100000207D
:101C2000FEE700000148FEF7FFBD00BF640500208D
:101C300010B5806B446B90F83DC00CB10021E1639E
:101C4000816B09B10022CA6302684FF0000E002CBC
:101C5000136823F480631360A0F82AE001D0C4F86D
:101C600050E009B100230B65116821F001011160FA
:101C700090F83D10602907D1202180F83D10002107
:101C800080F83E10016410BD0CF0280128290DD108
:101C9000116841F001011160116841F48061116027
:101CA00000210163282180F83D1010BD202180F81B
:101CB0003D10002180F83E1010BD016D39B1016D5D
:101CC00001290FD10168826CD2B20A611BE0C26C9B
:101CD000816C012A13D10268C9B21161016D023110
:101CE00001657047016D02291FD190F83D1022292E
:101CF0000DD10068016841F480710160704702688D
:101D0000C1F307211161016D01310165704790F840
:101D10003D10212918BF7047426A016812F8013B43
:101D20000B614262418D013941857047FEE7000039
:101D300003480168090644BF80218170704700BFD5
:101D40000C38024080B502A000F0AEFF1F4880BDF5
:101D500048494420436F6E6669670000122008807E
:101D6000004870472840000880B502A000F09CFFA2
:101D7000164880BD48494420496E746572666163A7
:101D80006500000004200880004870476440000897
:101D900080B502A000F088FF0C4880BD4E696E74CB
:101DA000656E646F20436F2E2C204C74642E0000EF
:101DB00080B502A000F078FF044880BD50726F200B
:101DC000436F6E74726F6C6C65720000C40000200B
:101DD0000246094890F87412032918BF7047D0F8DA
:101DE0009002017B01B17047012140230173024839
:101DF000812101F0BCB800BF040100201A20088036
:101E00000048704734410008D0F890020021017367
:101E10004D484178012905D0052905D0032905D170
:101E2000042102E0022100E00621417000207047F9
:101E300070B5454D04466878023805282ED8DFE88D
:101E400000F0032D052D1022032000E0052068700E
:101E50003C482E7800EB8610FFF7BAFF701C287004
:101E60001CE00720687037482E7800EB8610FFF7DB
:101E7000AFFF701C2870686BFFF73CFE0B480068D2
:101E8000FFF738FE0AE001F00F01D4F89802C1EB29
:101E9000C10100EB8100D0F814026860284A204696
:101EA0000121402300F0F0FF002070BD180A00203F
:101EB000B0B58121044600F025FF2046012100F045
:101EC00021FF0025C4F85851E562D4F8900218B1FA
:101ED00002F036F8C4F890520020B0BD29210180EC
:101EE00000487047FC3F0008B0B581210322402321
:101EF000044600F067FF204601210322402301250C
:101F000000F060FF1020C4F85851E56202F040F87C
:101F10000028C4F890020FD00025094A012140236F
:101F20000573204600F0B0FF0648FFF751FF064852
:101F300040F20111018000E002252846B0BD00BF3B
:101F4000A10300208841000850000020E0B50023D4
:101F50008C46D0F89012ADF806309CF8003013F0A3
:101F600060030FD0202B45D19CF80130023B092B98
:101F700040D8DFE803F0053A3F3F3F3F3F3F181CA2
:101F8000043132E09CF801300B2B14D0062B1AD010
:101F90000A2B25D073BB90F8741203292AD10DF1B6
:101FA0000601022222E09CF80300486020E09CF831
:101FB000020008601CE090F87422032A1AD19CF8F1
:101FC0000200886014E09CF80310212917D0222910
:101FD00010D1BCF806200E49CB2A28BFCB2205E041
:101FE00090F87422032A05D10831012200F04AFE3C
:101FF000002002E000F03BFE022002B080BDBCF8F1
:1020000006200249092A28BF0922EFE758400008A4
:10201000684000082DE9F04F87B0DFF838783B685A
:102020005869C00740F0D38358699969014200F0AC
:10203000CE83586999690840800742BF586900F00B
:1020400002005861586999690593084000031846D1
:1020500040F1E780D3F81808D3F81C1807F5057885
:102060004FF0000A4FF430660840040CD84883460D
:10207000002C00F0D580E00700F0C38038683518E8
:10208000A968D0F8142802EA01095FEAC9716DD085
:10209000991901228A60016CA8683A69012A2CD139
:1020A00002073CD482065FD410F0280F5ED15A4656
:1020B0000BF10102914202D310F4004051D158E9D2
:1020C00004012A696FF3DF42821A0844C8F800202D
:1020D00048F80C0C5FFA8AF0FFF75AF8DFF87477CB
:1020E000059BD7F8100250EA0A003FD1386807F57F
:1020F0007172012101F000F82FE05A460BF5807251
:10210000914226D101042CD4800644BF2020A8602F
:102110005FFA8AF0FFF73CF8DFF8387717E05A46A5
:102120000BF10102914205D310F400401CBF4FF4A3
:102130000040A860FFF778F8DFF81807012107468C
:10214000006807F5717200F0D7FF0820A860059BB2
:102150000CE05FFA8AF0FFF71BF8059BDFF8F476D6
:1021600004E04FF4004000E02020A8605FEA09701E
:1021700028D5396870180D6C81683A69012A05D133
:102180005D455A4606D8FFF74FF815E00BF580720B
:1021900095423DD1090444BF4FF400418160FFF7EF
:1021A00043F8DFF8B0763869012807D1386807F5B9
:1021B0007172012100F0A0FFDFF89876059B0821DD
:1021C000981981605FEAC96042BF98191021816047
:1021D0005FEA89600ED53869012808D1386807F5AB
:1021E0007172012100F088FF059BDFF8687698196D
:1021F000202181605FEA894042BF98194FF4005165
:10220000816008F11C08203664080AF1010A2FE7F2
:102210005F46FFF709F8DFF83C765D45C3D8CDE7A8
:102220003868416982691140490340F13F81D0F823
:102230001818D0F81C0803F51069CDF8089008406C
:1022400085B200200690002D00F02F81E80700F0F5
:10225000F6803868D0F81018D0F83428069E06F0BA
:102260000F0400EB46107601E240D0F80809D201D5
:10227000D2B2114301EA00085FEAC8706AD00122B5
:10228000D3F8341802FA04F021EA0000C3F8340845
:1022900009EB060082603869012808D10698C0EB76
:1022A000C00007EB8000D0E9111211448164069848
:1022B000D7F804A400060FD0DAF88C024269CAB33A
:1022C0009AF87402032835D10698C1B25046904757
:1022D000059BDFF880752DE0DAF86C02E0B1042888
:1022E0001AD002281FD1DAE90820824240F2AC80DD
:1022F0000699101A82B2C1EBC10107EB8101896C0A
:10230000CAF82000504600F0ADFC504600210022E3
:10231000002300F0B9FD03E05046802100F0DCFD11
:10232000059BDFF830759AF87802012804BF002079
:102330008AF87802386D069908430BD1386901286C
:1023400008D1386807F57172012100F0D5FE059BB0
:10235000DFF800755FEA087042BF09EB060008214C
:1023600081605FEAC86042BF09EB0600102181600E
:1023700004945FEA486042BF09EB06004021816097
:102380005FEA887042BF09EB0600022181605FEAC4
:10239000086054D50698C0EBC00007EB800BDA4606
:1023A0005AF8500F544654F8042F904247D3D7F8A8
:1023B00000805BF8441FA0EB02090395894588BFA4
:1023C000894606EB08010BF1040701F510651DE0D5
:1023D0000A30544FDFF87C64DBF80030A0EB0209D0
:1023E0003968367C9945009688BF994606981FFA49
:1023F00089F3C2B2404600F086FF3868484438602E
:10240000206800EB09022260DAF80000AB6909F1EC
:1024100003019BB2B3EB910F28BF9042DAD8059B22
:10242000DFF83074DDE90295904208D80499012064
:102430008840D8F8341821EA0000C8F83408069813
:102440006D0801300690FEE6DAF81C10814211D3C7
:10245000B1FBF0F202FB101060B9DAF870028142B1
:1024600008D250460021002200F0FCFB0020CAF8F0
:1024700070024AE7DAF88C02C16829B19AF874024E
:10248000032801D1504688475046802100F024FDA2
:102490000520002100220023CAF86C02504600F0FB
:1024A000F3FCDFF8B073059B3DE73868416982694A
:1024B0001140B1F1FF3F17DCD3F8041821F00101FE
:1024C000C3F8041897F8F413012903D1002187F801
:1024D000F41305E0D7F8041491F8752281F87422FA
:1024E000416901F00041416141698269114009057A
:1024F0001ED5D3F80818C90716D0D7F8041404233A
:1025000091F8742281F87432059B81F87522D0F815
:10251000001E41F00101C0F8001E396A21B1CE4908
:102520000A6842F006020A60416901F400614161F3
:10253000416982691140C9044CD5D3F804181C467E
:1025400021F00101C3F8041800F0BCFEC14D04F5F0
:10255000306104F50060C14BC14C4FF67F376A68AB
:102560000BE0CF50013A0E5926F400160E518F6041
:102570000E6826F400160E602031002AF1D1C169E0
:1025800041F00111C161296B41B1D0F8841041F0D3
:102590000B01C0F8841000F1440106E0416942F2E9
:1025A0002B021143416100F110010A6842F00B0255
:1025B0000A6005F57172016821F4FE610160297CF1
:1025C000286800F099FDA34F3868416901F48051F3
:1025D0004161059B41698269114089046AD5D0F83F
:1025E000001940F2FF729143C0F80019D0F80818A2
:1025F00001F00601042902BFD0F8001941F00301DF
:10260000C0F80019D0F8041841F48071C0F804181B
:10261000D0F8081811F0060110D041F00401062985
:102620000ED10221904A914BF9608E4949680A44C3
:102630009A4280F0CF804FF4705105E0002100E015
:102640000F21F9604FF41051C26801244023002685
:1026500022F47052C260C26811430022C16000219E
:10266000D7F80454402728462C7400F0ABFB2846CA
:10267000802100224023C5F85071C5F8444100F084
:10268000A1FB85F874426F62AC61C5F86C62C5F855
:102690007C626E60D5F8900228B1D5F88C020021DA
:1026A0004268284690476B4F3868416901F40051F1
:1026B0004161059B416982691140C9063FD5816925
:1026C00021F0100181611C6AC4F3434004F00F053E
:1026D00006281DD002282DD147F6F070044029D0DD
:1026E000C5EBC500220907EB80051846D5F808128E
:1026F00000F0FCFDD5F80802D5F81412554F00EB98
:102700001410C5F8080201EB1410C5F8140211E00A
:1027100007F571711846082200F0E8FD4D4FC5EB32
:10272000C50007EB8000D0F81412C4F30A1211445C
:10273000C0F814123868816941F010018161416963
:1027400082691140090711D5D7F8041491F8742251
:10275000032A07D1D1F88C22D2691AB108469047D2
:102760003C4F3868416901F0080141614169826963
:102770001140C90242BF416901F4801141614169C0
:1027800082691140890242BF416901F4001141612F
:10279000416982691140490042BF416901F08041AD
:1027A0004161416982691140490710D54468610758
:1027B0000AD5D7F80404012180F87412D0F88C22CD
:1027C000017952689047386841682143416007B0F9
:1027D000BDE8F08F264A274B0A449A4202D24FF4B2
:1027E000605131E7244A254B0A449A4202D24FF401
:1027F000505129E7224A234B0A449A4202D24FF40D
:10280000405121E7204A214B0A449A4202D24FF418
:10281000305119E71E4A1F4B0A449A4202D24FF424
:10282000205111E71C4A1D4B0A449A42FFF40AAF9B
:102830001B4A1C4B0A449A4202D24FF4005103E750
:10284000194A1A4B0A444FF4C0519A4238BF4FF408
:10285000E051F9E6B805002010ED00E008FEFFFFAA
:1028600000FEFFFF08000020405327FF00350C004A
:10287000401E1BFF40420F0000DC0BFF804F120088
:10288000808CF9FE20D6130060B6E5FE60E31600EA
:1028900000D3CEFE40771B00C05BB3FEC091210089
:1028A00000CA91FE20753800E05459FEE09C4100BA
:1028B000704700000148FEF755BF00BFC009002067
:1028C000806B0021C187C1867047806B01684A68B0
:1028D00022F003024A60416D41F01001416501217F
:1028E00080F8511070477047704700002DE9F04F95
:1028F0008DB0DB4D846BAA6800680068C00531D4D8
:102900002068416821F020014160416821F0030105
:1029100041606168B1F5827F0DD1A168B1F5004FCA
:1029200002D0B1F5806F09D10368B1F5806F23F053
:102930004003036002D12046012101E020468021AE
:1029400000F02EF928B1606D40F020006065202075
:1029500060650020E087012084F85100606D002848
:1029600040F0D68095F821002A7B95F81FC095F895
:102970001EE095F81D8095F81C90AE7C95F810A08F
:102980006F7BAB7BE97B0A90687E002A0990A87D6B
:102990000690287D0390E87C0290687C0190B5F950
:1029A00022000890B5F924000790B5F92E00059093
:1029B000B5F930004FF00005049057484571A0F874
:1029C0000350154642EA070218BF0125EC00002F0C
:1029D00004F1040408BFEC00002B0D4618BF0234BC
:1029E000002918BF01251A4325440CBF0029C570D2
:1029F0004946B9F1000F18BF0121CA000432B8F1ED
:102A0000000F08BFCA00BEF1000F614618BF0232B6
:102A1000BCF1000F18BF012102EB010B49EA0801CC
:102A200051EA0E010CBFBCF1000F80F805B0514611
:102A3000BAF1000F18BF0121002E18BF0231019F0B
:102A4000002F18BF1031039B5AEA06020CBF002F5B
:102A50000171029A002A18BF4BF0400B0A9C1A43DE
:102A600005D0002B18BF4BF0800B80F805B0069AFC
:102A700012B145F04002C270049A1311059A171161
:102A8000079A1611089A1511099A002A18BF41F0E1
:102A90000801224304D0002C18BF41F00401017149
:102AA000ADF8323000210BAA40F6FF73ADF830705C
:102AB000ADF82E60ADF82C500EE032F8117007F52D
:102AC00000673EB29E42A8BF1F463EB2012ED8BF4D
:102AD000012722F8117001310429EED1BDF82E3002
:102AE000BDF82C10BDF830201F09817142720772A9
:102AF000BDF832703E09C672C1F3032141EA0311E9
:102B0000C171C2F3032141EA07118172FEF7A8FEE9
:102B10000DB0BDE8F08F00BF100000201CB550497B
:102B2000846B8A6800680068C00548BF1CBD2068C7
:102B30001A4B416821F02001416017494968B1FBF7
:102B4000F3F14FF47A73594301916168B1F5827FD3
:102B50000DD12046802100F023F880B1606D40F057
:102B600020006065606D40F02000606507E001991D
:102B700029B101990139019181680906F7D42068CA
:102B8000416821F0030141600020E086E0870120D8
:102B900084F85100606D1CBD0800002000366E01F5
:102BA00080B5D0F800E0DFF8B8C0DEF808300B40A0
:102BB0008B421CBF002080BDDCF808309B1A642BC0
:102BC000F3D3DEF8041021F0E001CEF804104168E0
:102BD000B1F5827F0CD18168B1F5004F02D0B1F51B
:102BE000806F05D1DEF8001021F04001CEF8001012
:102BF000816AB1F5005F0BD1DEF8001021F40051BD
:102C0000CEF80010DEF8001041F40051CEF80010AC
:102C1000002180F85010012180F85110032080BD60
:102C2000704700000E48816801318160704700BF25
:102C30000548D0F8801041F47001C0F880104FF0C2
:102C400000610160704700BF08ED00E00148FEF739
:102C50005FBF00BF180A002001483430FEF758BF9C
:102C60005000002013460A46002100F080B910B53C
:102C70008021044600F030F920460021BDE81040D4
:102C800000F02AB913460A460221C0E90733C0F80A
:102C90006C12002100F06BB9042100220023C0F85F
:102CA0006C12002100F063B980B538B34FF0000C0E
:102CB000034602E001330CF1010C1A78002AF9D125
:102CC0005FFA8CF30222DFF838C04FF0030E02EBFC
:102CD00043030B8001218CF800300AE0D3B20130AD
:102CE0004FF0000E0CF8031042F00101931CC9B222
:102CF0001A460CF801E001780029EFD180BD00BF31
:102D0000C4000020D0F8980201F00F02090609D48F
:102D1000C2EBC201002300EB810181F8FD3101F516
:102D2000FE7107E0C2EBC201012300EB810181F8D3
:102D30003D303C310A7090F8BC33012B08BF70471E
:102D4000B0B54FF0010C80F8BCC30CFA02FE4C7811
:102D500003681A49012C12D1D3F83C48184D24EAD3
:102D60000E04C3F83C480CFA02F403EB421265EA85
:102D70000405D3F81C4802F51062254012E0D3F890
:102D80003C5801F1707125EA0E45C3F83C584FF4E8
:102D90008035D3F81C48954003EB421202F53062AF
:102DA00024EA0505C3F81C58136819401160002176
:102DB00080F8BC13BDE8B040704700BF007833EC2A
:102DC0000000FFFF10B5D0F898E201F00F0C0806E4
:102DD00009D4CCEBCC0000210EEB800080F8FD1173
:102DE00000F5FE7108E0CCEBCC0001210EEB800079
:102DF00080F83D1000F13C018B60CA7081F800C082
:102E0000487808B1A1F806C0022A04BF00240C715A
:102E10009EF8BC13012908BF10BD012101288EF8BE
:102E2000BC1301FA0CF4DEF8001011D1D1F81C0823
:102E30002043C1F81C084FEA4C1001F510610C58F2
:102E400024041BD46FF3DF23445843EA8C530FE070
:102E5000D1F81C0840EA0440C1F81C084FEA4C10A5
:102E600001F530610C58240408D444586FF3DF2373
:102E7000234343EA8242034B1A43425000208EF818
:102E8000BC0310BD0080001080B501F00F0CD0F81D
:102E900098E20021CCEBCC000EEB8000C0E984313D
:102EA000C0F8082280F8FD1180F8FCC100F5FE7121
:102EB000DEF81030012B08BFC0F80C22DAB2DEF8C1
:102EC0000000BCF1000F03D0BDE8804000F040B925
:102ED000BDE8804000F098B810B5D0F8984201F0F5
:102EE0000F026068824288BF10BD080609D4C1EB9A
:102EF000C100002104EB800080F8FD1100F5FE7197
:102F000008E0C2EBC200012104EB800080F83D1014
:102F100000F13C0101200A70887094F8BC33012B49
:102F200024D084F8BC032068497800EB42130129BF
:102F300019BF03F53061D3F8003B03F51061D3F8F6
:102F400000392AB1002B03DB0B6823F080430B60B0
:102F50000B68002A43F400130B6004D1217C04F5B4
:102F6000717200F0C9F8002084F8BC0310BD10B5E0
:102F700001F00F0CD0F898020024CCEBCC0100EB50
:102F8000810E714601F83CCFC1E905340123CA60C6
:102F90004B700369012B08BFCEF84C20DAB20068F1
:102FA000BCF1000F03D0BDE8104000F0D1B8BDE87F
:102FB000104000F029B8D0F88C223AB180B51268E0
:102FC0009047002818BF0120400080BD02207047B4
:102FD000C5494FF0FF3201328A4212D80369B3F17A
:102FE000FF3FF8DC026942F0010202614FF0FF325C
:102FF00004E00369DB0704BF0020704701328A4206
:10300000F7D90320704700BF70B54B7891F800C026
:10301000012B21D100EB4C14D1F814E0354D04F50F
:103020001063D4F81069324CBEF1000F39D035402E
:103030001D611D69254004F100541D618D68AE4578
:1030400084BF4D61AE4604EA0E041D6945F40025B7
:103050001D611D692C432FE000EB4C10244CD0F86F
:10306000103B6FF31203C0F8103BD0F8103B6FF326
:10307000DC43C0F8103B00F530634E69886806B148
:1030800048611E69012A46F400261E6104F10056BB
:1030900000EA06001E6940EA0600186112D1C868FD
:1030A0000EE026404FF0000E1E611E6946F4002619
:1030B0001E611E6906EA0504012A1C6105D1086922
:1030C00000B158614FF004410EE01968BEF1000FE5
:1030D00041F00441196008BF70BD0CF00F010122DE
:1030E00000F6340302FA01F118680843186070BD55
:1030F000FFFF07E00000F8FF10B5036C134CA3427C
:1031000003D3D0F8003B002B1EDB00230129C0F8BD
:10311000103BD0F8103B43F40023C0F8103BD0F82C
:10312000103B43F01803C0F8103BD0F8103B43F0BD
:10313000C043C0F8103B07D1C0F8142BD0F8001BD7
:1031400041F08021C0F8001B10BD00BF0B30544F70
:10315000BCB54B7891F800C0012B2ED100EB4C147C
:10316000D1F814E004F51063D4F81049BEF1000F53
:1031700049D06FF312041C611C696FF3DC441C61BD
:103180008C680EEB0405013DB5FBF4F44C4D05EAEB
:10319000C4441D692C4375461C616FF3DF451C69EF
:1031A0002C431C61CC78012C38D11C6924F0C0441C
:1031B0001C611C6944F000542FE000EB4C13D3F861
:1031C000105B6FF31205C3F8105BD3F8105B6FF35D
:1031D000DC45C3F8105B03F530634C69D1F808C0D7
:1031E000D4B304EB0C05364C013DB5FBFCF504EA09
:1031F000C54E1C69ADB205FB0CFC44EA0E046FF32E
:10320000DF4C1C6130E06FF3DC441C611C6944F44A
:1032100000241C611C696FF312041C61012A01D196
:103220000A6928E01C6844F004441C60CC78012C36
:1032300036D1D0F80848E4054FF0805458BF4FF01D
:1032400000541D682C431C601FFA8EF3C96800925D
:10325000624600F058F8BCBD1D696FF3DF4C45EACB
:103260000C054FF4002C1D611D69012A45EA0C056F
:103270001D6102D1CA6802B15A61C97801290AD117
:10328000D0F80808C0054FF0805058BF4FF00050EC
:10329000196808431860186840F004401860BCBD05
:1032A000BEF1000F08BFBCBD0CF00F01012202FAF5
:1032B00001F1D0F834281143C0F83418BCBD00BF68
:1032C0000000F81F4FF48461074A01614FF0FF319D
:1032D0000131914284BF0320704703699B065CBFA4
:1032E00000207047F4E700BF3F0D030003324FF4A6
:1032F000805C920804E050F80C30013A41F8043B3D
:10330000002AF8D17047DDF800C0BCF1000F00D0F2
:10331000704703334FEA023C00F580509B08002BB6
:1033200008BF704751F8042B013B4CF80020F6E72A
:10333000FEE7000088B06D4C4FF6FF020025D4F880
:10334000000440F40070C4F80004D4F8000440F411
:103350008060C4F80004D4F8000440F48070C4F81D
:103360000004634801681140624A11430160002073
:10337000FDF79AFE03956049606C40F480406064FC
:10338000606C00F48040039003980395206C40F03B
:1033900080502064206C00F08050039003980395C7
:1033A000206C40F080502064206C00F0805003902E
:1033B00003980395514D086840F440400860086840
:1033C00000F4404003900398A06800F00C0004282B
:1033D0001AD0A06800F00C00082802D160684002F2
:1033E00012D4206840F480202060206840F48030AF
:1033F0002060DFF8B00A81682268920305D48268F1
:10340000521A642AF8D920E02068A06800F00C0065
:10341000082801D1A06818E000206861DFF8840A5C
:1034200081682268920104D58268521A022AF8D96A
:103430000BE0334961600121696181682268920172
:1034400003D48268521A022AF8D9D4F8000400077B
:1034500008D1012084F80004D4F8000400F00F0023
:1034600001287BD1A06840F4E050A060A06840F43F
:103470006040A060A06820F0F000A060206880019B
:103480006CD5A068022141F2883261F30100A0608E
:10349000DFF8100A8168A36803F00C03082B04D03E
:1034A00083685B1A9342F6D958E0D4F8000410F010
:1034B0000E0F08D0012084F80004D4F8000400F0B6
:1034C0000F0001284AD1A06820F4E050A060A06855
:1034D00020F46040A060A06800F00C00082815D01F
:1034E00004280CBF074808482BE000BF0038024002
:1034F0000CED00E00003FA05007000404C0047426C
:103500000C304104001BB7000024F40062686068BE
:103510000023400202F03F02CE485CBF42F200406E
:10352000C0F2F4006168C1F38811A0FB0101FCF74F
:1035300061FE61680222C1F3014102EB4101B0FB6F
:10354000F1F0A1680FF66012C1F30311515CC8409D
:10355000DFF8641948600868FDF7A6FD4FF0010A1E
:103560004FF00051BC4ADFF85C9903AFC5F800A0EA
:10357000002507950295206B40F004002063206B26
:1035800000F00400029002980295206B40F0800049
:103590002063206B00F08000029002980295206B5F
:1035A00040F001002063206B00F0010002900298BF
:1035B0000295206B40F002002063206B00F00200B7
:1035C00002900298A54881614FF4802181504FF408
:1035D00000510695CDE904A503913946C847A04896
:1035E00005953946CDE903A09E48064600F5C8304A
:1035F0000090C84706F5CA3B4FF0040839460695C7
:10360000CDE904A55846CDF80C80C847DFF8B87856
:1036100006200021B847944E4020002130600395D9
:10362000206B40F400102063206B00F40010039026
:1036300003980395206B40F480002063206B00F416
:103640008000039003980B20B8474FF400600021DE
:1036500030600C20B8474FF4805000213060382093
:10366000B8474FF08070002170603A20B8474FF0A3
:103670008060DFF85C784FF480427C4970607C4861
:1036800087E82300C7E90352C7E90555C7E907558D
:1036900097F83D20002A60D10DF10C09142187F81C
:1036A0003C504846FCF7DEFD02954946206B40F051
:1036B00002002063206B00F0020002900298CDF817
:1036C0001C800320CDE905A0122004904FF4407027
:1036D00003905846FCF7DCFF0295B1466549DFF8D8
:1036E000F4674FF48068206C8A4640F40010206430
:1036F000206C00F4001002900298316014214FF009
:103700000070C6E9010506F11400C6E90358FCF78C
:10371000A9FD3046FCF7C0FEBE63B763DFF8B867AB
:103720000AF11800C6E90005402006F1080181E809
:10373000210106F114001421FCF794FD3046FCF73A
:10374000ABFE1F2000217E63B763FDF7D3FC4FF073
:103750000040C9F80000D7E9000124220FF27C766E
:1037600087F83D20026822F001020260026842F4FC
:1037700000420260026822F400420260DFF838274B
:103780005268A368C3F38223F35C3B4E22FA03F32F
:103790003A4A93424FF0000238BF0122B342384EFA
:1037A00038BF0125B14238BF1546002D40F09F803B
:1037B000344A4668344DB3FBF2F226F03F06A94284
:1037C00046EA02064660066A26F03F0612D8013233
:1037D0004900324302625A1E4CF6FF73B2FBF1F10C
:1037E00001316FF31F31042998BF0421C26922EA15
:1037F000030C54E04FF49675013B6A434FF47A751D
:10380000B2FBF5F2013232434CF6FF760262C26936
:1038100022EA060CBE6846B1192504224D43B3FBCB
:10382000F5F5013562F31F3506E001EB4105B3FB09
:10383000F5F501356FF31F352A0509D036B3192286
:1038400051430422B3FBF1F1013162F31F3124E053
:10385000012124E0001BB70018FCFFFF0008024014
:10386000000011100070004000E100E0801A060026
:10387000005400401060024000093D0080841E009A
:10388000A186010040420F00A086010001EB41012A
:10389000B3FBF1F101316FF31F3141F4004141EA13
:1038A0000C01C1610168D7E9072321F0C001114370
:1038B00048F2FF321943016081689143D7E903233D
:1038C000194311438160C168D7E9052321F0FF0145
:1038D00011431943C160016841F0010101600020FA
:1038E0002021386487F83D10386387F83E00EE48A1
:1038F000DFF8F075142100F54046381D3E60FCF7F6
:10390000B1FC4FF400700A214FF0000BB861C7E919
:1039100008BBC7E90AB197F8511069B100214FF00F
:10392000000E4FF0000A4FF0000C002300254FF06E
:103930000009019100216CE003AE142187F850B01A
:103940003046FCF78FFCCDF808B03146606C40F48F
:1039500080506064606C00F4805002900298CDF852
:1039600008B0206B40F001002063206B00F00100E4
:1039700002900298052007900320CDE905B00220AF
:103980000490E02003900098FCF782FEC74DDFF81A
:1039900058654FF0C0604FF4806805F58061C6E956
:1039A000001006F114001421C6E902BBC6F810800D
:1039B000FCF758FC3046FCF76FFDFE64B763DFF898
:1039C0002C6540204FF0806105F58662C6E9002134
:1039D000C6E9020B06F114001421C6F81080FCF7AA
:1039E00041FC3046FCF758FD23200021BE64B7633C
:1039F000FDF780FBAE4908204860D7E908E0D7F81A
:103A000028900190D7E90061D7E90253D7E904CAA9
:103A1000B8690222294387F851201943D6F800805B
:103A200041EA0C0141EA0A014FF0040A28F0400281
:103A30004FF00108326000F400720AEA10401143AE
:103A4000FA69114341EA0E0141EA09013160019925
:103A500008437060F06920F40060F0619248C7F894
:103A600054B040F2E736054600F55441DFF834041F
:103A700040F8341FDB21C0F818B0C0E9016BC0E981
:103A8000031B87F85180FDF7B1FFDFF8640440F2B3
:103A9000DF1105F55842C0F818B0C0E90021C0E9AF
:103AA00002B6C0F810B0FDF7A1FFDFF84894D9F8CE
:103AB0008C0210B10020C9F88C02DFF83C0489F8B0
:103AC0007482DFF838840025C9F88802022089F85A
:103AD0000050C8F80494C9F89882C8E90B55C8E9A1
:103AE0000605C8E90855C8E903054FF0A040C8E934
:103AF000000A98F8BD0398BB03AE142188F8BC53A4
:103B00003046FCF7AFFB02953146206B40F00100D8
:103B10002063206B00F00100029002980A200790B9
:103B20000320CDE90550022004904FF4C0500390CB
:103B30000098FCF7ADFD606B002140F080006063F1
:103B40000295606C40F480406064606C00F48040DA
:103B5000029002984320FDF7CDFADC4908208860E6
:103B6000032088F8BD03E6480068C0055CBF00205C
:103B7000C8F81000D8F80050A86820F00100A8602C
:103B8000D8F81800D8F81040012818D1D8F8340017
:103B9000A96BDC4A21F480310128A963E96801EAB4
:103BA0000201E960E96821F44011E96002BFE868B8
:103BB00040F48010E8602846FFF70AFA10E0D8F8D1
:103BC0002860E86840F04000E8602846FFF700FA07
:103BD000A96B002E14BF21F4803141F48031A96318
:103BE000012C07D1A96841F00601A960A96841F03C
:103BF0002001A960002840F00581D8F80000C168C4
:103C000021F0C041C160C16841F08041C1603220F3
:103C1000FCF734FDD8F804600020012100220FE0F9
:103C2000C3EBC30508EB8505A5F8423085F83C20B9
:103C300085F83D102865C5E9110085F83F0001327F
:103C4000D3B29E42ECD8002000210EE0C2EBC202AB
:103C500008EB8202C2F81002C2E9810082F8FF017B
:103C600082F8FC1182F8FD010131CAB29642EDD80A
:103C7000D8F82CA0D8E90610D8F80050412200232B
:103C80000190D8E9030B02E045F822300132502AB6
:103C9000FAD1BAF1000F0DD02A6822F400122A607E
:103CA000AA6B42F4002210E0007000401060024055
:103CB00000E100E0AA6B42F40012AA63AA6B22F4AE
:103CC0000022AA63AA6B22F48022AA63002201299F
:103CD000C5F8002ED5F80028C5F8002806D1D5F87B
:103CE0000018002818BF41F0010103E0D5F80008D2
:103CF00040F003012846C5F80018FFF7E3FA102149
:103D0000814A29614FF0FF310131914204D82B697A
:103D1000DB06F9D4002200E00322002142EA000C75
:103D200005F510624FF67F330024C5F81018C5F86A
:103D30001418C5F81C180EE04FF09040002C04F148
:103D4000010408BF4FF00060176800EAE7701060D8
:103D5000116193602032A642EED105F53061002258
:103D60004FF67F3300240EE04FF09040002C04F11A
:103D7000010408BF4FF000600F6800EAE7700860B8
:103D80000A618B602031A642EED1D5F81008BBF154
:103D9000010F20F48070C5F8100810D15B485C4911
:103DA000C5F83008D5F830080843C5F830080020B9
:103DB00045F8180F6FF0804045F8040C0DE0002026
:103DC000BBF1000F45F8180F6FF0804045F8040C68
:103DD00003D1286840F010002860019A28684D49F6
:103DE0000843002A286003D0286840F008002860B3
:103DF000BAF1010F03D12868474908432860BCF194
:103E0000000F3DD0022088F8BD03D8F800008021C3
:103E1000416200204021FDF795F901208021012514
:103E2000FDF790F93D48C9F88C02D9F8984294F80A
:103E3000BC0301281DD0206884F8BC53A16A012965
:103E400006D1A16901291EBF816B41F480318163D4
:103E5000D0F8041821F00201C0F804180320FCF780
:103E60000DFC2068816841F001018160002084F828
:103E7000BC031249124A04208850FDF7F1FCFEE70A
:103E8000002088F83800012088F8BD03D8F8000029
:103E9000D0F8041841F00201C0F804180320FCF720
:103EA000EDFBB2E750000020000000000000000021
:103EB0000102030406070809080000200008024068
:103EC00018FCFFFF91060008F510000800E100E073
:103ED00064050020E40300204404002000000000EA
:103EE00001020304C0090020A404002004050020EE
:103EF000180A0020040100203C400008B8050020FA
:103F00003C000050BFFFBDFF3F0D030000018000DB
:103F10000300010000383C800400004050410008CC
:103F200002E008C8121F08C1002AFAD17047704782
:103F3000002001E001C1121F002AFBD170470000E0
:103F400010B5002821D0114B0022001F196803E092
:103F5000814203D80A4649680029F9D152B1136851
:103F6000841A9C4204D1006818441060104602E094
:103F7000506000E0186039B102680B1A934203D117
:103F80000B681A4402604968416010BD00000020BF
:103F9000F0B50B30154D20F007010024144A0FE056
:103FA00003688B420BD38B4205D95E1A43184768CE
:103FB000C3E9006700E04368136002C004E0021D2B
:103FC00010680028ECD12046002802D1286808B1EA
:103FD0000020F0BD064A07481060074A121A22F076
:103FE0000702C0E9002401202860D7E70400002070
:103FF000000000205C0A0020580C00200902290063
:10400000010100A0FA0904000002030000000921D8
:104010001101000122CB00070581034000080705BC
:1040200001034000080000001201000200000040EF
:104030007E05092000020102030100005D1D000849
:10404000851D0008911D0008B11D0008FD1D000818
:10405000451D0008691D000809211101000122CB3E
:104060000000000004033310050115000904A1013C
:104070008530050105091901290A15002501750179
:10408000950A5500650081020509190B290E1500D6
:1040900025017501950481027501950281030B01CB
:1040A000000100A1000B300001000B310001000BEA
:1040B000320001000B35000100150027FFFF000052
:1040C000751095048102C00B390001001500250709
:1040D0003500463B016514750495018102050919F7
:1040E0000F291215002501750195048102750895A7
:1040F0003481030600FF852109017508953F81037E
:10410000858109027508953F8103850109037508BA
:10411000953F9183851009047508953F91838580AB
:1041200009057508953F9183858209067508953FB5
:104130009183C0001A03300030003000300030009E
:10414000300030003000300030003000310000001E
:10415000E91E0008B11E00084D1F00080000000005
:1041600000000000091E0008311E000800000000C9
:10417000000000000000000000000000DD1E00083C
:10418000000000000000000081010003A395F0CBB7
:104190005894000000000000000000000000000033
:1041A000000000000000000000000000000000000F
:1041B00000000000000000000000000000000000FF
:1041C000000000000000000081020000000000006C
:1041D00000000000000000000000000000000000DF
:1041E00000000000000000000000000000000000CF
:1041F00000000000000000000000000000000000BF
:104200000000000000000000210091008000000874
:104210008000088000800300000000000000000013
:10422000000000000000000000000000000000008E
:10423000000000000000000000000000000000007E
:104240000000000000000000210091008000000834
:10425000800008800080480000000000000000008E
:10426000000000000000000000000000000000004E
:10427000000000000000000000000000000000003E
:1042800000000000000000002100910080000008F4
:1042900080000880008202034803029458CBF09506
:1042A000A303020000000000000000000000000066
:1042B00000000000000000000000000000000000FE
:1042C00000000000000000002100910080000008B4
:1042D000800008800080080000000000000000004E
:1042E00000000000000000000000000000000000CE
:1042F00000000000000000000000000000000000BE
:104300000000000000000000210091008000000873
:10431000800008800090100060000010FFFFFFFF89
:10432000FFFFFFFFFFFFFFFFFFFFFFFF0000000099
:10433000000000000000000000000000000000007D
:104340000000000000000000210091008000000833
:1043500080000880009010506000000D323232FF63
:10436000FFFFFFFFFFFFFFFF000000000000000055
:10437000000000000000000000000000000000003D
:1043800000000000000000002100910080000008F3
:104390008000088000810101A395F0CB589400258E
:1043A0000850726F20436F6E74726F6C6C65720090
:1043B0000000000000680000000000000000000095
:1043C00000000000000000002100910080000008B3
:1043D0008000088000810102596D18D60DFA9CB248
:1043E00072E8A621D3E05063000000000000000046
:1043F00000000000000000000000000000000000BD
:104400000000000000000000210091008000000872
:10441000800008800081010300000000000000000F
:10442000000000000000000000000000000000008C
:10443000000000000000000000000000000000007C
:104440000000000000000000210091008000000832
:1044500080000880008003000000000000000000D1
:10446000000000000000000000000000000000004C
:10447000000000000000000000000000000000003C
:1044800000000000000000002100910080000008F2
:1044900080000880008304480048000000000000FD
:1044A000000000000000000000000000000000000C
:1044B00000000000000000000000000000000000FC
:1044C00000000000000000002100910080000008B2
:1044D00080000880009010806000001850FD0000EF
:1044E000C60F0F3061AE90D9D41454411554C7791A
:1044F0009C33366300000000000000000000000054
:104500000000000000000000210091008000000871
:104510008000088009901098600000120F3061AE92
:1045200090D9D41454411554C7799C333663000094
:10453000000000000000000000000000000000007B
:104540000000000000000000210091008000000831
:10455000800008800990101080000018B2A1FFF7B9
:104560007F000880FFF77FB2A1FFF77F000880FF80
:10457000F77FFFFF000000000000000000000000C7
:1045800000000000000000002100910080000008F1
:10459000800008800990103D600000190C266C59BD
:1045A000B87F33B65E519881361663F9B563FF3232
:1045B0003232FFFFFF00000000000000000000009A
:1045C00000000000000000002100910080000008B1
:1045D000800008800A90102060000018A5FF81006C
:1045E000B701004000400040080000000C00E73B1D
:1045F000E73BE73B00000000000000000000000077
:104600000000000000000000210091008000000870
:10461000800008800A8040000000000000000000C8
:10462000000000000000000000000000000000008A
:10463000000000000000000000000000000000007A
:104640000000000000000000210091008000000830
:104650008000088009804800000000000000000081
:10466000000000000000000000000000000000004A
:10467000000000000000000000000000000000003A
:1046800000000000000000002100910080000008F0
:104690008000088000A0210100FF00030005010048
:1046A000000000000000000000000000000000000A
:1046B00000000000000000005C000000000000009E
:1046C00000000000000000002100910080000008B0
:1046D000800008800A803000000000000000000018
:1046E00000000000000000000000000000000000CA
:1046F00000000000000000000000000000000000BA
:104700000000000000000000284700080000002012
:1047100050000000203F00087847000850000020AB
:1047200008100000303F00080000000000000000FA
:10473000100000000024F400300091008000000808
:104740008000088000000000000000000000000061
:104750000000000000000000000000000000000059
:104760000000000000000000000000000000000049
:08477000000000000000000041
:040000050800019955
:00000001FF
