:020000040800F2
:10000000D8120020AD010008015800087541000811
:10001000FD570008890700087991000800000000DA
:10002000000000000000000000000000B95C0008B3
:1000300001090008000000009D5C0008195D00082F
:10004000C7010008C7010008C7010008C701000870
:10005000C7010008C7010008C7010008C701000860
:10006000C7010008C7010008C70100088D07000884
:100070009D070008C7010008C7010008C701000864
:10008000C7010008C7010008C70100080000000000
:10009000000000000000000000000000C701000890
:1000A000C7010008155E0008055E0008C7010008CA
:1000B000C7010008C7010008C701000889410008FE
:1000C00079410008C7010008C7010008C7010008FE
:1000D000C7010008C7010008C701000800000000B0
:1000E000C7010008C7010008C701000800000000A0
:1000F000000000000000000000000000C701000830
:1001000000000000C7010008C7010008C70100087F
:1001100000000000000000000000000000000000DF
:10012000C7010008C7010008C7010008C70100088F
:10013000C7010008000000000000000000000000EF
:1001400000000000000000000000000089580008C6
:10015000C7010008C7010008C7010008C70100085F
:10016000C7010008C70100080000000000000000EF
:10017000000000000000000000000000000000007F
:1001800000000000C701000800000000000000009F
:10019000C7010008C7010008DFF80CD000F048FADA
:1001A0000048004751920008D812002006488047B6
:1001B00006480047FEE7FEE7FEE7FEE7FEE7FEE74C
:1001C000FEE7FEE7FEE7FEE7E55D000899010008AF
:1001D0002DE9F05F0546002092469B46884606467C
:1001E000814640241BE0284641464746224600F00F
:1001F00057F853465A46C01A914110D31146184633
:10020000224600F03EF82D1A67EB01084F462246C1
:100210000120002100F035F817EB00094E41201EA7
:10022000A4F10104DFDC484631462A464346BDE8D6
:10023000F09FD2B201E000F8012B491EFBD27047BB
:100240000022F6E710B513460A4604461946FFF7A2
:10025000F0FF204610BD30B50B460146002020229D
:10026000012409E021FA02F59D4205D303FA02F5C3
:10027000491B04FA02F52844151EA2F10102F1DC23
:1002800030BD202A04DB203A00FA02F1002070473A
:100290009140C2F1200320FA03F3194390407047C4
:1002A000202A04DB203A21FA02F00021704721FACB
:1002B00002F3D040C2F12002914008431946704732
:1002C0002DE9FE4F804681EA0300C00F0C460090E6
:1002D00021F0004123F00045B8EB0200A94105D20E
:1002E0004046214690461C460B46024623F00040FD
:1002F000104347D0270DC7F30A00C3F30A510290F9
:10030000401A019040286BDAC3F3130040F4801BBD
:100310000098924620B10023D2EB030A63EB0B0B4B
:1003200001985946C0F140025046FFF7AAFF064621
:100330000D4650465946019A00F08CF910EB080022
:100340006141002487EA115284EAE7731A4340D0DE
:10035000009A62B3019A012A4FEA075215DC001B8A
:1003600061EB02014FF0004202EA0752CDE9004280
:10037000001C41F5801132462B4600F08CF903B089
:10038000BDE8F08F40462146F9E7001B61EB020112
:10039000001C41F5801300185B412018A2F50017DE
:1003A00047EB030140EAD570B6196D4111E06D08C5
:1003B0004FEA360645EAC0754FEA0752001B61EB6B
:1003C0000201001C41F5801149084FEA3000001974
:1003D000514132462B4603B0BDE8F04F00F04CB916
:1003E0000098012240000023D0EB020263EBE0738F
:1003F000009821464FEAE074B8EB000061EB04017D
:10040000E9E783F000435BE781F0004158E72DE91D
:10041000FE4F81EA030404F0004421F000410094FF
:100420004FF0000B23F0004350EA01045ED052EA83
:1004300003045BD0C3F30A54C1F30A552C44A4F25D
:10044000F3340194A0FB0254C1F3130141F4801171
:10045000C3F3130343F4801301FB024400FB034E78
:10046000840A970A44EA815447EA8357A4FB076841
:1004700002958D0A05FB07854FEA932C04FB0C546B
:100480002705029D4FEA065847EA1637B5EB0805DF
:100490006EEB070C870E920E47EA811742EA831231
:1004A000A7FB0201B6EB0B0164EB00042B0D43EA42
:1004B0000C335E1844EB1C50DA465146E7FB020150
:1004C000C5F313044FEA0B3343EA14534FEA0432E3
:1004D000019C43EA0603A4F10C040294009CCDE9BC
:1004E00000B400F0D8F803B0BDE8F08F002001465A
:1004F000F9E72DE9F04D81EA030404F0004B21F007
:10050000004514464FF0000A23F0004150EA05026E
:1005100020D054EA01021DD0C5F30A570246C5F3A4
:100520001303C1F31300C1F30A5640F4801543F4DA
:100530008013A7EB0608101BD64608F2FD3873EBB4
:10054000050002D308F1010801E092185B41B8F1FF
:10055000000F03DA00200146BDE8F08D00204FF4C3
:100560008011064684460EE0171B73EB050705D382
:10057000121B63EB050306434CEA010C49084FEAE2
:10058000300092185B4150EA0107EDD152EA0300B6
:1005900012D082EA040083EA0501084305D0101B4B
:1005A000AB4106D20122002306E000224FF00043B7
:1005B00002E06FF0010253101AEB06004CEB0851F9
:1005C00010EB0A0041EB0B01BDE8F04D00F054B810
:1005D000C1F30A52C1F3130140F2FF3341F4801119
:1005E0009A4202DA00200146704740F233439A42B1
:1005F000A2F2334202DC5242FFF752BEFFF741BE85
:1006000030B5041E71F1000404DB4FF00044404299
:1006100064EB0101141E73F1000405DB1C464FF06E
:100620000043524263EB0403994208BF904230BD3D
:10063000064C074D06E0E06840F0010394E807002F
:1006400098471034AC42F6D3FFF7AAFDB4A30008D4
:10065000D4A30008202A06DBCB17203A41FA02F087
:1006600043EAE07306E041FA02F3D040C2F120020F
:10067000914008431946704710B5141E73F10004E9
:1006800008DA401C41F1000192185B411A4301D184
:1006900020F0010010BD2DE9F04D92469B4611B1AE
:1006A000B1FA81F202E0B0FA80F220329046FFF710
:1006B000E8FD04460F4640EA0A0041EA0B015346B2
:1006C0005A46084313D0114653EA010019D0C8F125
:1006D00040025046FFF7E4FD05460E465046594697
:1006E0004246FFF7CEFD084305D0012004E0204636
:1006F0003946BDE8F08D0020054346EAE0762C43FC
:1007000037430A986305E40AA0EB08000022FD0ABB
:1007100044EA47540A3002D500200146E9E70105C2
:1007200010196941DDE9084500196941BDE8F04D3E
:10073000A2E770B58C1810F8015B15F0070301D122
:1007400010F8013B2A1106D110F8012B03E010F834
:10075000016B01F8016B5B1EF9D12B0705D4002357
:10076000521E0DD401F8013BFAE710F8013BCB1AF9
:10077000921C03E013F8015B01F8015B521EF9D5EE
:10078000A142D8D3002070BDFFE7FEE780B540F25C
:10079000F060C2F2000000F007F980BD80B540F2C1
:1007A0005070C2F2000000F0FFF880BD84B0014636
:1007B00003900398007810384AF6AB22CAF6AA22B2
:1007C000A0FB020212090292029A49F6BC53C0F63B
:1007D00000039A5C039BDA65029A042A0191009057
:1007E00007D3FFE703980168042262F309018165DA
:1007F00006E00398016840F2FF3291438165FFE70C
:100800000398806D04B0704787B0014606900020C1
:100810008DF817000698806A049006988069002871
:10082000039122D1FFE70498032802901BD8029974
:10083000DFE801F0020D02180698C06AC001002826
:1008400004D5FFE701208DF81700FFE70CE00698BC
:10085000C06AB0F1C07F04D1FFE701208DF8170016
:10086000FFE701E000E0FFE745E006988069B0F5AA
:10087000005F25D1FFE70498032801901ED8019955
:10088000DFE801F00206021101208DF8170016E0E2
:100890000698C06AC001002804D5FFE701208DF842
:1008A0001700FFE70BE00698C06AB0F1C07F04D1E3
:1008B000FFE701208DF81700FFE700E0FFE719E0F0
:1008C00004980328009004D3FFE70098032804D07D
:1008D0000EE001208DF817000BE00698C06AC001F9
:1008E000002804D5FFE701208DF81700FFE700E09E
:1008F000FFE7FFE7FFE79DF8170007B0704700002C
:10090000704700007047000080B584B0002003905D
:10091000029001900198039908440390039840F2D3
:10092000E411C2F200018A1C0823009111461A4604
:1009300004F0CEFD029800991231042204F0C8FDA3
:1009400031200099087604B080BD000083B00146D4
:100950000190019890F835000228009107D0FFE738
:1009600001988021416501208DF80B000EE001986F
:10097000052180F8351001980068016821F0010117
:100980000160FFE700208DF80B00FFE79DF80B00EA
:1009900003B0704782B001460190019890F835008D
:1009A000009102B07047000080B588B00146079002
:1009B0000020059040F2F400C2F20000006848F206
:1009C000B512C1F64E32A0FB0202920A0492079AB7
:1009D000926D0392039A12680692069A079BDB6D4A
:1009E0004FF0080C0CFA03F31A42029101901BD04D
:1009F000FFE70798006800684007002813D5FFE765
:100A000007980068016821F0040101600798C06D33
:100A1000082101FA00F0039988600798416D41F0C0
:100A200001014165FFE7FFE706980799C96D0122BB
:100A300002FA01F1084215D0FFE707980068406903
:100A4000000600280DD5FFE70798C06D012101FAC7
:100A500000F0039988600798416D41F002014165FB
:100A6000FFE7FFE706980799C96D042202FA01F132
:100A7000084215D0FFE70798006800688007002843
:100A80000DD5FFE70798C06D042101FA00F0039926
:100A900088600798416D41F004014165FFE7FFE779
:100AA00006980799C96D102202FA01F108424BD04D
:100AB000FFE70798006800680007002843D5FFE7B4
:100AC0000798C06D102101FA00F00399886007981B
:100AD00000680068400300281CD5FFE707980068FD
:100AE0000068000300280AD4FFE70798006C00287C
:100AF00004D0FFE70798016C8847FFE709E00798F3
:100B0000806C002804D0FFE70798816C8847FFE7D6
:100B1000FFE717E0079800680068C005002807D4C1
:100B2000FFE707980068016821F008010160FFE70E
:100B30000798006C002804D0FFE70798016C8847ED
:100B4000FFE7FFE7FFE7FFE706980799C96D202257
:100B500002FA01F1084200F09580FFE7079800686B
:100B60000068C006002840F18C80FFE70798C06D40
:100B7000202101FA00F003998860079890F8350069
:100B8000052838D1FFE707980068016821F01601B1
:100B9000016007980068416921F080014161079870
:100BA000006C002805D1FFE70798806C002807D06B
:100BB000FFE707980068016821F008010160FFE77E
:100BC0000798C06D3F2101FA00F003998860FFE7A4
:100BD0000798002180F83410FFE70798012180F87A
:100BE00035100798006D002804D0FFE70798016DC5
:100BF0008847FFE781E00798006800684003002805
:100C00001CD5FFE7079800680068000300280AD495
:100C1000FFE70798406C002804D0FFE70798416C75
:100C20008847FFE709E00798C06B002804D0FFE77A
:100C30000798C16B8847FFE7FFE721E00798006846
:100C40000068C005002811D4FFE707980068016814
:100C500021F010010160FFE70798002180F83410AF
:100C6000FFE70798012180F83510FFE70798C06B70
:100C7000002804D0FFE70798C16B8847FFE7FFE72C
:100C8000FFE7FFE70798406D002836D0FFE7079899
:100C9000406DC007002826D0FFE70798052180F89F
:100CA000351007980068016821F001010160FFE735
:100CB0000598013005900499884201D9FFE707E0C3
:100CC000FFE7079800680068C0070028F0D1FFE739
:100CD000FFE70798002180F83410FFE7079801210B
:100CE00080F83510FFE70798C06C002804D0FFE7B4
:100CF0000798C16C8847FFE7FFE708B080BD000098
:100D000080B586B00146049000200390009100F069
:100D1000DFFA02900498002804D1FFE701208DF843
:100D20001700AAE00498406A002801D0FFE7FFE717
:100D3000FFE70498002180F83410FFE704980221AF
:100D400080F8351004980068016821F00101016005
:100D5000FFE7049800680068C007002814D0FFE788
:100D600000F0B6FADDF808E0A0EB0E0006280AD382
:100D7000FFE70498202141650498032180F835108D
:100D80008DF8171079E0E4E7049800680068039094
:100D9000039848F23F01CFF21001084003900498F5
:100DA00041688268C368D0F810C01143194341EA12
:100DB0000C014269114382691143C2691143006AFF
:100DC00008430399084303900498406A042808D113
:100DD000FFE70498C16A006B084303990843039036
:100DE000FFE703980499096808600498006840695F
:100DF0000390039820F0070003900498406A039939
:100E0000084303900498406A04281CD1FFE7049823
:100E1000806A0399084303900498C06A002811D09F
:100E2000FFE70498FFF7F0FC00280AD0FFE70498DA
:100E3000402141650498012180F835108DF8171084
:100E40001BE0FFE7FFE703980499096848610498ED
:100E5000FFF7ACFC01900498C06D3F2101FA00F04F
:100E60000199886004980021416504984FF0010EB3
:100E700080F835E08DF81710FFE79DF8170006B0F1
:100E800080BD000080B584B001460390009100F061
:100E90001FFA02900398019001980130002809D0B0
:100EA000FFE740F23E20C2F20000007801990844BA
:100EB0000190FFE7FFE700F00BFADDF808E0A0EB98
:100EC0000E00DDF804E0704501D2FFE7F3E704B05F
:100ED00080BD00008EB00A4603460D900C910020A4
:100EE0000A90099008900B9006920593FFE70B98E3
:100EF0000F2800F2AA81FFE70B98012101FA00F008
:100F00000A900C9800680A990840099009980A9973
:100F1000884240F09581FFE70C98406801280FD087
:100F2000FFE70C98406802280AD0FFE70C98406859
:100F3000112805D0FFE70C98406812282FD1FFE751
:100F40000D98806808900B984000032101FA00F08A
:100F5000089921EA000008900C98C0680B99490094
:100F6000884008990843089008980D9988600D9862
:100F7000406808900B98012101FA00F0089921EAD5
:100F8000000008900C984068C0F300100B9988404E
:100F900008990843089008980D994860FFE70D9854
:100FA000C06808900B984000032101FA00F00899EE
:100FB00021EA000008900C9880680B99490088404D
:100FC00008990843089008980D99C8600C984068E3
:100FD000022805D0FFE70C984068122826D1FFE7C9
:100FE0000D980B996FF0030202EA51010844006A60
:100FF00008900B9800F0070080000F2101FA00F024
:10100000089921EA000008900C9800690B9901F0FA
:1010100007018900884008990843089008980D99AD
:101020000B9B02EA530211440862FFE70D98006827
:1010300008900B984000032101FA00F0089921EA7A
:10104000000008900C98406800F003000B994900DC
:10105000884008990843089008980D9908600C98F2
:101060004068C000002840F1EA80FFE7FFE7002069
:10107000079043F64400C4F20200016841F4804145
:101080000160006800F48040079007980490FFE733
:101090000B9820F0030043F60801C4F20101405808
:1010A00008900B9800F0030080000F2101FA00F077
:1010B000089921EA000008900D980021C4F202016D
:1010C000884203D1FFE70020039034E00D9840F2FE
:1010D0000041C4F20201884203D1FFE701200290DF
:1010E00026E00D9840F60001C4F20201884203D1C7
:1010F000FFE70220019018E00D9840F60041C4F28D
:101100000201884203D1FFE7032000900AE00D9816
:1011100041F20001C4F202010722884208BF042202
:101120000092FFE700980190FFE701980290FFE727
:1011300002980390FFE70398C0B20B9901F00301F6
:101140008900884008990843089008980B9921F075
:10115000030143F60802C4F20102885043F600403E
:10116000C4F20100006808900998089921EA00007B
:1011700008900C984068C003002805D5FFE709983F
:10118000089908430890FFE7089843F60041C4F225
:101190000101086043F60440C4F2010000680890B1
:1011A0000998089921EA000008900C98406880038B
:1011B000002805D5FFE70998089908430890FFE73C
:1011C000089843F60441C4F20101086043F6084060
:1011D000C4F20100006808900998089921EA00000B
:1011E00008900C984068C002002805D5FFE70998D0
:1011F000089908430890FFE7089843F60841C4F2AD
:101200000101086043F60C40C4F201000068089038
:101210000998089921EA000008900C98406880021B
:10122000002805D5FFE70998089908430890FFE7CB
:10123000089843F60C41C4F201010860FFE7FFE79C
:10124000FFE70B9801300B9051E60EB0704700009D
:1012500084B00A4603460390ADF80A10039840692B
:10126000BDF80A10084088420192009306D1FFE7BA
:10127000BDF80A0000040399886104E0BDF80A0083
:1012800003998861FFE704B07047000080B585B01E
:1012900013468C4686460490ADF80E108DF80D204E
:1012A0009DF80D0000280293CDF804C0CDF800E0B1
:1012B00005D0FFE7BDF80E000499886105E0BDF890
:1012C0000E00000404998861FFE705B080BD0000AE
:1012D00040F6D040C2F200000068704782B001467C
:1012E0000190009102B0704780B585B013468C46DE
:1012F000864604908DF80F10ADF80C200293CDF8BF
:1013000004C0CDF800E005B080BD000080B58AB013
:10131000014609900998006840690490099800689E
:101320004068039000200290099890F83E008DF8E4
:1013300007009DF81100C0070028009110D0FFE7BA
:101340009DF80D00C00700280AD0FFE7029840F082
:1013500001000290099800686FF480714161FFE715
:101360009DF8110000F002000021B1EB500F10D0E9
:10137000FFE79DF80D00C00700280AD0FFE702989C
:1013800040F002000290099800686FF4007141611A
:10139000FFE79DF8110000F004000021B1EB900F71
:1013A00051D0FFE79DF80D00C00700284BD0FFE7A4
:1013B0009DF807008DF823000998408D0790099843
:1013C00090F83D008DF81B000998006B05909DF882
:1013D000230020281BD1FFE70798002817D1FFE73B
:1013E0009DF81B0021280ED0FFE79DF81B0029283F
:1013F00009D0FFE79DF81B00282808D1FFE70598D2
:10140000212804D1FFE7099803F0C0FE1AE00998EB
:1014100000686FF480614161029840F0040002901E
:101420009DF80700102805D0FFE79DF80700402829
:1014300007D1FFE709980068016841F40071016075
:10144000FFE7FFE7FFE79DF8110000F0080000212B
:10145000B1EBD00F10D0FFE79DF80D00C0070028BA
:101460000AD0FFE7029840F008000290099800684F
:101470006FF400614161FFE70298002809D0FFE79F
:10148000029809990A6C10430864099802F022FF37
:10149000FFE70AB080BD000080B588B00146079024
:1014A0000020059007980068406804900798C06A7B
:1014B0000390079890F83E008DF80B00079890F87D
:1014C0003D008DF80A009DF80B001028019106D010
:1014D000FFE79DF80B00402840F0F380FFE70798F6
:1014E0000068806905900798006840690690069832
:1014F000C007002815D1FFE703980121B0F52A0F96
:10150000009108D0FFE7039800F1AC40B0FA80F0FA
:1015100040090090FFE70098C007002801D0FFE7CE
:1015200094E10698C007002810D0FFE79DF811004D
:1015300000F002000021B1EB500F07D0FFE7079841
:1015400002F02AFE079803F03FFCB9E09DF818006E
:1015500000F008000021B1EBD00F0DD0FFE79DF89F
:10156000110000F002000021B1EB500F04D0FFE7A2
:10157000079803F051FAA2E09DF8180000F002006D
:101580000021B1EB500F0DD0FFE79DF8110000F0E6
:1015900002000021B1EB500F04D0FFE7079803F0E1
:1015A00065FA8BE09DF8140000F004000021B1EB17
:1015B000900F40D0FFE707980068406800F4006093
:1015C000B0F5006F36D0FFE79DF818000021B1EBB1
:1015D000D01F16D0FFE79DF8110000F00400002195
:1015E000B1EB900F0DD0FFE79DF8180000F004005C
:1015F0000021B1EB900F04D1FFE7079803F06AF9DF
:1016000017E09DF8180000F004000021B1EB900FE6
:101610000DD0FFE79DF8110000F002000021B1EBB2
:10162000500F04D0FFE7079803F0D6F800E0FFE77B
:10163000FFE7FFE741E007980068406800F40060BA
:10164000B0F5006F38D0FFE79DF8180000F04000BB
:101650000021B1EB901F16D0FFE79DF8110000F0BC
:1016600004000021B1EB900F0DD0FFE79DF81800AA
:1016700000F004000021B1EB900F04D1FFE70798C0
:1016800003F030F817E09DF8180000F00400002186
:10169000B1EB900F0DD0FFE79DF8110000F00200B4
:1016A0000021B1EB500F04D0FFE7079802F048FF8C
:1016B00000E0FFE7FFE7FFE7FFE7FFE7FFE7FFE700
:1016C000C4E00798006C002805D0FFE70798006881
:1016D0004069069008E007980068806905900798BF
:1016E000006840690690FFE79DF8180000F00200CE
:1016F0000021B1EB500F18D0FFE79DF8110000F06A
:1017000002000021B1EB500F0FD0FFE70798006CEB
:10171000002805D0FFE70798006880690590FFE77B
:101720000798059903F0DEFC8FE09DF8180000F0A3
:1017300010000021B1EB101F0DD0FFE79DF8110044
:1017400000F002000021B1EB500F04D0FFE7079832
:1017500003F08EFD78E09DF80A00212805D0FFE710
:101760009DF80A00292836D1FFE79DF818000021CE
:10177000B1EBD01F16D0FFE79DF8110000F0040078
:101780000021B1EB900F0DD0FFE79DF8180000F09D
:1017900004000021B1EB900F04D1FFE7079803F09C
:1017A00067FC17E09DF8180000F004000021B1EB81
:1017B000900F0DD0FFE79DF8110000F0020000210E
:1017C000B1EB500F04D0FFE7079803F037FC00E0BF
:1017D000FFE7FFE737E09DF8180000F04000002128
:1017E000B1EB901F16D0FFE79DF8110000F0040048
:1017F0000021B1EB900F0DD0FFE79DF8180000F02D
:1018000004000021B1EB900F04D1FFE7079803F02B
:10181000D9FB17E09DF8180000F004000021B1EB9F
:10182000900F0DD0FFE79DF8110000F0020000219D
:10183000B1EB500F04D0FFE7079803F0A9FB00E0DD
:10184000FFE7FFE7FFE7FFE7FFE7FFE708B080BD3F
:1018500082B001460190009102B0704780B590B00F
:1018600001460E900E9800280B9104D1FFE701204D
:101870008DF83F004FE10E9890F83D00002808D108
:10188000FFE70E98002180F83C100E9800F066F9F2
:10189000FFE70E98242180F83D100E98006801683B
:1018A00021F0010101600E980068016841F40041D7
:1018B00001600E980068016821F40041016001F0A8
:1018C000A3FD0C900E98406848F2A061C0F201019F
:1018D00088420BD8FFE70C9848F28041C0F21E0105
:1018E0000022884238BF01220A920AE00C9840F692
:1018F0000011C0F23D010022884238BF01220A9245
:10190000FFE70A98012804D1FFE701208DF83F0086
:1019100001E10C984DF68361C4F21B31A0FB01017B
:10192000890C0D910E990968496821F03F010D9AC3
:1019300011430E9A126851600E990968096A21F0E4
:101940003F010E9A526848F2A063C0F201039A4226
:101950000990089104D8FFE70D98013007900FE037
:101960000D984FF49671484344F6D351C1F2620189
:10197000A0FB0101012202EB911106900791FFE704
:101980000798089908430E9A126810620E9800682A
:10199000C0694CF6FF7290430E9A526848F2A063F9
:1019A000C0F201039A4205901FD8FFE70C98013856
:1019B0000E9949684900B0FBF1F001306FF31F3018
:1019C000032803D8FFE7042004900BE00C980138AB
:1019D0000E9949684900B0FBF1F001306FF31F30F8
:1019E0000490FFE7049803904FE00E988068002869
:1019F0000DD1FFE70C9801380E99496801EB4101C0
:101A0000B0FBF1F001306FF31F3002900DE00C9845
:101A100001380E99496819225143B0FBF1F00130A9
:101A2000042161F31F300290FFE7029800050028AF
:101A300003D1FFE70120019024E00E988068002880
:101A40000DD1FFE70C9801380E99496801EB41016F
:101A5000B0FBF1F001306FF31F3000900DE00C98F7
:101A600001380E99496819225143B0FBF1F0013059
:101A7000042161F31F300090FFE7009840F400401C
:101A80000190FFE701980390FFE703980599084349
:101A90000E9A1268D0610E980068006820F0C000AD
:101AA0000E9A1368D2F81CC0126A42EA0C02104364
:101AB00018600E980068806848F2FF3290430E9AD2
:101AC0001368D2F80CC0126942EA0C021043986005
:101AD0000E980068C06820F0FF000E9A1368D2F8D4
:101AE00014C0926942EA0C021043D8600E98006854
:101AF000026842F0010202600E98002202640E9811
:101B0000202380F83D300E9802630E9880F83E2026
:101B10008DF83F20FFE79DF83F0010B080BD00002A
:101B200082B001460190009102B0704782B0014638
:101B30000190009102B0704782B00146019000917F
:101B400002B0704782B001460190009102B0704728
:101B500082B001460190009102B0704780B58EB00E
:101B600001460D9000200C900B900A90099008906F
:101B70000D98006845F20042C4F2000290420591BF
:101B800040F09C80FFE7FFE70020079043F630001D
:101B9000C4F20200016841F002010160006800F037
:101BA0000200079007980490FFE74FF440700890F8
:101BB0001220099001200A9003200B9004200C9021
:101BC00040F20040C4F2020008A9FFF783F9FFE7E2
:101BD0000020069043F64000C4F20200016841F480
:101BE00000110160006800F4001006900698039050
:101BF000FFE740F2F060C2F2000046F21001C4F2CA
:101C0000020101604FF00071416000218160C160FC
:101C10004FF48062026141618161C1610162416290
:101C2000FFF76EF8002803D0FFE7FEF76BFEFFE733
:101C3000FFE70D9840F2F061C2F2000181630D9858
:101C40008863FFE740F25070C2F2000046F22801BC
:101C5000C4F2020101600021416040228260C16043
:101C60004FF48062026141618161C1610162416240
:101C7000FFF746F8002803D0FFE7FEF743FEFFE733
:101C8000FFE70D9840F25071C2F2000141630D98D8
:101C90008863FFE71F20002102900191019A00F064
:101CA000B9F8029800F0AAF8202000900199019A52
:101CB00000F0B0F8009800F0A1F8FFE70EB080BD8A
:101CC00082B001460190009102B0704782B0014697
:101CD0000190009102B0704740F23E20C2F2000035
:101CE000007840F6D041C2F200010A681044086052
:101CF0007047000080B582B043F60040C4F2020095
:101D0000016841F400710160016841F48061016083
:101D1000016841F480710160032000F0A1F8002007
:101D2000019000F007F8009000F040F8019802B030
:101D300080BD000080B584B00146029040F2F400FE
:101D4000C2F20000006840F23E22C2F200021278A5
:101D50004FF47A73B3FBF2F2B0FBF2F0019101F0B1
:101D600065FF002804D0FFE701208DF80F0018E080
:101D700002980F280DD8FFE702994FF0FF3000229C
:101D800000F048F8029840F24021C2F200010860D9
:101D900003E001208DF80F0003E000208DF80F0014
:101DA000FFE79DF80F0004B080BD000084B0FFE79E
:101DB0000020039043F64400C4F20200016841F49D
:101DC00080410160006800F4804003900398019016
:101DD000FFE7FFE70020029043F64000C4F2020054
:101DE000016841F080510160006800F0805002906D
:101DF00002980090FFE704B07047000080B582B001
:101E000001468DF807009DF90700009107F0B6F92B
:101E100002B080BD80B58AB013468C4686468DF8E8
:101E2000270008910792002006900593CDF810C076
:101E3000CDF80CE007F0BEF906909DF92700069951
:101E4000089A079B0290084611461A4603F0DCFCEC
:101E5000029901900846019907F0B4F90AB080BDD3
:101E600080B582B0014601900198009107F0D0F949
:101E700002B080BD84B00A46034603908DF80B1073
:101E80000192009304B0704784B00A460346039061
:101E9000ADF80A10BDF80A000399096848620020ED
:101EA0000192009304B0704780B587B013468C460A
:101EB000864606908DF81710ADF814200698006835
:101EC000406A03909DF8170000280293CDF804C0E3
:101ED000CDF800E009D1FFE7BDF81400039941EA0D
:101EE000004006990968886233E006980068806AB5
:101EF000039901EB1040039000208DF81300FFE7D9
:101F00009DF813009DF817100139884213D2FFE79E
:101F1000069800689DF8131000EB8100D0F80401CA
:101F2000039901EB10400390FFE79DF81300013087
:101F30008DF81300E4E7BDF81400039941EA00406E
:101F4000069909689DF8172001EB8201C1F800018C
:101F5000FFE7002007B080BD80B584B00146039044
:101F60000398D0F80404029104F0FEFF019004B03D
:101F700080BD000080B586B00A46034605908DF806
:101F800013100598D0F804149DF813C0CCEBCC0EB8
:101F900000EB8E00806C039008466146DDF80CC0B3
:101FA00002926246019304F07BFE009006B080BD71
:101FB00080B586B00A46034605908DF81310059843
:101FC000D0F804149DF813C0CCEBCC0E00EB8E00BF
:101FD000D0F80802039008466146DDF80CC0029272
:101FE0006246019304F02CFF009006B080BD000013
:101FF00080B584B0014603900398D0F804040291A0
:1020000004F0BAFF019004B080BD000080B588B034
:102010000A46034606908DF817109DF81700000633
:102020000028039202930FD5FFE706989DF817103A
:1020300001F00F01C1EBC10100EB81003C300490C5
:102040000498012141700FE006989DF8171001F0E7
:102050000F01C1EBC10100EB810000F5FE7004909F
:10206000049800214170FFE79DF8170000F00F0071
:1020700004990870FFE7069890F8BC03012804D182
:10208000FFE702208DF81F0015E00698012180F877
:10209000BC13FFE7FFE706980068049905F092FF7C
:1020A0000190FFE70698002180F8BC13FFE70020AD
:1020B0008DF81F00FFE79DF81F0008B080BD0000ED
:1020C00080B588B00A46034606908DF817109DF833
:1020D000170000F00F0006994968884203920293A6
:1020E00004D9FFE701208DF81F004EE09DF817008E
:1020F000000600280FD5FFE706989DF8171001F09D
:102100000F01C1EBC10100EB81003C300490049849
:10211000012141700FE006989DF8171001F00F01A2
:10212000C1EBC10100EB810000F5FE700490049842
:1021300000214170FFE70498002181709DF817008D
:1021400000F00F0004990870FFE7069890F8BC03B0
:10215000012804D1FFE702208DF81F0015E0069842
:10216000012180F8BC13FFE7FFE706980068049997
:1021700006F0ACFA0190FFE70698002180F8BC1346
:10218000FFE700208DF81F00FFE79DF81F0008B053
:1021900080BD000084B00A46034603908DF80B1002
:1021A00003989DF80B1001F00F01C1EBC10100EB8A
:1021B0008100D0F814020192009304B0704700002F
:1021C000B0B58AB09C4696460C46054608908DF8F8
:1021D0001F10ADF81C208DF81B3000208DF81A0060
:1021E0009DF81F0000060028CDF810C0CDF80CE0C7
:1021F000029401950FD5FFE708989DF81F1001F094
:102200000F01C1EBC10100EB81003C300590059846
:10221000012141700FE008989DF81F1001F00F0197
:10222000C1EBC10100EB810000F5FE70059005983F
:1022300000214170FFE79DF81F0000F00F00059995
:102240000870BDF81C00059988609DF81B00059971
:10225000C87005984078002804D0FFE705980178F9
:10226000C180FFE79DF81B00022804D1FFE7059815
:1022700000210171FFE7FFE7089890F8BC030128EF
:1022800004D1FFE702208DF8270016E0089801210D
:1022900080F8BC13FFE7FFE708980068059905F090
:1022A0002DFD0090FFE70898002180F8BC13FFE7A0
:1022B0009DF81A008DF82700FFE79DF827000AB067
:1022C000B0BD0000B0B58EB09C4696460C460546A3
:1022D0000D908DF833100B920A930D989DF83310E2
:1022E00001F00F01C1EBC10100EB810000F5FE70B0
:1022F00009900B980999C8600A980999486109984A
:1023000000218161099841709DF8330000F00F00B1
:10231000099908700D9800690128CDF820C0CDF802
:102320001CE00694059504D1FFE70B980999086114
:10233000FFE79DF83300000700280CD1FFE70D9858
:102340000168099A007C049008461146049A06F038
:102350005DF803900BE00D980168099A007C0290EB
:1023600008461146029A06F061FA0190FFE7002044
:102370000EB0B0BD80B58AB00A46034608908DF80D
:102380001F109DF81F0000F00F000899496888424F
:102390000592049304D9FFE701208DF827005FE040
:1023A0009DF81F00000600280FD5FFE708989DF84C
:1023B0001F1001F00F01C1EBC10100EB81003C30A7
:1023C00006900698012141700DE008989DF81F10B5
:1023D000C1EBC10100EB810000F5FE70069006988C
:1023E00000214170FFE70698012181709DF81F00D0
:1023F00000F00F0006990870FFE7089890F8BC03FA
:10240000012804D1FFE702208DF8270028E0089872
:10241000012180F8BC13FFE7FFE7089800680699E0
:1024200006F0A8F99DF81F100907002903900DD1A7
:10243000FFE708980168027C00F571700290084679
:102440001146029A06F0E8F80190FFE7FFE70898C6
:10245000002180F8BC13FFE700208DF82700FFE77C
:102460009DF827000AB080BDB0B58EB09C46964658
:102470000C4605460D908DF833100B920A930D987B
:102480009DF8331001F00F01C1EBC10100EB810099
:102490003C3009900B980999C8600A9809994861DD
:1024A0000998002181610998012141709DF833004C
:1024B00000F00F00099908700D9800690128CDF807
:1024C00020C0CDF81CE00694059504D1FFE70B98D9
:1024D00009990861FFE79DF83300000700280CD137
:1024E000FFE70D980168099A007C049008461146A0
:1024F000049A05F08BFF03900BE00D980168099A90
:10250000007C029008461146029A06F08FF901906D
:10251000FFE700200EB0B0BD80B59CB001461B9017
:102520001B9800681A901A9819901B9800681191CE
:1025300006F0CCFB002840F03D83FFE71B980068C5
:1025400006F03EFC002801D1FFE733E31B9800684A
:1025500006F036FC8007002807D5FFE71B980068C7
:10256000416901F002014161FFE71B98006806F034
:1025700027FC0003002840F18280FFE7002015902F
:102580001B98006806F0C0FB1790FFE7179800281B
:1025900074D0FFE79DF85C00C007002867D0FFE714
:1025A0001B9800689DF8541006F0EEFB16901698E4
:1025B000C00700280DD0FFE71998159900EB4110CE
:1025C0000121C0F8081B1B98159903F0CFF9109052
:1025D000FFE71698000700280FD5FFE71B9815990D
:1025E00003F05AF91999DDF854E001EB4E114FF060
:1025F000080EC1F808EB0F90FFE71698C0060028F8
:1026000008D5FFE71998159900EB41101021C0F883
:10261000081BFFE716988006002819D5FFE71B98CE
:10262000006901280CD1FFE71B98016800F5717261
:1026300001200E9008460E9905F0EEFF0D90FFE781
:102640001998159900EB41102021C0F8081BFFE7ED
:1026500016988004002809D5FFE71998159900EB12
:1026600041104FF40051C0F8081BFFE7FFE7159831
:102670000130159017984008179087E7FFE71B98DF
:10268000006806F09DFB4003002840F1B480FFE79E
:102690001B98006806F024FB179000201590FFE7B8
:1026A0001798002800F0A680FFE79DF85C00C0079F
:1026B000002800F09880FFE71B9800689DF85410F0
:1026C00006F036FB16901698C00700284BD0FFE79F
:1026D000159800F00F00012101FA00F014901498F1
:1026E000199AD2F8343823EA0000C2F8340819984D
:1026F000159A00EB4210C0F808191B9800690128D0
:102700000BD1FFE71B981599C1EBC10100EB8100CC
:10271000416C826C11448164FFE71B989DF8541052
:10272000FFF728FC1B98006901281BD1FFE71598CB
:10273000002816D1FFE71B981599C1EBC10100EBEA
:102740008100006D00280CD1FFE71B98016800F59F
:10275000717201200C9008460C9905F05DFF0B90FA
:10276000FFE7FFE7FFE716980007002808D5FFE717
:102770001998159900EB41100821C0F80819FFE7D6
:102780001698C006002808D5FFE71998159900EBA0
:1027900041101021C0F80819FFE7169840060028DC
:1027A00008D5FFE71998159900EB41104021C0F8B2
:1027B0000819FFE716988007002808D5FFE7199841
:1027C000159900EB41100221C0F80819FFE716988F
:1027D0000006002806D5FFE71B98159903F0BCF901
:1027E0000A90FFE7FFE71598013015901798400809
:1027F000179055E7FFE71B98006806F0E1FAC00F55
:10280000002820D0FFE71998D0F8041821F0010122
:10281000C0F804181B9890F8F403012808D1FFE7CA
:102820001B98002180F8F4131B98FFF723FB03E0AB
:102830001B9800F0D1FBFFE71B980068416901F08D
:1028400000414161FFE71B98006806F0B9FA0005F6
:10285000002812D5FFE71998D0F80808C00700280B
:1028600004D0FFE71B9800F05FFCFFE71B980068AF
:10287000416901F400614161FFE71B98006806F0BF
:102880009FFAC004002840F18380FFE71998D0F830
:10289000041821F00101C0F804181B9800681021E9
:1028A00006F0BCF9002118910990FFE718981B99D0
:1028B0004968884227D2FFE71998189900EB411020
:1028C0004FF67F31C0F808191998189A00EB42109A
:1028D000D0F8002922F40012C0F800291998189A9B
:1028E00000EB4210C0F8081B1998189900EB411032
:1028F000D0F8001B21F40011C0F8001BFFE7189866
:1029000001301890D2E71998D0F81C1841F0011145
:10291000C0F81C181B98006B00280FD0FFE719980F
:10292000D0F8841841F00B01C0F884181998D0F839
:10293000441841F00B01C0F844180FE01998D0F882
:10294000141842F22B021143C0F814181998D0F849
:10295000101841F00B01C0F81018FFE71998D0F8D3
:10296000001821F4FE61C0F800181B980168027C71
:1029700000F57170089008461146089A05F04CFE63
:102980001B9909684A6902F480524A610790FFE77F
:102990001B98006806F014FA800400282CD5FFE785
:1029A0001B98006805F01EFADDF86CE0DEF800E028
:1029B0000690704606F060F9DDF86CE0CEF80C0089
:1029C0001B980068059000F019FDDDF86CE09EF89A
:1029D0000C20DDF814E004907046049906F09AFA91
:1029E0001B990390084600F0D5FA1B9800684169CE
:1029F00001F400514161FFE71B98006806F0E0F91F
:102A0000C006002865D5FFE71B980068816921F0A2
:102A1000100181611A98006A13901B98139901F0B4
:102A20000F01C1EBC10100EB810000F5FE701290B7
:102A3000139800F4F0100221B1EB504F25D1FFE7BD
:102A4000BDF84C0047F6F07108421DD0FFE71A9818
:102A50001299C968139AC2F30A1206F0C1F91399C0
:102A600047F6F0721140DDF848E0DEF80C3003EB79
:102A70001111CEF80C1013991140129A936903EBBF
:102A8000111191610290FFE71CE0139800F4F0101F
:102A90000621B1EB504F13D1FFE71A981B9901F5AE
:102AA0007171082206F09CF9139947F6F0721140F3
:102AB000129AD2F818E00EEB11119161019000E02A
:102AC000FFE7FFE71B980068816941F01001816111
:102AD000FFE71B98006806F073F9000700280CD583
:102AE000FFE71B9800F086FA1B980068D0F814E006
:102AF0000EF0080EC0F814E0FFE71B98006806F01F
:102B00005FF9C00200280ED5FFE7002015901B9842
:102B10009DF8541000F050F81B980068416901F4CA
:102B200080114161FFE71B98006806F049F98002B7
:102B300000280ED5FFE7002015901B989DF8541033
:102B400000F04EF81B980068416901F400114161E2
:102B5000FFE71B98006806F033F9400000280CD509
:102B6000FFE71B98FFF7F8F91B980068D0F814E00E
:102B70000EF0804EC0F814E0FFE71B98006806F0E6
:102B80001FF94007002814D5FFE71B98006840682C
:102B9000139013984007002804D5FFE71B98FFF710
:102BA00027FAFFE713981B9909684A6810434860A1
:102BB000FFE7FFE71CB080BD80B586B00A4603463C
:102BC00005908DF813100598D0F804049DF81310A3
:102BD0000392029304F074FA019006B080BD0000E5
:102BE00080B586B00A46034605908DF81310059807
:102BF000D0F804049DF813100392029304F06CFAC9
:102C0000019006B080BD00002DE9F04F99B001465B
:102C1000179017980028149104D1FFE701208DF830
:102C2000630053E1179800681690179890F8BD0359
:102C3000002808D1FFE71798002180F8BC131798E7
:102C400000F04AF9FFE71798032180F8BD131698A2
:102C5000C06BC005002804D4FFE71798002101616C
:102C6000FFE71798006805F0C5FBDDF85CE0DEF8CB
:102C70000010DEF80420DEF80830DEF80CC0DEF8C4
:102C80001040DEF81450DEF81860DEF81C70DEF834
:102C90002080DEF82490DEF828A0DEF82CB0139017
:102CA000DEF83000DEF834E012906846C0F824E028
:102CB000DDF848E0C0F820E0C0F81CB0C0F818A06B
:102CC000C0F81490C0F81080C7608660456004604A
:102CD000084611461A46634605F0ACF8002808D0AD
:102CE000FFE71798022180F8BD1301208DF86300DB
:102CF000ECE0179800680021119106F0A1F81199F5
:102D00008DF857101090FFE79DF857001799496804
:102D1000884245D2FFE717989DF85710C1EBC101D3
:102D200000EB8100012180F83D109DF857001799B4
:102D3000C0EBC00201EB820181F83C009DF8570016
:102D40001799C0EBC00201EB8201A1F8420017986D
:102D50009DF85710C1EBC10100EB8100002180F804
:102D60003F1017989DF85720C2EBC20200EB82007B
:102D7000416417989DF85720C2EBC20200EB820015
:102D8000816417989DF85720C2EBC20200EB8200C5
:102D90000165FFE79DF8570001308DF85700B3E754
:102DA00000208DF85700FFE79DF8570017994968F4
:102DB00088423ED2FFE717989DF85710C1EBC1013A
:102DC00000EB8100002180F8FD119DF85700179A53
:102DD000C0EBC00302EB830282F8FC0117989DF858
:102DE0005720C2EBC20200EB820080F8FF11179857
:102DF0009DF85720C2EBC20200EB8200C0F804121B
:102E000017989DF85720C2EBC20200EB8200C0F871
:102E1000081217989DF85720C2EBC20200EB8200FF
:102E2000C0F81012FFE79DF8570001308DF85700E9
:102E3000BAE71798016842688368D0F80CC0D0F8E8
:102E400010E044698569C669076AD0F82480D0F823
:102E50002890D0F82CA0D0F830B0406B0F90684686
:102E60000E900F980D910E994862C1F820B0C1F8EC
:102E70001CA0C1F81890C1F814800F61CE608D605D
:102E80004C60C1F800E00D9811461A46634605F003
:102E90002DF9002808D0FFE71798022180F8BD130C
:102EA00001208DF8630011E01798002180F8381098
:102EB0001798012280F8BD23179800680C9105F03F
:102EC00001F90C998DF863100B90FFE79DF86300F2
:102ED00019B0BDE8F08F000080B58EB001460D90AE
:102EE00000200C900B900A90099008900D980068B3
:102EF000B0F1A04F05914AD1FFE7FFE7002007900E
:102F000043F63000C4F20200016841F001010160A3
:102F1000006800F00100079007980490FFE74FF465
:102F2000C05008900220099000200A9003200B90C6
:102F30000A200C900020C4F2020008A9FDF7CAFF85
:102F4000FFE743F63400C4F20200016841F080015B
:102F50000160FFE70020069043F64400C4F202003F
:102F6000016841F480410160006800F480400690EF
:102F700006980390FFE7FFE74320002102900191AC
:102F8000019AFEF747FF0298FEF738FFFFE70EB001
:102F900080BD000080B586B00146059001208DF807
:102FA00013000598C0680228039103D0FFE7FDF7DE
:102FB000A9FCFFE70598D0F804049DF8131004F06D
:102FC00069F90599D1F804140290084604F0EEF866
:102FD000019006B080BD000080B584B0014603902A
:102FE0000398D0F80404029104F02AF9019004B087
:102FF00080BD000080B584B0014603900398D0F8EE
:103000000404029104F028F9019004B080BD00008E
:1030100080B586B00A46034604908DF80F100292E0
:103020000193FFE7049890F8BC03012804D1FFE75F
:1030300002208DF817001BE00498012180F8BC13D2
:10304000FFE7FFE79DF80F00049981F83800049826
:1030500000689DF80F1005F027FF0090FFE7049827
:10306000002180F8BC13FFE700208DF81700FFE770
:103070009DF8170006B080BD80B584B0014603906E
:103080000398D0F8042400F5717002901046029A5B
:103090000191114604F030F9009004B080BD0000A9
:1030A00080B586B0014604900498006803900291B0
:1030B000FFE7049890F8BC03012804D1FFE7022041
:1030C0008DF817002CE00498012180F8BC13FFE76D
:1030D000FFE70498806A01280BD1FFE70498806914
:1030E000012806D0FFE70398816B41F480318163AA
:1030F000FFE70498006804F0D1FFDDF810E0DEF887
:1031000000E00190704605F055FD0090FFE704983F
:10311000002180F8BC13FFE700208DF81700FFE7BF
:103120009DF8170006B080BD80B584B001460390BD
:103130000398D0F80404029104F066F90399096831
:10314000D1F800EE4EF0010EC1F800EE0399096AC5
:103150000029019009D0FFE74EF61050CEF2000092
:10316000016841F006010160FFE704B080BD000086
:103170007047000080B588B00A4603460690059166
:10318000069800280392029304D1FFE701208DF8EE
:103190001F0028E1059843F60041C4F202010968C6
:1031A00001F00F01884212D9FFE7059843F600416C
:1031B000C4F202010870086800F00F000599884207
:1031C00004D0FFE701208DF81F000CE1FFE706980F
:1031D0000068800700282AD5FFE7069800684007A6
:1031E000002809D5FFE743F60800C4F20200016891
:1031F00041F4E0510160FFE70698006800070028ED
:1032000009D5FFE743F60800C4F20200016841F463
:1032100060410160FFE743F60800C4F20200016864
:1032200021F0F001069A926811430160FFE70698C9
:103230000068C007002870D0FFE7069840680128A2
:1032400011D1FFE743F60000C4F20200006800F469
:1032500000300021B1EB504F04D1FFE701208DF881
:103260001F00C0E02CE006984068022805D0FFE768
:1032700006984068032811D1FFE743F60000C4F226
:103280000200006800F000700021B1EB506F04D123
:10329000FFE701208DF81F00A5E010E043F60000D5
:1032A000C4F20200006800F002000021B1EB500FF0
:1032B00004D1FFE701208DF81F0094E0FFE7FFE74E
:1032C00043F60800C4F20200016821F00301069AE7
:1032D000526811430160FDF7FBFF0490FFE743F6DE
:1032E0000800C4F20200006800F00C00069949686A
:1032F000B0EB810F10D0FFE7FDF7EAFFDDF810E03B
:10330000A0EB0E0041F2893E704504D3FFE7032095
:103310008DF81F0067E0E2E7FFE7059843F60041FC
:10332000C4F20201096801F00F01884212D2FFE7DE
:10333000059843F60041C4F202010870086800F0E5
:103340000F000599884204D0FFE701208DF81F0087
:1033500049E0FFE706980068400700280CD5FFE722
:1033600043F60800C4F20200016821F4E051069A15
:10337000D26811430160FFE7069800680007002843
:103380000DD5FFE743F60800C4F20200016821F4FE
:103390006041069A126941EAC2010160FFE700F04C
:1033A00047F843F6080EC4F2020EDEF800E05FFABA
:1033B0008EFE4FEA1E1E49F6A451C0F6000111F818
:1033C0000E10C84040F2F401C2F20001086040F261
:1033D0004020C2F200000068FEF7ACFC00218DF82E
:1033E0001F100190FFE79DF81F0008B080BD00008E
:1033F0004C20C4F2472001210160704740F2F400E4
:10340000C2F200000068704780B5FFF7F7FF43F68F
:10341000080EC4F2020EDEF800E0CEF3822E49F66A
:10342000B451C0F6000111F80E10C84080BD000074
:1034300080B586B00020059004900390029043F67A
:103440000800C4F20200006800F00C0001460028E9
:10345000019108D0FFE7019804280AD0FFE70198FE
:1034600008280CD04FE042F20040C0F2F400029075
:103470004FE041F60030C0F2B700029049E043F659
:103480000400C4F20200016801F03F0105910068E8
:103490004002002813D5FFE743F60400C4F20200FF
:1034A0000068C0F3881041F60031C0F2B701A0FBFC
:1034B0000101059A0023FCF78BFE049012E043F60D
:1034C0000400C4F202000068C0F3881042F2004118
:1034D000C0F2F401A0FB0101059A0023FCF778FE7D
:1034E0000490FFE743F60400C4F20200006800F411
:1034F0004030022101EBD030039004980399B0FBD7
:10350000F1F0029005E042F20040C0F2F4000290B7
:10351000FFE7029806B080BD80B543F60C00C4F208
:1035200002000068000600280AD5FFE7FFF720FE2A
:1035300043F60E0EC4F2020E80208EF80000FFE764
:1035400080BD000080B588B001460690069800282E
:10355000019104D1FFE701208DF81F0061E3069877
:103560000068C007002800F0AB80FFE743F60800C2
:10357000C4F20200006800F00C00042813D0FFE73A
:1035800043F60800C4F20200006800F00C000828AE
:103590001FD1FFE743F60400C4F2020000684002B6
:1035A000002816D5FFE743F60000C4F202000068C9
:1035B00000F400300021B1EB504F09D0FFE706982E
:1035C0004068002804D1FFE701208DF81F0028E3A0
:1035D00075E0FFE706984068B0F5803F09D1FFE746
:1035E00043F60000C4F20200016841F4803101603A
:1035F00020E006984068B0F5A02F0DD1FFE743F614
:103600000000C4F20200016841F4802101600168F9
:1036100041F4803101600CE043F60000C4F2020086
:10362000016821F480310160016821F4802101608A
:10363000FFE7FFE7FFE70698406800281FD0FFE795
:10364000FDF746FE0590FFE743F60000C4F20200D6
:10365000006800F400300021B1EB504F0ED1FFE7BD
:10366000FDF736FEDDF814E0A0EB0E00652804D36C
:10367000FFE703208DF81F00D3E2E5E71EE0FDF72A
:1036800027FE0590FFE743F60000C4F20200006841
:1036900000F400300021B1EB504F0ED0FFE7FDF7F2
:1036A00017FEDDF814E0A0EB0E00652804D3FFE759
:1036B00003208DF81F00B4E2E5E7FFE7FFE7FFE72F
:1036C000069800688007002840F19B80FFE743F6DA
:1036D0000800C4F20200006810F00C0F13D0FFE7DE
:1036E00043F60800C4F20200006800F00C0008284D
:1036F0002CD1FFE743F60400C4F202000068400248
:10370000002823D4FFE743F60000C4F2020000685B
:1037100000F002000021B1EB500F09D0FFE706983E
:10372000C068012804D0FFE701208DF81F0078E26F
:1037300043F60000C4F20200016821F0F801069A85
:10374000126941EAC2010160FFE759E00698C068CA
:10375000002830D0FFE70020C4F24720012101609B
:10376000FDF7B6FD0590FFE743F60000C4F2020046
:10377000006800F002000021B1EB500F0ED1FFE70E
:10378000FDF7A6FDDDF814E0A0EB0E00032804D33E
:10379000FFE703208DF81F0043E2E5E743F6000052
:1037A000C4F20200016821F0F801069A126941EAA8
:1037B000C201016023E00020C4F247200021016023
:1037C000FDF786FD0590FFE743F60000C4F2020016
:1037D000006800F002000021B1EB500F0ED0FFE7AF
:1037E000FDF776FDDDF814E0A0EB0E00032804D30E
:1037F000FFE703208DF81F0013E2E5E7FFE7FFE78F
:10380000FFE7069800680007002850D5FFE70698F4
:103810004069002825D0FFE740F68060C4F24720C9
:1038200001210160FDF754FD0590FFE743F67400A8
:10383000C4F20200006800F002000021B1EB500F5A
:103840000ED1FFE7FDF744FDDDF814E0A0EB0E001C
:10385000032804D3FFE703208DF81F00E1E1E5E72B
:1038600024E040F68060C4F2472000210160FDF7AB
:103870002FFD0590FFE743F67400C4F202000068D4
:1038800000F002000021B1EB500F0ED0FFE7FDF772
:103890001FFDDDF814E0A0EB0E00032804D3FFE7C2
:1038A00003208DF81F00BCE1E5E7FFE7FFE706987E
:1038B00000684007002840F1D680FFE700208DF81F
:1038C0000F0043F64000C4F202000068C000002868
:1038D00016D4FFE7FFE70020029043F64000C4F251
:1038E0000200016841F080510160006800F08050E2
:1038F000029002980090FFE701208DF80F00FFE78B
:1039000047F20000C4F200000068C005002824D47B
:10391000FFE747F20000C4F20000016841F4807143
:103920000160FDF7D5FC0590FFE747F20000C4F207
:1039300000000068C00500280ED4FFE7FDF7C8FCB2
:10394000DDF814E0A0EB0E00032804D3FFE703200A
:103950008DF81F0065E1E8E7FFE7FFE7069880685C
:10396000012809D1FFE743F67000C4F202000168A4
:1039700041F0010101601FE00698806805280DD123
:10398000FFE743F67000C4F20200016841F0040151
:103990000160016841F0010101600CE043F6700034
:1039A000C4F20200016821F001010160016821F008
:1039B00004010160FFE7FFE7FFE706988068002841
:1039C00021D0FFE7FDF784FC0590FFE743F6700088
:1039D000C4F20200006800F002000021B1EB500FB9
:1039E00010D1FFE7FDF774FCDDF814E0A0EB0E004A
:1039F00041F2893E704504D3FFE703208DF81F0094
:103A00000FE1E3E720E0FDF763FC0590FFE743F6F5
:103A10007000C4F20200006800F002000021B1EB67
:103A2000500F10D0FFE7FDF753FCDDF814E0A0EBDA
:103A30000E0041F2893E704504D3FFE703208DF864
:103A40001F00EEE0E3E7FFE79DF80F00012809D132
:103A5000FFE743F64000C4F20200016821F0805104
:103A60000160FFE7FFE706988069002800F0D58035
:103A7000FFE743F60800C4F20200006800F00C0003
:103A8000082800F08B80FFE706988069022860D143
:103A9000FFE76020C4F2472000210160FDF718FC19
:103AA0000590FFE743F60000C4F20200006800F052
:103AB00000700021B1EB506F0ED0FFE7FDF708FC5E
:103AC000DDF814E0A0EB0E00032804D3FFE7032089
:103AD0008DF81F00A5E0E5E70698C169026A436A10
:103AE000D0F828C0114341EA83114FEACC324FF697
:103AF000FF739A43A2F580321143C06A41EA006025
:103B000043F60401C4F2020108606020C4F24720B9
:103B100001210160FDF7DCFB0590FFE743F60000A3
:103B2000C4F20200006800F000700021B1EB506F99
:103B30000ED1FFE7FDF7CCFBDDF814E0A0EB0E00A3
:103B4000032804D3FFE703208DF81F0069E0E5E7B1
:103B500023E06020C4F2472000210160FDF7B8FB9C
:103B60000590FFE743F60000C4F20200006800F091
:103B700000700021B1EB506F0ED0FFE7FDF7A8FBFE
:103B8000DDF814E0A0EB0E00032804D3FFE70320C8
:103B90008DF81F0045E0E5E7FFE73DE00698806906
:103BA000012804D1FFE701208DF81F0039E043F61A
:103BB0000800C4F2020000680490049800F4800039
:103BC0000699C969884221D1FFE7049800F03F00B7
:103BD0000699096A884219D1FFE7049847F6C0712F
:103BE00008400699496A884210D1FFE7049800F41A
:103BF00040300699896A884208D1FFE7049800F0AE
:103C000070600699C96A884204D0FFE701208DF8E8
:103C10001F0006E0FFE7FFE7FFE700208DF81F0029
:103C2000FFE79DF81F0008B080BD000080B582B09E
:103C3000014601900198009102F040F802B080BD69
:103C400082B001460190009102B0704782B00146F7
:103C50000190009102B0704780B584B00146029097
:103C600002980028019104D1FFE701208DF80F0090
:103C700021E0029890F83D00002808D1FFE7029863
:103C8000002180F83C10029800F01AF8FFE7029833
:103C9000022180F83D10029850F8041B009008465D
:103CA000009902F0BFF80298012180F83D10002031
:103CB0008DF80F00FFE79DF80F0004B080BD0000F5
:103CC00080B58AB0014609900998006844F2004224
:103CD000C4F20102904206911DD1FFE7FFE70020E8
:103CE000089043F64400C4F20200016841F4003138
:103CF0000160006800F40030089008980590FFE724
:103D00001920002104900391039AFEF783F8049888
:103D1000FEF774F826E00998006844F60001C4F242
:103D2000010188421DD1FFE7FFE70020079043F61D
:103D30004400C4F20200016841F48021016000687F
:103D400000F48020079007980290FFE71A200021D6
:103D500001900091009AFEF75DF80198FEF74EF889
:103D6000FFE7FFE70AB080BD83B0014602900298EA
:103D70000068C26842F00102C26002980068806870
:103D800000F00700019001980628009107D0FFE796
:103D900002980068016841F001010160FFE700201E
:103DA00003B0704782B001460190009102B07047A5
:103DB00080B582B00146019001980068006900F06A
:103DC00002000022B2EB500F009129D0FFE70198CA
:103DD0000068C06800F002000021B1EB500F1ED057
:103DE000FFE7019800686FF002010161019801216D
:103DF00001770198006880698007002804D0FFE7F8
:103E00000198FFF7CFFF06E0019800F015F901983F
:103E100000F018F9FFE7019800210177FFE7FFE7BD
:103E200001980068006900F004000021B1EB900FD8
:103E300029D0FFE701980068C06800F00400002165
:103E4000B1EB900F1ED0FFE7019800686FF00401FE
:103E5000016101980221017701980068806910F4DE
:103E6000407F04D0FFE70198FFF79CFF06E0019830
:103E700000F0E2F8019800F0E5F8FFE70198002172
:103E80000177FFE7FFE701980068006900F008008C
:103E90000021B1EBD00F29D0FFE701980068C0687E
:103EA00000F008000021B1EBD00F1ED0FFE7019811
:103EB00000686FF008010161019804210177019801
:103EC0000068C0698007002804D0FFE70198FFF769
:103ED00069FF06E0019800F0AFF8019800F0B2F831
:103EE000FFE7019800210177FFE7FFE701980068ED
:103EF000006900F010000021B1EB101F29D0FFE78E
:103F000001980068C06800F010000021B1EB101F9C
:103F10001ED0FFE7019800686FF010010161019861
:103F20000821017701980068C06910F4407F04D02F
:103F3000FFE70198FFF736FF06E0019800F07CF8F4
:103F4000019800F07FF8FFE7019800210177FFE773
:103F5000FFE7019800680069C007002811D0FFE75B
:103F600001980068C068C007002809D0FFE70198E1
:103F700000686FF001010161019800F069F8FFE746
:103F8000FFE7019800680069C0B20021B1EBD01FC3
:103F900013D0FFE701980068C068C0B20021B1EB00
:103FA000D01F09D0FFE7019800686FF08001016120
:103FB0000198FFF745FEFFE7FFE7019800680069F9
:103FC00000F040000021B1EB901F14D0FFE70198F2
:103FD0000068C06800F040000021B1EB901F09D0DC
:103FE000FFE7019800686FF040010161019800F05F
:103FF000BBF8FFE7FFE701980068006900F02000C8
:104000000021B1EB501F14D0FFE701980068C06891
:1040100000F020000021B1EB501F09D0FFE701980C
:1040200000686FF0200101610198FFF70FFEFFE7C4
:10403000FFE702B080BD000082B001460190009110
:1040400002B0704782B001460190009102B0704703
:1040500080B586B001460590059840F60C42C2F244
:104060000002904204912FD1FFE740F60000C4F215
:1040700002004FF40051FDF7EBF840F68D40C2F21C
:1040800000000178013101700078000600280DD58C
:10409000FFE740F2FE10C2F20000C17841F040019B
:1040A000C170417941F0400141710CE040F2FE10D5
:1040B000C2F20000C17801F0BF01C170417901F086
:1040C000BF014171FFE74DE0059840F64C41C2F257
:1040D0000001884245D1FFE740F24820C2F20000CB
:1040E0000068312829D1FFE740F68C40C2F2000079
:1040F0000078132821DCFFE740F68C40C2F2000074
:10410000017849F64462C0F6000202EB811140F2E8
:104110005442C2F200024023039010461A4602F0B5
:10412000F7FB03990A7801320A7040F24822C2F282
:10413000000200231360029012E040F68D40C2F2AC
:104140000000007840F2FE11C2F20001487040F217
:104150005440C2F20000402202F0DAFB0190FFE777
:10416000FFE7FFE706B080BD82B0014601900091F5
:1041700002B07047FFE7FEE780B540F2B070C2F2D0
:104180000000FDF7C3F880BD80B540F2B070C2F208
:104190000000FDF781F980BD82B0014601900198D1
:1041A000C06AB0F52A0F009104D1FFE70198012100
:1041B000C1620BE00198C06AB0F12A4F04D1FFE759
:1041C00001980821C16200E0FFE7FFE702B07047F5
:1041D00080B584B0014603900398806B02900298EA
:1041E00090F83D008DF807000298406B0028009180
:1041F00005D0FFE70298406B0021C163FFE70298FA
:10420000806B002805D0FFE70298806B0021C16316
:10421000FFE702980068016821F48061016002985C
:10422000002141850298406B002805D0FFE70298E5
:10423000406B00210165FFE70298806B002805D0E4
:10424000FFE70298806B00210165FFE70298006894
:10425000016821F001010160029890F83D0060289A
:104260000ED1FFE70298202180F83D10029800212E
:1042700080F83E10029801640298FDF72FF827E0BD
:104280009DF8070000F02800282814D1FFE70298C5
:104290000068016841F0010101600298006801684E
:1042A00041F4806101600298002101630298282195
:1042B00080F83D1008E00298202180F83D10029817
:1042C000002180F83E10FFE70298FDF7C1FAFFE7F2
:1042D00004B080BD80B584B001460390039890F887
:1042E0003D008DF80B00039890F83E0010280091D7
:1042F0000CD1FFE79DF80B00222807D1FFE70398B8
:104300000068016821F400610160FFE79DF80B007F
:1043100000F02800282808D1FFE703980021016356
:104320000398282180F83D1019E003980068406840
:1043300000F40060B0F5006F0AD0FFE79DF80B00B5
:10434000602805D0FFE70398202180F83D10FFE7A3
:10435000039800210163039880F83E10FFE703985B
:1043600000684068000500285FD5FFE703980068F3
:10437000416821F4006141600398406B90F835007A
:1043800001281ED0FFE70398406B44F2D111C0F61C
:10439000000101650398406BFCF7D8FA00280FD0A4
:1043A000FFE703980068016821F0010101600398AC
:1043B000202180F83D100398406B016D8847FFE78E
:1043C00032E00398806B44F2D111C0F60001016520
:1043D0000398806BFCF7BAFA002824D0FFE7039813
:1043E0000068406900F040000121B1EB901F0BD143
:1043F000FFE70398006800690399496A0870039809
:10440000416A01314162FFE703980068016821F0C9
:10441000010101600398202180F83D100398806B12
:10442000016D8847FFE7FFE745E0039890F83D00FE
:10443000602826D1FFE70398202180F83D100398DB
:104440000021016403980068406900F040000121E8
:10445000B1EB901F0BD1FFE7039800680069039947
:10446000496A08700398416A01314162FFE7039885
:104470000068016821F0010101600398FCF72EFF3C
:1044800018E003980068406900F040000121B1EB9A
:10449000901F0BD1FFE70398006800690399496AF0
:1044A00008700398416A01314162FFE70398FDF704
:1044B000CFF9FFE7FFE70398006C01900198C00770
:1044C000002811D1FFE7019800F0020002280BD06C
:1044D000FFE7019800F00400042805D0FFE70198E9
:1044E0000007002807D5FFE703980068416821F41A
:1044F000E0614160FFE7039890F83D008DF80B0004
:104500000398006C4007002818D5FFE79DF80B00C2
:10451000282813D1FFE703980021CFF6FF71C1626D
:104520000398002101630398202280F83D2003981E
:1045300080F83E100398FDF7F3FAFFE704B080BD62
:1045400080B584B0014603900398C06A0290039836
:10455000408D0428019115D1FFE703980068416858
:1045600021F4806141600398006800690399496AF9
:1045700008700398416A013141620398418D013905
:104580004185ACE00398408D032824D1FFE70398D0
:104590000068416821F480614160029804280BD0D2
:1045A000FFE70298022807D0FFE703980068016838
:1045B00021F480610160FFE70398006800690399B6
:1045C000496A08700398416A013141620398418D3C
:1045D0000139418582E00398408D02286ED1FFE7C2
:1045E0000298012804D0FFE70298102807D1FFE7BE
:1045F00003980068016821F4806101601CE0029862
:10460000042804D0FFE70298022807D1FFE70398A7
:104610000068016841F4806101600CE00298102894
:1046200007D0FFE703980068016841F4007101605A
:1046300000E0FFE7FFE7FFE70398006800690399E0
:10464000496A08700398416A013141620398418DBB
:10465000013941850398006800690399496A087027
:104660000398416A013141620398418D01394185C6
:1046700003980068416821F440714160039820214B
:1046800080F83D10039890F83E0040280AD1FFE7DB
:104690000398002180F83E10039801630398FDF70A
:1046A00051FA0AE00398002180F83E100398122185
:1046B00001630398FDF73AFAFFE70EE003980068FC
:1046C00000690399496A08700398416A013141629F
:1046D0000398418D01394185FFE7FFE7FFE704B00B
:1046E00080BD000080B584B001460390039890F827
:1046F0003D00222801916CD1FFE70398408D029084
:10470000029804281BD3FFE7039800680069039907
:10471000496A08700398416A013141620398418DEA
:10472000013941850398408D032807D1FFE703989D
:104730000068416821F480614160FFE748E0039828
:10474000C06A022842D0FFE70298012804D0FFE7A0
:10475000029800283AD1FFE703980068016821F425
:104760008061016003980068416821F4E061416064
:104770000398006800690399496A08700398416AC0
:10478000013141620398418D01394185039820210F
:1047900080F83D10039890F83E0040280AD1FFE7CA
:1047A0000398002180F83E10039801630398FDF7F9
:1047B000C9F90AE00398002180F83E1003981221FD
:1047C00001630398FDF7B2F9FFE700E0FFE7FFE7B9
:1047D000FFE704B080BD000080B584B001460390BF
:1047E0000398C06A0290039890F83D002128019137
:1047F00061D1FFE70398408D00280ED0FFE70398B2
:104800000168406A007808610398416A0131416299
:104810000398418D013941854CE0029808281ED04B
:10482000FFE7029820281AD0FFE7029810F5803F92
:1048300015D0FFE703980068416821F4E06141600A
:104840000398112101630398002180F83E1003981A
:10485000202180F83D100398FDF76EF929E00398B8
:104860000068416821F4E0614160039800680168D4
:1048700041F4007101600398002101630398202135
:1048800080F83D10039890F83E00402808D1FFE7DB
:104890000398002180F83E100398FDF759F907E0CE
:1048A0000398002180F83E100398FDF745F9FFE7D3
:1048B000FFE7FFE70BE0039890F83E00402804D1A3
:1048C000FFE7039800F000FB00E0FFE7FFE704B01C
:1048D00080BD000080B584B001460390039890F835
:1048E0003D008DF80B00039890F83E008DF80A000B
:1048F0000398C06A01900398008D0028009152D15E
:10490000FFE79DF80B0021284DD1FFE7019808280B
:104910001ED0FFE7019820281AD0FFE7019810F574
:10492000803F15D0FFE703980068416821F4E061FB
:1049300041600398112101630398002180F83E1023
:104940000398202180F83D100398FDF7F5F829E041
:1049500003980068416821F4E061416003980068B1
:10496000016841F40071016003980021016303981C
:10497000202180F83D10039890F83E00402808D18F
:10498000FFE70398002180F83E100398FDF7E0F858
:1049900007E00398002180F83E100398FDF7CCF85B
:1049A000FFE7FFE736E09DF80B0021280AD0FFE77C
:1049B0009DF80A0040282BD1FFE79DF80B00222824
:1049C00026D1FFE70398408D002807D1FFE7039821
:1049D0000068416821F48061416018E0039890F814
:1049E0003E00402804D1FFE7039800F06DFA0DE087
:1049F00003980168406A007808610398416A0131B0
:104A000041620398418D01394185FFE7FFE700E0EE
:104A1000FFE7FFE704B080BD82B001460190019836
:104A2000406CC0B2019A126810610198406B002876
:104A3000009105D1FFE70198806B002814D0FFE7B3
:104A40000198406BC06B002806D1FFE70198806B8E
:104A5000C06B002807D0FFE701980068416841F467
:104A600000614160FFE7FFE702B0704799B001467F
:104A70001890189890F83E008DF85F001898C06A5A
:104A800016901898006B1590189890F83D00222801
:104A90000A9140F08881FFE71898006D002814D132
:104AA000FFE79DF85F0040280FD1FFE7FFE70020F8
:104AB00014901898006840691490189800688069EC
:104AC000149014980990FFE76CE11898006D002885
:104AD0001FD1FFE718980069B0F5404F19D1FFE7E3
:104AE000FFE7002013901898006840691390189809
:104AF00000688069139013980890FFE71898006881
:104B0000016841F4807101601898016D01310165FF
:104B100047E11898408D002815D1FFE7FFE70020F6
:104B2000129018980068406912901898006880697F
:104B3000129012980790FFE718980068016841F4F6
:104B40000071016029E11898408D012840F094809F
:104B5000FFE7169810F5803F38D1FFE718980068F6
:104B6000016821F4806101601898006840680005C0
:104B7000002815D5FFE718980068016821F48061C6
:104B80000160FFE7002011901898006840691190BB
:104B9000189800688069119011980690FFE714E05A
:104BA000FFE700201090189800684069109018984E
:104BB00000688069109010980590FFE718980068C9
:104BC000016841F400710160FFE754E0169808287D
:104BD00035D0FFE71698202831D0FFE71598122826
:104BE00004D1FFE71698012829D1FFE71698042879
:104BF0000FD0FFE7169802280BD0FFE71698102871
:104C000007D0FFE718980068016821F4806101600F
:104C100006E018980068016841F480610160FFE7D0
:104C2000FFE700200F901898006840690F901898CF
:104C3000006880690F900F980490FFE71AE01898B9
:104C40000068016821F480610160FFE700200E9098
:104C50001898006840690E901898006880690E9056
:104C60000E980390FFE718980068016841F40071FE
:104C70000160FFE7FFE78FE01898408D022852D1CE
:104C8000FFE71698042815D0FFE71698022811D0E0
:104C9000FFE7169810280DD0FFE718980068016804
:104CA00021F48061016018980068016841F4006196
:104CB000016006E018980068016841F480610160B5
:104CC000FFE7189800684068000500281CD5FFE73A
:104CD000169810F5803F10D0FFE7169801280CD0E9
:104CE000FFE71698082808D0FFE71698102804D088
:104CF000FFE71698202807D1FFE718980068416859
:104D000041F480514160FFE7FFE700200D901898C3
:104D1000006840690D901898006880690D900D98A2
:104D20000290FFE737E018980068016841F480615D
:104D30000160189800684068000500281CD5FFE74E
:104D4000169810F5803F10D0FFE7169801280CD078
:104D5000FFE71698082808D0FFE71698102804D017
:104D6000FFE71698202807D1FFE7189800684168E8
:104D700041F480514160FFE7FFE700200C90189854
:104D8000006840690C901898006880690C900C9835
:104D90000190FFE7FFE7FFE7FFE7189800210165B3
:104DA000FFE7FFE70EE0FFE700200B901898006890
:104DB00040690B901898006880690B900B980090E0
:104DC000FFE7FFE719B0704782B0014601900198F4
:104DD00090F83E004028009117D1FFE70198006D40
:104DE000002808D1FFE70198406C00F0FE0001990F
:104DF0000968086108E00198406C40F00100C0B209
:104E0000019909680861FFE75CE001980069B0F565
:104E1000804F35D1FFE7019890F83D00212808D157
:104E2000FFE70198406C00F0FE00019909680861F5
:104E300008E00198406C40F00100C0B20199096897
:104E40000861FFE70198406B002806D0FFE7019852
:104E5000406BC06B00280BD1FFE70198806B0028E6
:104E60000DD0FFE70198806BC06B002807D0FFE7EB
:104E700001980068416841F400614160FFE720E06B
:104E80000198006D00280AD1FFE70198406C00F4FA
:104E90004070C009F03001990968086110E001987C
:104EA000006D01280AD1FFE70198406C00F44070C2
:104EB000C009F13001990968086100E0FFE7FFE7E8
:104EC000FFE7FFE702B0704782B00146019001980A
:104ED000006D002800911DD1FFE70198C06C0128EA
:104EE0000BD1FFE70198806CC0B201990968086195
:104EF0000198016D023101650BE00198806C80B270
:104F0000000A0199096808610198016D0131016584
:104F1000FFE73BE00198006D01280BD1FFE7019806
:104F2000806CC0B20199096808610198016D013176
:104F300001652AE00198006D022824D1FFE701985D
:104F400090F83D00222807D1FFE70198006801682A
:104F500041F48071016015E0019890F83D0021282E
:104F60000ED1FFE701980168406A00780861019856
:104F7000416A013141620198418D0139418500E06A
:104F8000FFE7FFE700E0FFE7FFE7FFE702B070475A
:104F900082B0014601900198408D002800910FD009
:104FA000FFE70198006800690199496A0870019853
:104FB000416A013141620198418D01394185FFE724
:104FC00002B0704780B584B001460390039890F812
:104FD0003D008DF80B000398408D002801912AD0E8
:104FE000FFE70398006800690399496A087003980D
:104FF000416A013141620398418D0139418503982D
:10500000408D002816D1FFE79DF80B002A2811D10A
:10501000FFE703980068416821F4806141600398CC
:10502000222101630398282180F83D100398FCF7A2
:1050300047FEFFE7FFE704B080BD000082B00146F5
:1050400001900198408D002800910ED0FFE7019853
:105050000168406A007808610198416A0131416243
:105060000198418D01394185FFE702B0704700008A
:1050700080B584B001460390039890F83D008DF808
:105080000B000398408D0028019129D0FFE7039879
:105090000168406A007808610398416A0131416201
:1050A0000398418D013941850398408D002816D120
:1050B000FFE79DF80B00292811D1FFE7039800684E
:1050C000416821F4806141600398212101630398C4
:1050D000282180F83D100398FCF7F8FDFFE7FFE773
:1050E00004B080BD80B586B00A46034605900491A1
:1050F00000208DF80F00059890F83D0000F0280082
:1051000028280292019332D1FFE705980068416890
:1051100021F4806141609DF8100000F0040000213E
:10512000B1EB900F04D1FFE701208DF80F00FFE7EE
:105130009DF810000021B1EBD01F05D1FFE70598C5
:10514000C068ADF80C0004E005988069ADF80C006B
:10515000FFE7FFE70598002180F83C10FFE705987E
:105160009DF80F10BDF80C20FCF7BEF80BE0059879
:1051700000686FF002014161FFE70598002180F8A7
:105180003C10FFE7FFE706B080BD000080B584B0AB
:1051900001460390039890F83D008DF80B000398AA
:1051A000C06A019001980828009104D0FFE7019897
:1051B000202829D1FFE79DF80B00282824D1FFE7FC
:1051C00003980021CFF6FF71C1620398006841681F
:1051D00021F4E0614160039800686FF480614161EF
:1051E00003980068016821F4806101600398002140
:1051F00001630398202280F83D20039880F83E1038
:105200000398FCF78DFC30E09DF80B00212825D198
:10521000FFE703980021CFF6FF71C16203982121B7
:1052200001630398202180F83D100398002180F845
:105230003E1003980068416821F4E06141600398E2
:1052400000686FF48061416103980068016821F48F
:10525000806101600398FCF739FD05E00398006860
:105260006FF480614161FFE7FFE704B080BD00009B
:1052700080B586B001460590059890F83D008DF800
:10528000130005980068426822F4E06242600291CF
:10529000FFE7002003900598006840690390059897
:1052A0000068016841F00101016003980190FFE787
:1052B00005980068016821F4806101600598006824
:1052C00040680005002871D5FFE79DF813002228EB
:1052D00005D0FFE79DF813002A2833D1FFE7059892
:1052E000806B00684068059948850598408D0028C6
:1052F00006D0FFE70598016C41F004010164FFE767
:1053000005980068416821F4006141600598806B50
:10531000FBF740FB012814D0FFE70598806B44F2AF
:10532000D111C0F6000101650598806BFBF70EFBFB
:10533000002805D0FFE70598806B016D8847FFE7DF
:10534000FFE732E00598406B0068406805994885A2
:105350000598408D002806D0FFE70598016C41F0C4
:1053600004010164FFE705980068416821F40061C9
:1053700041600598406BFBF70DFB012814D0FFE757
:105380000598406B44F2D111C0F600010165059803
:10539000406BFBF7DBFA002805D0FFE70598406B70
:1053A000016D8847FFE7FFE7FFE7FFE70598408DBE
:1053B00000283ED0FFE705980068406900F004002F
:1053C0000121B1EB900F0FD1FFE70598006800694C
:1053D0000599496A08700598416A0131416205984A
:1053E000418D01394185FFE705980068406900F06B
:1053F00040000121B1EB901F0FD1FFE70598006835
:1054000000690599496A08700598416A013141624D
:105410000598418D01394185FFE70598408D0028A9
:1054200006D0FFE70598016C41F004010164FFE735
:10543000FFE70598006C002804D0FFE70598FEF709
:1054400049FF42E09DF813002A280BD1FFE7059899
:10545000002101630598282180F83D100598FCF78C
:105460002FFCFFE7059890F83D00282813D1FFE7AF
:1054700005980021CFF6FF71C162059800210163F4
:105480000598202280F83D20059880F83E10059868
:10549000FCF746FB18E00598006B222805D0FFE7D3
:1054A0009DF8130022280ED1FFE705980021016323
:1054B0000598202280F83D20059880F83E10059838
:1054C000FCF7FEFBFFE7FFE7FFE706B080BD00004B
:1054D00080B586B013468C468646059004918DF8BB
:1054E0000F2000208DF80E000293CDF804C0CDF8F7
:1054F00000E0FFE79DF80E009DF80F10884229DAC2
:10550000FFE70598000F092809D8FFE70598000F65
:10551000303004999DF80E2001F8120009E005983A
:10552000372101EB107004999DF80E2001F812004C
:10553000FFE705980001059004989DF80E1000EB18
:10554000410000214170FFE79DF80E0001308DF809
:105550000E00CFE706B080BD80B586B0FFE7002023
:10556000059043F63000C4F20200016841F40011D6
:105570000160006800F40010059005980490FFE7B2
:105580000B20002103900291029AFCF743FC039840
:10559000FCF734FC0C2001900299029AFCF73AFCCB
:1055A0000198FCF72BFC06B080BD000080B596B0DA
:1055B000002015901490139012901190FFE7002096
:1055C000109043F63000C4F20200016841F004017B
:1055D0000160006800F00400109010980C90FFE744
:1055E000FFE700200F9043F63000C4F2020001688C
:1055F00041F080010160006800F080000F900F987A
:105600000B90FFE7FFE700200E9043F63000C4F256
:105610000200016841F001010160006800F0010032
:105620000E900E980A90FFE7FFE700200D9043F6DA
:105630003000C4F20200016841F00201016000681C
:1056400000F002000D900D980990FFE740F6000071
:10565000C4F202004FF40051002208900791069214
:10566000FBF714FE40F20040C4F202000421059052
:105670000491069AFBF70AFE0798119001211291F6
:10568000069A139214920DF1440E089803917146F4
:10569000CDF808E0FBF71EFC0398119006991291D3
:1056A00013910022C4F20202104602990192FBF704
:1056B00011FC0498119003991291069A1392149276
:1056C00005980299FBF706FC4FF4806011900320C7
:1056D00012900698139001980299FBF7FBFB16B005
:1056E00080BD000080B540F2B070C2F2000045F20B
:1056F0000041C4F20001016048F2A061C0F2010162
:10570000416000218160C1604FF4804202614161CB
:105710008161C1610162FCF7A1F8002803D0FFE7B5
:10572000FBF7F0F8FFE780BD80B540F60C40C2F211
:10573000000044F20041C4F20101016040F2E7318F
:10574000416000218160DB22C26001618161FEF75E
:1057500083FA002803D0FFE7FBF7D4F8FFE780BD0A
:1057600080B540F64C40C2F2000044F60001C4F29D
:105770000101016040F2E73141600021816040F2A7
:10578000DF12C26001618161FEF766FA002803D072
:10579000FFE7FBF7B7F8FFE780BD000080B540F2F8
:1057A0005440C2F2000040F20C01C2F2000100229B
:1057B00001F0DCF9002803D0FFE7FBF7A3F8FFE7CF
:1057C00040F25440C2F2000040F20C11C2F200015B
:1057D00001F07EFE002803D0FFE7FBF793F8FFE718
:1057E00040F25440C2F2000001F0F6FF002803D05E
:1057F000FFE7FBF787F8FFE780BD0000FFE7FEE764
:1058000080B5FDF789FE80BD80B58BB013468C4610
:1058100086460A90099108920A9800F007000790BE
:105820000798C0F1070005280493CDF80CC0CDF807
:1058300008E003D3FFE70420019004E00798C0F1DB
:1058400007000190FFE701980690079804300628AA
:1058500003D8FFE70020009003E00798033800908A
:10586000FFE70098059009980699012202FA01F1D4
:105870000139084005998840089B02FA01F1013975
:10588000194008430BB080BD80B540F60400C2F259
:105890000000FCF741FE80BD80B58AB00A46034691
:1058A0000990089109980068079007980690079852
:1058B000006C05900698089900EB4110D0F8080B91
:1058C00004900998006901280392029317D1FFE719
:1058D000059843F20B01C4F6547188420ED3FFE7DA
:1058E00004980004002809D5FFE70698089900EB02
:1058F00041104FF40041C0F8081BFFE716E005987F
:1059000043F20A11C4F6547188420ED1FFE704989D
:105910000004002809D5FFE70698089900EB41101C
:105920004FF40041C0F8081BFFE7FFE70998FDF7B7
:10593000A3FB059843F20B0EC4F6547E704511D3B9
:10594000FFE70998006901280CD1FFE70998016871
:1059500000F57172012001900846019902F05CFE89
:105960000090FFE700200AB080BD000080B58CB039
:105970000A4603460B900A910B9800680990099813
:1059800008900998006C079008980A9900EB41105C
:10599000D0F8080B06900B98006901280592049333
:1059A00040F0A580FFE70698000700282BD5FFE709
:1059B000079843F20B01C4F6547188420ED3FFE7F7
:1059C00006980004002809D5FFE708980A9900EB1B
:1059D00041104FF40041C0F8081BFFE70B98FDF79A
:1059E0004BFB0B98D0F800E000F571720121704676
:1059F00002F012FE08990A9A01EB42110822C1F83E
:105A0000082B039072E006988006002808D5FFE76F
:105A100008980A9900EB41102021C0F8081B64E0A7
:105A20009DF8180010F0280F5DD1FFE7079843F2AA
:105A30000B01C4F6547188420ED3FFE706980004A8
:105A4000002809D5FFE708980A9900EB41104FF4A8
:105A50000041C0F8081B45E00B980A99C1EBC10250
:105A600000EB8200D0F80402089A02EB4111D1F851
:105A7000101B6FF3DF41401A0B990A9AC2EBC20266
:105A800001EB8201C1F814020B980A99C1EBC10124
:105A900000EB8100D0F80412D0F808221144C0F8BD
:105AA00008120B989DF82810FCF782FA0A98002833
:105AB00017D1FFE70B980A99C1EBC10100EB8100F8
:105AC000D0F8100200280CD1FFE70B98016800F510
:105AD0007172012002900846029902F09DFD01902A
